:100000000C942A000C9434000C9434000C943400AA
:100010000C9434000C9434000C9434000C94340090
:100020000C9434000C9434000C9434000C94340080
:100030000C9434000C9434000C9434000C94340070
:100040000C9434000C9434000C9434000C94340060
:100050000C94340011241FBECFE5D4E0DEBFCDBF29
:100060000E944F000C9454000C94000010BC89E1D5
:1000700089B986E880BD88E18AB908955D9BFECF85
:100080008CB908955F9BFECF8CB108950E94420009
:10009000833011F480E001C08DEF0C943E000E948B
:0C00A00036000E944600FDCFF894FFCF10
:00000001FF
