:100000000C942A000C9447000C9447000C94470071
:100010000C9447000C9447000C9447000C94470044
:100020000C9447000C9447000C9447000C94470034
:100030000C9447000C9447000C9447000C94470024
:100040000C9447000C9447000C9447000C94470014
:100050000C94470011241FBECFE5D4E0DEBFCDBF16
:1000600011E0A0E6B0E0ECE6FDE002C005900D92E4
:10007000A839B107D9F721E0A8E9B1E001C01D9284
:10008000AA39B207E1F70E94F1040C94B4060C946B
:10009000000010BC89E189B986E880BD88E18AB991
:1000A00008955D9BFECF6CB908955F9BFECF8CB128
:1000B0000895BF92CF92DF92EF92FF920F931F931A
:1000C000CF93DF93EC018B017A01B22E80E090E0B8
:1000D0005F9BFECF8E159F0578F46C012FEFC21A3F
:1000E000D20A6CB1F801E80FF91F6083BB2019F048
:1000F000CE010E945100C601F801E80FF91F3197A7
:1001000020812D3029F7BB2069F06AE0CE01DF9114
:10011000CF911F910F91FF90EF90DF90CF90BF9004
:100120000C945100DF91CF911F910F91FF90EF90B0
:10013000DF90CF90BF9008950F931F93CF93DF93DD
:100140008C01EB016991662321F0C8010E945100E6
:10015000F9CFDF91CF911F910F910895CF93DF9346
:10016000EC010E949C006DE0CE010E9451006AE00B
:10017000CE01DF91CF910C945100AF92BF92CF92FC
:10018000DF92EF92FF920F931F93CF93DF937C0147
:100190006B01C42FD0E08E01000F111F000F111F43
:1001A000A12CB12C045011092097B9F0C8018A0D77
:1001B0009B1DB60102C0769567958A95E2F76F7030
:1001C0006A3010F4605D01C0695CC7010E94510093
:1001D000219784E0A81AB108E7CFDF91CF911F9152
:1001E0000F91FF90EF90DF90CF90BF90AF90089568
:1001F000CF93DF93EC01611103C067E670E002C0AA
:1002000060E670E0CE010E949C006EE670E0CE01D8
:10021000DF91CF910C949C00CF93DF93EC016BE1C5
:100220000E9451006BE5CE010E94510062E3CE01B5
:100230000E9451006AE4CE010E9451006BE1CE01A0
:100240000E9451006BE5CE010E94510068E4CE018E
:10025000DF91CF910C945100CF93DF9300D000D069
:1002600000D0CDB7DEB721E046E050E0BE016F5FC1
:100270007F4F0E94590040E150E060E070E0CE0105
:1002800001960E943005CB0126960FB6F894DEBF8A
:100290000FBECDBFDF91CF910895CF93DF931F9213
:1002A000CDB7DEB75D9BFECF8CB95F9BFECF8CB127
:1002B00089832FE089E095E0215080409040E1F76C
:1002C00000C000000F90DF91CF910895FC01718371
:1002D000608353834283158214820895CF93DF9302
:1002E000EC0163E770E0888199810E94AE006BEABF
:1002F00070E0888199810E94AE0069EF70E088818A
:1003000099810E94AE0067EC70E088819981DF914D
:10031000CF910C94AE00CF93DF93EC01888199814B
:100320000E940C016AEF70E0888199810E94AE0002
:1003300069EF70E0888199810E94AE00CE01DF9163
:10034000CF910C946E010F931F93CF93DF93CDB792
:10035000DEB72A970FB6F894DEBF0FBECDBF8C0173
:10036000FC0162817381CE0101960E946804F8014C
:100370006481758148E0808191810E94BD0068E1BF
:1003800071E0F801808191810E949C00698170E098
:1003900042E0F801808191810E94BD0068E171E036
:1003A000F801808191810E949C006A817B8144E0F8
:1003B000F801808191810E94BD0067E171E0F80140
:1003C000808191810E949C006C81F80180819181E3
:1003D0000E94F80067E171E0F801808191810E943C
:1003E0009C006D81F801808191810E94F80068E194
:1003F00071E0F801808191810E949C006E81F8017A
:10040000808191810E94F80068E171E0F8018081AB
:1004100091810E949C006F81F801808191810E94EE
:10042000F80067E171E0F801808191810E949C00F1
:100430006885F801808191810E94F80066E171E091
:10044000F801808191810E949C006985F80180817A
:1004500091810E94F80065E171E0F801808191814D
:100460000E949C006A85F801808191810E94F800B9
:1004700069EF70E0F801808191812A960FB6F894B7
:10048000DEBF0FBECDBFDF91CF911F910F910C94B6
:10049000AE007F928F929F92AF92BF92CF92DF92E7
:1004A000EF92FF920F931F93CF93DF93EC01812C78
:1004B000912C540177247394640144E0B401888141
:1004C00099810E94BD0068E171E0888199810E9454
:1004D0009C0000E010E07601E00EF11EB7018A8179
:1004E0009B810E9495048A819B810E9449042881F6
:1004F00039818E159F0531F060E0C9010E94F80036
:10050000712C04C06EE2C9010E9451000F5F1F4FA1
:100510000032110501F769EF70E0888199810E942E
:10052000AE0080E2880E911CA11CB11C81149104C4
:1005300081E0A806B10409F0BFCF8A819B810E94A7
:100540003804711003C069E271E002C06BE171E030
:10055000888199810E94AE0069EF70E0888199815D
:100560000E94AE00CE01DF91CF911F910F91FF90BD
:10057000EF90DF90CF90BF90AF909F908F907F9043
:100580000C946E013F924F925F926F927F928F9286
:100590009F92AF92BF92CF92DF92EF92FF920F9312
:1005A0001F93CF93DF93EC0100E010E033243394EA
:1005B00066246A94712CE12CF12C48018E0C9F1C4E
:1005C00044E0B401888199810E94BD0068E171E036
:1005D000888199810E949C00C12CD12C2601480C55
:1005E000591CC201B3010E941C055C01482FB201D5
:1005F0008A819B810E94B6048BE591EC0197F1F70B
:1006000000C00000B2018A819B810E94D904282F7A
:1006100030E088819981A216B30629F060E00E943B
:10062000F800312C03C06EE20E9451009FEFC91AFE
:10063000D90A80E2C816D10489F669EF70E0888192
:1006400099810E94AE0090E2E90EF11CE11481E074
:10065000F80609F0B2CF115801159EEF190709F0FD
:10066000AACF8A819B810E943804332019F06BE164
:1006700071E002C069E271E0888199810E94AE0058
:1006800069EF70E0888199810E94AE00CE01DF9110
:10069000CF911F910F91FF90EF90DF90CF90BF907F
:1006A000AF909F908F907F906F905F904F903F9012
:1006B0000C946E01CF92DF92EF92FF920F931F93F3
:1006C000CF93DF938C016CE371E0FC018081918119
:1006D0000E949C00F801808191810E942C0120E001
:1006E000C22FD92F6E01D394CC15DD05B8F544E0A7
:1006F000BE01F801808191810E94BD0068E171E036
:10070000F801808191810E949C00E12CF12CB701BD
:100710006C0F7D1FF801828193810E94D904682F9C
:1007200070E042E0F801808191810E94BD0069E1A2
:1007300071E0F801808191810E949C00FFEFEF1A27
:10074000FF0A80E1E816F10411F769EF70E0F801A3
:10075000808191810E94AE006096C6CFDF91CF91DB
:100760001F910F91FF90EF90DF90CF9008950F931E
:100770001F93CF93DF93EC016CE571E08881998141
:100780000E949C00888199810E942C018C0166E85E
:1007900071E0888199810E949C00888199810E94E2
:1007A0002C01482FB8018A819B810E94B6048BE5F9
:1007B00091EC0197F1F700C0000063E971E08881D6
:1007C0009981DF91CF911F910F910C94AE00CF933F
:1007D000DF93EC018A819B810E943804CE010E9444
:1007E000A301888199810E945500873599F17CF495
:1007F000833421F12CF48F3389F18134B9F032C084
:100800008F34C1F0823511F1883461F527C0883604
:1008100029F12CF4813651F0833681F023C08237E0
:10082000A9F08737B9F08F36E9F404C0CE010E94F1
:100830004902D7CFCE010E94C202D3CF8C819D81C5
:1008400001969D838C83DF91CF910895CE010E9404
:100850005A03C7CFCE010E94B703C3CFCE010E9477
:100860006E01BFCF67E0888199810E945100B9CFA6
:100870001ABA1BBA89E087BB88BB14BA15BA11BA79
:1008800012BA089514BA83B308958FEF84BB65BB81
:100890000895B99A8F9ABE98C19A979AC198C19AA9
:1008A00020E130E080E090E0880F991F66B366FB9E
:1008B000442740F950E0842B952B9798979A215024
:1008C000310991F7B9988F98982789279827089523
:1008D000CF93DF93EC01CB0114BA23B328830E949A
:1008E00049049A83898389B381708B8389B382FB9E
:1008F000882780F98C8389B3869581708D8380B336
:10090000829581708E8380B382FB882780F98F83E4
:1009100089B382958170888780B383FB882780F9AB
:100920008987CE01DF91CF91089587B3856087BB1A
:100930008F9AC09A979A8FE090E041E050E09A0138
:10094000082E02C0220F331F0A94E2F72623372312
:10095000232B11F0C29A01C0C2989798979A0197D9
:1009600070F79798979AC098BA980895CF93C42F24
:1009700027E02ABB2BBB0000000000000E9495046A
:100980008FEF84BBC5BB000000000000D898DA9848
:10099000000000000000000000000000D89A0000E5
:1009A00000000000DA9A00000000000014BACF91A5
:1009B000089527E02ABB14BA2BBB000000000000FA
:1009C0000E9495048BB38C7F8BBB0000000000005D
:1009D00014BA83B30000000000009BB393609BBB7C
:1009E0000895CF93DF93CDB7DEB728970FB6F8946D
:1009F000DEBF0FBECDBFAE01485F5F4FBE01695F76
:100A00007F4FCE0101960E94660160E070E0CE014A
:100A100008960E949504CE0108960E943804CE01E3
:100A200007960E944900CE0101960E948B01CE01DB
:100A300001960E94E703FBCFAA1BBB1B51E107C035
:100A4000AA1FBB1FA617B70710F0A61BB70B881F5E
:100A5000991F5A95A9F780959095BC01CD010895ED
:100A6000A0E0B0E0E6E3F5E00C946F065C016B01FA
:100A70007A016115710519F0FB0191838083E114FE
:100A8000F10429F0C7010297839708F0C9C0E50176
:100A90002196F5011081812F90E00E942506892B77
:100AA00011F05E01F4CF1D3229F42196F501118178
:100AB00001E007C01B3221F4E5012296F501118106
:100AC00000E0E114F104B1F0F0E1EF16F10429F4D3
:100AD000B0C010E3E114F10401F12AE0E216F104E0
:100AE000B1F180E1E816F10471F0E8E0EE16F104EE
:100AF000F1F413C0103341F588818F7D883549F7B3
:100B0000198122960260F0E1EF2EF12C88248A945C
:100B1000982CA82CAFE0BA2E20C078E0E72EF12C5C
:100B200088248A94982CA82CEFE1BE2E16C06FEF73
:100B30007FEFCB0197010F2C000C440B550B0E944B
:100B4000410649015A0109C08AE0E82EF12C69E901
:100B5000862E982CA82C69E1B62E40E060E070E06B
:100B6000CB0127010F2C000C66087708FE0150ED21
:100B7000352E310E29E0231570F42FEB210F2A3189
:100B800018F439EC332E06C02FE9210F2A3130F545
:100B900029EA322E310E232D30E02E153F05F4F4D4
:100BA0004F3FC9F086169706A806B90688F0A3013C
:100BB00092010E943106232D30E040E050E0620FA8
:100BC000731F841F951F621773078407950710F41E
:100BD0004FEF01C041E021961081C8CFC114D1046C
:100BE00051F0442311F0219703C001FF04C0229764
:100BF000F601D183C08300FF07C090958095709562
:100C000061957F4F8F4F9F4F4F3F79F482E290E085
:100C100090939901809398013FEF2FEF9FEF0DC0C4
:100C200040E030E020E090E008C0462F372F282F2A
:100C300004C0103309F067CF5FCF642F732F822F6A
:100C4000CDB7DEB7E1E10C948B0691110C942E0622
:100C5000803219F089508550C8F708959927882760
:100C60000895DB018F939F930E946306BF91AF911C
:100C7000A29F800D911DA39F900DB29F900D1124F6
:100C80000895A1E21A2EAA1BBB1BFD010DC0AA1FCD
:100C9000BB1FEE1FFF1FA217B307E407F50720F0E5
:100CA000A21BB30BE40BF50B661F771F881F991F60
:100CB0001A9469F760957095809590959B01AC01A9
:100CC000BD01CF0108950E94A506A59F900DB49F78
:100CD000900DA49F800D911D112408952F923F9295
:100CE0004F925F926F927F928F929F92AF92BF923C
:100CF000CF92DF92EF92FF920F931F93CF93DF93E8
:100D0000CDB7DEB7CA1BDB0B0FB6F894DEBF0FBE44
:100D1000CDBF09942A88398848885F846E847D8491
:100D20008C849B84AA84B984C884DF80EE80FD8093
:100D30000C811B81AA81B981CE0FD11D0FB6F89409
:100D4000DEBF0FBECDBFED010895A29FB001B39FDE
:100D5000C001A39F700D811D1124911DB29F700DC4
:0C0D6000811D1124911D0895F894FFCF0F
:100D6C001B5B33326D31001B5B33316D30001B5B11
:100D7C00306D004B6579733A205B485D656C702073
:100D8C002F205B435D79636C65202F205B525D6582
:100D9C006164206D656D6F7279202F205B575D72D9
:100DAC00697465206D656D6F72790020202020209C
:100DBC002054657374733A205B415D646472202F18
:100DCC0020525B4F5D4D004359434C452020202061
:100DDC00444154412041444452204D5245512057E6
:100DEC0052205244204D3120494F52512048414C01
:100DFC00542042555341434B070057656C636F6D4C
:100E0C006520746F205A383020636F6E74726F6C6B
:100E1C006C65722E0020202020200041646472201A
:100E2C0074657374206F6B2E00536F6D6520746541
:100E3C00737473206661696C65642E00526561641D
:100E4C00206D656D6F7279206C6F636174696F6E64
:100E5C002028696E20686578293F200057726974D4
:100E6C006520746F207768696368206D656D6F729B
:100E7C0079206C6F636174696F6E2028696E2068CD
:100E8C006578293F20005768696368206461746144
:080E9C003F20004F6B2E000007
:00000001FF
