:100000000C942A000C943F000C943F000C943F0089
:100010000C943F000C943F000C943F000C943F0064
:100020000C943F000C943F000C943F000C943F0054
:100030000C943F000C943F000C943F000C943F0044
:100040000C943F000C943F000C943F000C943F0034
:100050000C943F0011241FBECFE5D4E0DEBFCDBF1E
:1000600010E0A0E6B0E0E2E1F3E002C005900D92FE
:10007000AC3EB107D9F70E9469010C9487010C943A
:10008000000010BC89E189B986E880BD88E18AB9A1
:1000900008955D9BFECF6CB908955F9BFECF8CB138
:1000A0000895BF92CF92DF92EF92FF920F931F932A
:1000B000CF93DF93EC018B017A01B22E80E090E0C8
:1000C0005F9BFECF8E159F0578F46C012FEFC21A4F
:1000D000D20A6CB1F801E80FF91F6083BB2019F058
:1000E000CE010E944900C601F801E80FF91F3197BF
:1000F00020812D3029F7BB2069F06AE0CE01DF9125
:10010000CF911F910F91FF90EF90DF90CF90BF9014
:100110000C944900DF91CF911F910F91FF90EF90C8
:10012000DF90CF90BF9008950F931F93CF93DF93ED
:100130008C01EB016991662321F0C8010E944900FE
:10014000F9CFDF91CF911F910F910895CF93DF9356
:10015000EC010E9494006DE0CE010E9449006AE02B
:10016000CE01DF91CF910C944900AF92BF92CF9214
:10017000DF92EF92FF920F931F93CF93DF937C0157
:100180006B01C42FD0E08E01000F111F000F111F53
:10019000A12CB12C045011092097B9F0C8018A0D87
:1001A0009B1DB60102C0769567958A95E2F76F7040
:1001B0006A3010F4605D01C0695CC7010E944900AB
:1001C000219784E0A81AB108E7CFDF91CF911F9162
:1001D0000F91FF90EF90DF90CF90BF90AF90089578
:1001E000CF93DF93EC016BE10E9449006BE5CE01F8
:1001F0000E94490062E3CE010E9449006AE4CE01F8
:100200000E9449006BE1CE010E9449006BE5CE01DE
:100210000E94490068E4CE01DF91CF910C9449001F
:10022000CF93DF931F92CDB7DEB75D9BFECF8FE3F9
:100230008CB95F9BFECF8CB189832FE089E095E07C
:10024000215080409040E1F700C000000F90DF9106
:10025000CF910895FC017183608353834283089595
:10026000CF93DF93EC01888199810E94F00060E6D2
:1002700070E0888199810E94A6006AE770E0888119
:1002800099810E94A6006BE770E0888199810E94A5
:10029000A6006AE770E0888199810E94A60069E85B
:1002A00070E088819981DF91CF910C94A6006BEB6F
:1002B00070E0FC01808191810C94A600CF93DF93C4
:1002C000EC010E94570188819981DF91CF910C94B4
:1002D0004D00CF93DF9300D000D000D0CDB7DEB774
:1002E000CE0105960E944100AE014A5F5F4FBE01FC
:1002F0006B5F7F4FCE0101960E942A01CE010196CD
:100300000E943001CE0101960E945E01FBCFF8945D
:02031000FFCF1D
:1003120057656C636F6D6520746F205A38302063A7
:100322006F6E74726F6C6C65722E004B6579733AE6
:10033200205B435D79636C65004359434C45202043
:100342002020444154412041444452204D524551C1
:10035200205752205244204D3120494F52512048BB
:10036200414C542042555341434B003030303030E1
:1003720030303020203030202030303030202020EB
:10038200302020203020203020203020202030201B
:0C039200202020302020202020300000FF
:00000001FF
