:100000000C942A000C943F000C943F000C943F0089
:100010000C943F000C943F000C943F000C943F0064
:100020000C943F000C943F000C943F000C943F0054
:100030000C943F000C943F000C943F000C943F0044
:100040000C943F000C943F000C943F000C943F0034
:100050000C943F0011241FBECFE5D4E0DEBFCDBF1E
:1000600010E0A0E6B0E0E6ECF5E002C005900D92ED
:10007000A43DB107D9F70E94AD020C94E1020C94A3
:10008000000010BC89E189B986E880BD88E18AB9A1
:1000900008955D9BFECF6CB908955F9BFECF8CB138
:1000A0000895BF92CF92DF92EF92FF920F931F932A
:1000B000CF93DF93EC018B017A01B22E80E090E0C8
:1000C0005F9BFECF8E159F0578F46C012FEFC21A4F
:1000D000D20A6CB1F801E80FF91F6083BB2019F058
:1000E000CE010E944900C601F801E80FF91F3197BF
:1000F00020812D3029F7BB2069F06AE0CE01DF9125
:10010000CF911F910F91FF90EF90DF90CF90BF9014
:100110000C944900DF91CF911F910F91FF90EF90C8
:10012000DF90CF90BF9008950F931F93CF93DF93ED
:100130008C01EB016991662321F0C8010E944900FE
:10014000F9CFDF91CF911F910F910895CF93DF9356
:10015000EC010E9494006DE0CE010E9449006AE02B
:10016000CE01DF91CF910C944900AF92BF92CF9214
:10017000DF92EF92FF920F931F93CF93DF937C0157
:100180006B01C42FD0E08E01000F111F000F111F53
:10019000A12CB12C045011092097B9F0C8018A0D87
:1001A0009B1DB60102C0769567958A95E2F76F7040
:1001B0006A3010F4605D01C0695CC7010E944900AB
:1001C000219784E0A81AB108E7CFDF91CF911F9162
:1001D0000F91FF90EF90DF90CF90BF90AF90089578
:1001E000CF93DF93EC01611103C067E670E002C0BA
:1001F00060E670E0CE010E9494006EE670E0CE01F1
:10020000DF91CF910C949400CF93DF93EC016BE1DD
:100210000E9449006BE5CE010E94490062E3CE01D5
:100220000E9449006AE4CE010E9449006BE1CE01C0
:100230000E9449006BE5CE010E94490068E4CE01AE
:10024000DF91CF910C944900CF93DF931F92CDB7EC
:10025000DEB75D9BFECF8FE38CB95F9BFECF8CB189
:1002600089832FE089E095E0215080409040E1F7BC
:1002700000C000000F90DF91CF910895FC017183C1
:10028000608353834283158214820895CF93DF9352
:10029000EC01888199810E94040163E770E0888104
:1002A00099810E94A60063ED70E0888199810E9487
:1002B000A6006EE870E0888199810E94A60063ED37
:1002C00070E0888199810E94A6006CE970E08881C5
:1002D0009981DF91CF910C94A6000F931F93CF9338
:1002E000DF93CDB7DEB72A970FB6F894DEBF0FBE07
:1002F000CDBF8C01FC0162817381CE0101960E9409
:100300005F02F8016481758148E0808191810E94DB
:10031000B50061ED70E0F801808191810E94940048
:10032000698170E042E0F801808191810E94B5000E
:1003300061ED70E0F801808191810E9494006A81F2
:100340007B8144E0F801808191810E94B50060EDDD
:1003500070E0F801808191810E9494006C81F80125
:10036000808191810E94F00060ED70E0F801808151
:1003700091810E9494006D81F801808191810E9499
:10038000F00061ED70E0F801808191810E9494009D
:100390006E81F801808191810E94F00061ED70E032
:1003A000F801808191810E9494006F81F801808121
:1003B00091810E94F00060ED70E0F80180819181F0
:1003C0000E9494006885F801808191810E94F0006C
:1003D0006FEC70E0F801808191810E949400698542
:1003E000F801808191810E94F0006EEC70E0F801CC
:1003F000808191810E9494006A85F80180819181B9
:100400000E94F00063ED70E0F801808191812A96EE
:100410000FB6F894DEBF0FBECDBFDF91CF911F9115
:100420000F910C94A600CF93DF93EC018A819B81FE
:100430000E943302CE010E946D01888199810E9441
:100440004D00833411F0833641F48C819D810196F7
:100450009D838C83DF91CF91089567E08881998196
:100460000E944900EACF1ABA1BBA89E087BB88BB51
:1004700014BA15BA11BA12BA089514BA83B308950A
:10048000B99A8F9ABE98C19A979AC198C19A20E159
:1004900030E080E090E0880F991F66B366FB442748
:1004A00040F950E0842B952B9798979A2150310969
:1004B00091F7B9988F989827892798270895CF930F
:1004C000DF93EC01CB0114BA23B328830E944002CE
:1004D0009A83898389B381708B8389B382FB882750
:1004E00080F98C8389B3869581708D8380B38295E2
:1004F00081708E8380B382FB882780F98F8389B3D4
:1005000082958170888780B383FB882780F98987EB
:10051000CE01DF91CF91089587B3856087BB8F9A15
:10052000C09A979A8FE090E041E050E09A01082E3F
:1005300002C0220F331F0A94E2F726233723232B0E
:1005400011F0C29A01C0C2989798979A019770F7D4
:100550009798979AC098BA980895CF93DF93CDB79C
:10056000DEB728970FB6F894DEBF0FBECDBFAE0141
:10057000485F5F4FBE01695F7F4FCE0101960E94C9
:100580003E01CE0107960E944100CE0101960E94D5
:10059000460100E010E0B801CE0108960E948C02EE
:1005A00081E291EA0197F1F700C000000F5F1F4F51
:1005B0000F3F9FEF190779F7CE0101960E941302B2
:0605C000FBCFF894FFCF11
:1005C6001B5B33326D31001B5B33316D30001B5BBF
:1005D600306D0057656C636F6D6520746F205A38F7
:1005E6003020636F6E74726F6C6C65722E004B6593
:1005F60079733A205B435D79636C65004359434CDC
:100606004520202020444154412041444452204D5D
:10061600524551205752205244204D3120494F52C5
:10062600512048414C542042555341434B00202011
:040636002020200060
:00000001FF
