:100000000C9430000C9445000C9445000C94450071
:100010000C9445000C9445000C9445000C9445004C
:100020000C9445000C9445000C9445000C9445003C
:100030000C9445000C9445000C9445000C9445002C
:100040000C9445000C9445000C9445000C9445001C
:100050000C9445006364696E6F70737578585B002B
:1000600011241FBECFE5D4E0DEBFCDBF11E0A0E676
:10007000B0E0EAEBF8E002C005900D92A631B107BE
:10008000D9F70E94D1000C945B040C94000080E628
:1000900090E00E9463008AE690E00E9463008EE890
:1000A00090E00E9463008EEA90E00C94630010BC24
:1000B0008CE089B986E880BD88E18AB908955D9BA6
:1000C000FECF8CB90895CF93DF93EC0189918823FB
:1000D00019F00E945F00FACFDF91CF910895AF929F
:1000E000BF92CF92DF92EF92FF920F931F93CF9325
:1000F000DF93CDB7DEB769970FB6F894DEBF0FBEBA
:10010000CDBFF82EE92EB62EA72E8E010F5F1F4F02
:1001100088E1F80111928A95E9F720E030E05F9BD1
:10012000FECF2831310560F46901FFEFCF1ADF0AF5
:100130008CB1F801E20FF31F80830E945F009601EB
:10014000FE01E20FF31F80818D3049F78AE00E94A3
:100150005F00198EAF92BF92EF92FF92CE01499647
:100160009F938F938DE091E09F938F931F930F93B5
:100170000E94F0000FB6F894DEBF0FBECDBF898D90
:1001800069960FB6F894DEBF0FBECDBFDF91CF9159
:100190001F910F91FF90EF90DF90CF90BF90AF90A5
:1001A0000895CF93DF9300D000D0CDB7DEB70E9483
:1001B00057008DED90E00E9463008AEF90E00E946E
:1001C0006300BE016F5F7F4FCE0103960E946F00F8
:1001D000883619F40E944700F0CF8DEF90E0EBCF06
:1001E000AEE0B0E0E6EFF0E00C94340485E08C8300
:1001F0008B899C899A838983AE01495E5F4F6D89A3
:100200007E89CE0101960E94A5022E96E2E00C9412
:10021000500420FD09C0FC0123FD05C022FF02C0DF
:100220007383628351834083089544FD17C046FD64
:1002300017C0AB01BC01DA01FB01AA0FBB1FEE1F07
:10024000FF1F1094D1F74A0F5B1F6E1F7F1FCB015A
:10025000BA01660F771F881F991F09C033E001C0DC
:1002600034E0660F771F881F991F3150D1F7620F56
:10027000711D811D911D08950F931F93CF93DF93DF
:100280008C01C8010E94CA03EC0197FD08C00E94BE
:10029000B603892BB1F7B801CE010E940804CE0144
:1002A000DF91CF911F910F9108958F929F92AF92FE
:1002B000BF92EF92FF920F931F93CF93DF938C0126
:1002C000D62F7A01B22E0E94CA039C0133272B320B
:1002D000310531F02D32310561F48B2D8068B82E57
:1002E000D15011F480E068C0C8010E94CA0397FD94
:1002F000F9CFCB2DCD7F2B2D207309F58033F9F469
:10030000AA24AA94AD0E09F443C0C8010E94CA03EE
:1003100097FD3EC09C012F7D33272835310549F4D8
:10032000C264D250A9F1C8010E94CA0397FF07C056
:100330002FC0B6FE02C0C26001C0C261DA2D812C9E
:10034000912C540120ED280F283080F0C4FF04C008
:10035000B8010E94080419C02A3040F0C6FFF8CF47
:100360002F7D3FEE320F363098F727504C2FC501C6
:10037000B4010E9415014B015C01C260D15059F0DB
:10038000C8010E94CA0397FFDDCFC1FD04C0AACFF8
:10039000812C912C5401C7FF08C0B094A094909474
:1003A0008094811C911CA11CB11C2C2FB501A401AF
:1003B000C7010E94090181E0DF91CF911F910F9148
:1003C000FF90EF90BF90AF909F908F900895A0E224
:1003D000B0E0EDEEF1E00C9427045C01962E7A017A
:1003E000F9018E010F5F1F4F680180E2D8011D9255
:1003F0008A95E9F7D50113968C9080E090E0612C06
:10040000712C30E061E070E083FC259183FE219146
:100410008F01522E211103C080E090E092C02E3552
:1004200011F4009751F1432F50E0481759073CF45D
:100430002D3559F12D3219F4772009F103C07720B9
:1004400009F46AC0452D469546954695D601A40FF8
:10045000B11D452D47708B0102C0000F111F4A9539
:10046000E2F7A8015C91452B4C93651459F05614A2
:1004700010F45394E7CF5A94E5CF31E004C07724C9
:10048000739401C0712C0196BFCF772019F08E8133
:1004900080628E83311103C08824839417C0F601D3
:1004A0009E012F5D3F4F8081809581932E173F07DE
:1004B000D1F7F2CFE114F10429F0D7018C93F701C1
:1004C00031967F019A94812C9920F9F0C5010E9400
:1004D000CA0397FD18C0FC01FF2723E0F595E795B7
:1004E0002A95E1F7EC0DFD1D208130E0AC0147704D
:1004F000552702C0359527954A95E2F720FDDACFBA
:10050000B5010E940804811087CFE114F10411F0B5
:10051000D7011C92C80115C0422F469546954695B5
:10052000D601A40FB11D422F47708B0102C0000FEE
:10053000111F4A95E2F7A8015C91452B4C93622E5E
:10054000A2CFA096EFE00C944304A0E0B0E0EBEA69
:10055000F2E00C9427046C01EB015A01FC011782B4
:100560001682512CF601E380FE01E3FC8591E3FE47
:100570008191182FEF01882309F4EEC090E00E94CA
:10058000B603892B21F0C6010E943C01EBCF153246
:1005900041F4FE01E3FC1591E3FE1191EF011532E8
:1005A00081F4C6010E94CA0397FDD4C0412F50E0D8
:1005B0009C01332724173507A9F2B6010E940804CD
:1005C000CBC01A3239F4E3FC1591E3FE1191EF012F
:1005D00001E001C000E0F12C20ED210F2A3080F471
:1005E00002606F2D70E080E090E040E20E94150113
:1005F000F62EFE01E3FC1591E3FE1191EF01ECCF25
:1006000001FF03C0F11003C0A7C0FF24FA941836FD
:1006100019F01C3651F010C0FE01E3FC1591E3FE09
:100620001191EF01183641F408600460FE01E3FC0B
:100630001591E3FE1191EF01112309F48DC0612F93
:1006400070E084E590E00E94BF03892B09F484C028
:1006500000FD07C0F50180809180C50102965C0114
:1006600002C0812C912C1E3651F4F601468157812F
:1006700060E070E0202FC4010E94090173CF13369F
:10068000A9F401FD02C0FF24F394C6010E94CA032D
:1006900097FD60C08114910429F0F4018083C401A6
:1006A00001964C01FA94F110F0CF50C01B3559F46B
:1006B0009E01A4016F2DC6010E94E701EC01892B68
:1006C00009F044C03EC0C6010E943C0197FD42C0F3
:1006D0001F3661F128F4143639F1193651F128C06A
:1006E000133771F0153701F123C08114910429F0FB
:1006F000F4016082C40101964C01FA94FF2071F06C
:10070000C6010E94CA033C0197FD08C00E94B603BF
:10071000892B59F3B601C3010E9408048114910486
:10072000A9F0F401108212C0006203C0006101C090
:100730000064202FA4016F2DC6010E945501811174
:1007400005C0F6018381807329F406C000FD0ACF3D
:10075000539408CF552019F0852D90E002C08FEFFB
:100760009FEFCDB7DEB7EFE00C94430491110C94EA
:100770002104803219F089508550C8F70895FC0192
:100780000590061621F00020D9F7C0010895319791
:10079000CF010895CF93DF93EC012B8120FF33C06D
:1007A00026FF0AC02F7B2B838E819F8101969F831A
:1007B0008E838A8190E029C022FF0FC0E881F981F1
:1007C0008081082E000C990B009719F420622B836E
:1007D0001AC03196F983E8830EC0EA85FB85099536
:1007E00097FF09C02B81019611F080E201C080E1E2
:1007F000822B8B8308C02E813F812F5F3F4F3F8329
:100800002E83992702C08FEF9FEFDF91CF9108953C
:10081000FB01238120FF12C026FD10C08F3F3FEF58
:10082000930761F082832F7D2064238326813781A3
:100830002150310937832683992708958FEF9FEF41
:1008400008959927882708952F923F924F925F929B
:100850006F927F928F929F92AF92BF92CF92DF92D0
:10086000EF92FF920F931F93CF93DF93CDB7DEB735
:10087000CA1BDB0B0FB6F894DEBF0FBECDBF0994C9
:100880002A88398848885F846E847D848C849B8420
:10089000AA84B984C884DF80EE80FD800C811B812E
:1008A000AA81B981CE0FD11D0FB6F894DEBF0FBE5D
:0A08B000CDBFED010895F894FFCFCD
:1008BA00683A2068656C700D0A00772041444452FA
:1008CA0020444154413A20777269746520627974F0
:1008DA006520746F206D656D6F72790D0A00722044
:1008EA00414444523A2072656164206279746520F9
:1008FA0066726F6D206D656D6F72790D0A006461A5
:10090A00746120666F726D617420697320757070EE
:10091A006572636173652068657861202865782E41
:10092A00203043204146203132290D0A001B5B3218
:10093A004A1B5B48547970652027682720666F72C6
:10094A002068656C70272E0D0A003F200053796ECF
:10095A00746178206572726F722E0D0A0025632009
:06096A002578202578002D
:00000001FF
