:100000000C942A000C943F000C943F000C943F0089
:100010000C943F000C943F000C943F000C943F0064
:100020000C943F000C943F000C943F000C943F0054
:100030000C943F000C943F000C943F000C943F0044
:100040000C943F000C943F000C943F000C943F0034
:100050000C943F0011241FBECFE5D4E0DEBFCDBF1E
:1000600010E0A0E6B0E0E6EEF0E002C005900D92F0
:10007000A038B107D9F70E9464000C9471000C9469
:10008000000010BC8CE089B986E880BD88E18AB99F
:1000900008955D9BFECF8CB90895CF93DF93EC015B
:1000A0008991882319F00E944900FACFDF91CF91FE
:1000B0000895CF935F9BFECFCCB18C2F0E94490057
:1000C000CD30C1F7CF9108950E94410080E690E0C5
:1000D0000E944D008BE790E00E944D000E94590065
:0600E000F9CFF894FFCFF8
:1000E6001B5B324A1B5B48547970652027682720C2
:1000F600666F722068656C70272E000A0D3F20001F
:00000001FF
