:100000000C9430000C944D000C944D000C944D0059
:100010000C944D000C944D000C944D000C944D002C
:100020000C944D000C944D000C944D000C944D001C
:100030000C944D000C944D000C944D000C944D000C
:100040000C944D000C944D000C944D000C944D00FC
:100050000C944D006364696E6F70737578585B0023
:1000600011241FBECFE5D4E0DEBFCDBF11E0A0E676
:10007000B0E0E0E5F1E102C005900D92AC33B107CC
:10008000D9F721E0ACE3B1E001C01D92AE33B20775
:10009000E1F70E946F020C94A6080C94000085BB47
:1000A0008BB3807C8BBB8BB39F77892B8BBB0895E5
:1000B0001ABA1BBA17BA18BA14BA15BA82E081BBB9
:1000C00012BA08958FEF8ABB9FE097BB84BB8EEF77
:1000D00081BBDF9A88B38C6088BB08950E94620060
:1000E000C39A08950C945800CF93DF93EC010E94BB
:1000F0006200CE010E944F00DF98C39882E08A958B
:10010000F1F700C087B38C7F87BB81B3837081BB5D
:1001100082E08A95F1F700C088B38C7F88BB82B3F8
:10012000837082BBC6B3D0B3DF9AC39A82E08A954C
:10013000F1F700C00E9458008D2F8C7FC3708C2B6C
:10014000DF91CF9108950F931F93CF938C01C62F0A
:100150000E946200DF98C8010E944F00C29887B3D6
:10016000836087BB81B38C6F81BB82E08A95F1F796
:1001700000C088B38C7F88BB88B39C2F9370892B79
:1001800088BB82B3837082BB82B3CC7FC82BC2BBD7
:1001900082E08A95F1F700C0C29A82E08A95F1F771
:1001A00000C0DF9ACF911F910F910C94580010BCA2
:1001B0008CE089B986E880BD88E18AB908955D9BA5
:1001C000FECF8CB908950F931F93CF93DF93EC016B
:1001D00020E030E05F9BFECF2831310558F48901E3
:1001E0000F5F1F4F8CB1FE01E20FF31F80830E944F
:1001F000DF009801FE01E20FF31F319780818D30FF
:1002000049F78AE0DF91CF911F910F910C94DF00A5
:10021000CF93DF93EC018991882319F00E94DF00CE
:10022000FACFDF91CF9108950F931F93CF93DF9370
:10023000CDB7DEB72A970FB6F894DEBF0FBECDBF9D
:100240009F938F938DE790E09F938F931F928AE007
:100250008F938E010F5F1F4F1F930F930E947A029F
:10026000C8010E9408010FB6F894DEBF0FBECDBFD3
:100270002A960FB6F894DEBF0FBECDBFDF91CF91A7
:100280001F910F910895AF92BF92CF92DF92EF929C
:10029000FF920F931F93CF93DF93CDB7DEB769978C
:1002A0000FB6F894DEBF0FBECDBFD82EC92EB62E26
:1002B000A72E7A018E010F5F1F4F88E1F80111927E
:1002C0008A95E9F7C8010E94E300198EAF92BF92A8
:1002D000CF92DF92CE0149969F938F9382E890E070
:1002E0009F938F931F930F930E94AA020197F70188
:1002F00091838083898D0FB6F894DEBF0FBECDBF8A
:100300008D3011F08A3009F480E069960FB6F894C8
:10031000DEBF0FBECDBFDF91CF911F910F91FF9038
:10032000EF90DF90CF90BF90AF9008950F931F9301
:10033000CF93DF93CDB7DEB76A970FB6F894DEBFE1
:100340000FBECDBF8E010F5F1F4F88E1F8011192E4
:100350008A95E9F7C8010E94E300CE0149969F9370
:100360008F9388E890E09F938F931F930F930E9441
:10037000AA020F900F900F900F900F900F90898D01
:100380006A960FB6F894DEBF0FBECDBFDF91CF9156
:100390001F910F9108950F931F93CF93DF9300D078
:1003A00000D000D0CDB7DEB780913C0190913D01E7
:1003B000892B19F000E010E05FC08BE890E00E940C
:1003C0000801AE014B5F5F4FBE016F5F7F4FCE01F3
:1003D00003960E944301823759F1CCF4882309F433
:1003E00073C0883609F043C08EE890E00E9408018F
:1003F00088E990E00E9408018CEB90E00E940801DF
:100400008CED90E00E9408018DEF90E032C08537BE
:1004100001F1873761F58D819E81029731F4698101
:100420008B819C810E94A3004FC088E990E021C08D
:100430008D819E81019751F48B819C810E94740073
:1004400062E070E090E00E9414013EC08CEB90E00E
:1004500010C08D819E81019739F48B819C8190938E
:100460003D0180933C0130C08CED90E002C08CE2F5
:1004700091E00E94080128C080913C0190913D01CB
:10048000081719074CF40E949601682FC8010E94B2
:10049000A3000F5F1F4FF0CF00E010E080913C0100
:1004A00090913D01081719075CF4C8010E9474007F
:1004B00062E070E090E00E9414010F5F1F4FEECFEA
:1004C00010923D0110923C0126960FB6F894DEBFC3
:1004D0000FBECDBFDF91CF911F910F9108950E9464
:1004E00072000E94D70080E690E00E9408010E94FE
:1004F000CB01FDCFAEE0B0E0E0E8F2E00C947D0887
:100500000D891E898F89988D26E02C831A83098393
:1005100097FF02C080E090E801979E838D83AE0133
:10052000455E5F4F698D7A8DCE0101960E94C302B0
:100530004D815E8157FD0AC02F81388542175307D0
:100540000CF49A01F801E20FF31F10822E96E4E0FA
:100550000C949908AEE0B0E0E0EBF2E00C947F0878
:1005600085E08C838B899C899A838983AE01495E5F
:100570005F4F6D897E89CE0101960E9440062E96BE
:10058000E2E00C949B08ABE0B0E0E9ECF2E00C9404
:100590006F086C017B018A01FC011782168283813E
:1005A00081FFCCC1CE0101963C01F6019381F70198
:1005B00093FD859193FF81917F01882309F4BAC14E
:1005C000853239F493FD859193FF81917F018532C6
:1005D00029F4B60190E00E94B907E7CF912C212CB5
:1005E000312CFFE1F315D8F08B3279F038F48032FA
:1005F00079F08332A1F4232D20611DC08D3261F08A
:10060000803369F4232D216016C0832D8260382E3B
:10061000E32DE4603E2E2AC0F32DF8601DC037FCA8
:100620002DC020ED280F2A3040F08E32B9F436FC70
:1006300081C1232D2064322E19C036FE06C08AE007
:10064000989E200D1124922E11C0EAE02E9E200DBE
:100650001124222EF32DF0623F2E08C08C3621F497
:10066000832D8068382E02C0883641F4F70193FD4F
:10067000859193FF81917F018111B3CF982F9F7D49
:100680009554933028F40C5F1F4F9FE399830DC05E
:10069000833631F0833771F0833509F059C021C0BA
:1006A000F801808189830E5F1F4F88248394912CE9
:1006B000530113C02801F2E04F0E511CF801A08035
:1006C000B18036FE03C0692D70E002C06FEF7FEF8E
:1006D000C5010E9470074C018201F32DFF773F2E68
:1006E00016C0280122E0420E511CF801A080B18002
:1006F00036FE03C0692D70E002C06FEF7FEFC501C9
:100700000E9465074C01F32DF0683F2E820133FCF7
:100710001BC0822D90E088169906B0F4B60180E2E5
:1007200090E00E94B9072A94F4CFF50137FC859137
:1007300037FE81915F01B60190E00E94B907211058
:100740002A9421E0821A91088114910471F7E8C07B
:10075000843611F0893641F5F80137FE07C0608113
:100760007181828193810C5F1F4F08C0608171810C
:10077000072E000C880B990B0E5F1F4FF32DFF7691
:100780003F2E97FF09C090958095709561957F4F9A
:100790008F4F9F4FF0683F2E2AE030E0A3010E9468
:1007A0000E08882E861845C0853731F4232D2F7EFC
:1007B000B22E2AE030E025C0932D997FB92E8F36D6
:1007C000C1F018F4883579F0B5C0803719F0883752
:1007D00021F0B0C0E92FE061BE2EB4FE0DC0FB2DAC
:1007E000F460BF2E09C034FE0AC0292F2660B22E45
:1007F00006C028E030E005C020E130E002C020E182
:1008000032E0F801B7FE07C0608171818281938177
:100810000C5F1F4F06C06081718180E090E00E5F29
:100820001F4FA3010E940E08882E8618FB2DFF770C
:100830003F2E36FE0DC0232D2E7FA22E891458F494
:1008400034FE0BC032FC09C0832D8E7EA82E05C05D
:10085000B82CA32C03C0B82C01C0B92CA4FE0FC027
:10086000FE01E80DF11D8081803321F49A2D997EDF
:10087000A92E09C0A2FE06C0B394B39404C08A2D69
:10088000867809F0B394A3FC11C0A0FE06C0B21490
:1008900088F4280C922C9B180EC0B21460F4B60198
:1008A00080E290E00E94B907B394F7CFB21418F435
:1008B0002B1802C0982C212CA4FE10C0B60180E396
:1008C00090E00E94B907A2FE17C0A1FC03C088E710
:1008D00090E002C088E590E0B6010CC08A2D8678D1
:1008E00059F0A1FE02C08BE201C080E2A7FC8DE2BC
:1008F000B60190E00E94B907891438F4B60180E38C
:1009000090E00E94B9079A94F7CF8A94F301E80D1A
:10091000F11D8081B60190E00E94B9078110F5CFEA
:10092000222009F442CEB60180E290E00E94B9078D
:100930002A94F6CFF6018681978102C08FEF9FEF50
:100940002B96E2E10C948B0820FD09C0FC0123FDED
:1009500005C022FF02C073836283518340830895E0
:1009600044FD17C046FD17C0AB01BC01DA01FB0115
:10097000AA0FBB1FEE1FFF1F1094D1F74A0F5B1F7A
:100980006E1F7F1FCB01BA01660F771F881F991F4B
:1009900009C033E001C034E0660F771F881F991F3C
:1009A0003150D1F7620F711D811D911D08950F9374
:1009B0001F93CF93DF938C01C8010E947B07EC014A
:1009C00097FD08C00E945107892BB1F7B801CE01ED
:1009D0000E94F507CE01DF91CF911F910F910895ED
:1009E0008F929F92AF92BF92EF92FF920F931F93BD
:1009F000CF93DF938C01D62F7A01B22E0E947B0712
:100A00009C0133272B32310531F02D32310561F451
:100A10008B2D8068B82ED15011F480E068C0C801D9
:100A20000E947B0797FDF9CFCB2DCD7F2B2D207317
:100A300009F58033F9F4AA24AA94AD0E09F443C051
:100A4000C8010E947B0797FD3EC09C012F7D332784
:100A50002835310549F4C264D250A9F1C8010E9479
:100A60007B0797FF07C02FC0B6FE02C0C26001C05F
:100A7000C261DA2D812C912C540120ED280F2830F1
:100A800080F0C4FF04C0B8010E94F50719C02A30E5
:100A900040F0C6FFF8CF2F7D3FEE320F363098F78B
:100AA00027504C2FC501B4010E94B0044B015C01DA
:100AB000C260D15059F0C8010E947B0797FFDDCF7B
:100AC000C1FD04C0AACF812C912C5401C7FF08C0DE
:100AD000B094A09490948094811C911CA11CB11C92
:100AE0002C2FB501A401C7010E94A40481E0DF916D
:100AF000CF911F910F91FF90EF90BF90AF909F907B
:100B00008F900895A0E2B0E0E8E8F5E00C94720858
:100B10005C01962E7A01F9018E010F5F1F4F68016B
:100B200080E2D8011D928A95E9F7D50113968C9041
:100B300080E090E0612C712C30E061E070E083FC9B
:100B4000259183FE21918F01522E211103C080E057
:100B500090E092C02E3511F4009751F1432F50E0F0
:100B6000481759073CF42D3559F12D3219F47720E7
:100B700009F103C0772009F46AC0452D46954695D2
:100B80004695D601A40FB11D452D47708B0102C0BB
:100B9000000F111F4A95E2F7A8015C91452B4C9379
:100BA000651459F0561410F45394E7CF5A94E5CFD6
:100BB00031E004C07724739401C0712C0196BFCF3B
:100BC000772019F08E8180628E83311103C08824D2
:100BD000839417C0F6019E012F5D3F4F8081809561
:100BE00081932E173F07D1F7F2CFE114F10429F0DA
:100BF000D7018C93F70131967F019A94812C99202B
:100C0000F9F0C5010E947B0797FD18C0FC01FF2782
:100C100023E0F595E7952A95E1F7EC0DFD1D208180
:100C200030E0AC014770552702C0359527954A95AD
:100C3000E2F720FDDACFB5010E94F507811087CFDA
:100C4000E114F10411F0D7011C92C80115C0422F24
:100C5000469546954695D601A40FB11D422F477083
:100C60008B0102C0000F111F4A95E2F7A8015C91A9
:100C7000452B4C93622EA2CFA096EFE00C948E08E9
:100C8000A0E0B0E0E6E4F6E00C9472086C01EB0141
:100C90005A01FC0117821682512CF601E380FE01F5
:100CA000E3FC8591E3FE8191182FEF01882309F47D
:100CB000EEC090E00E945107892B21F0C6010E94EE
:100CC000D704EBCF153241F4FE01E3FC1591E3FEAE
:100CD0001191EF01153281F4C6010E947B0797FD47
:100CE000D4C0412F50E09C01332724173507A9F2C7
:100CF000B6010E94F507CBC01A3239F4E3FC159116
:100D0000E3FE1191EF0101E001C000E0F12C20EDC4
:100D1000210F2A3080F402606F2D70E080E090E0B7
:100D200040E20E94B004F62EFE01E3FC1591E3FEC2
:100D30001191EF01ECCF01FF03C0F11003C0A7C078
:100D4000FF24FA94183619F01C3651F010C0FE0139
:100D5000E3FC1591E3FE1191EF01183641F40860B0
:100D60000460FE01E3FC1591E3FE1191EF011123F4
:100D700009F48DC0612F70E084E590E00E945A076D
:100D8000892B09F484C000FD07C0F50180809180A3
:100D9000C50102965C0102C0812C912C1E3651F4D3
:100DA000F6014681578160E070E0202FC4010E9467
:100DB000A40473CF1336A9F401FD02C0FF24F394F9
:100DC000C6010E947B0797FD60C08114910429F041
:100DD000F4018083C40101964C01FA94F110F0CF24
:100DE00050C01B3559F49E01A4016F2DC6010E940D
:100DF0008205EC01892B09F044C03EC0C6010E9467
:100E0000D70497FD42C01F3661F128F4143639F13A
:100E1000193651F128C0133771F0153701F123C08D
:100E20008114910429F0F4016082C40101964C01FF
:100E3000FA94FF2071F0C6010E947B073C0197FDE8
:100E400008C00E945107892B59F3B601C3010E94C3
:100E5000F50781149104A9F0F401108212C0006218
:100E600003C0006101C00064202FA4016F2DC601E2
:100E70000E94F004811105C0F6018381807329F47A
:100E800006C000FD0ACF539408CF552019F0852DD8
:100E900090E002C08FEF9FEFCDB7DEB7EFE00C948C
:100EA0008E0891110C946C08803219F0895085508D
:100EB000C8F70895FC010590061621F00020D9F727
:100EC000C00108953197CF010895FC01059061504C
:100ED00070400110D8F7809590958E0F9F1F089550
:100EE000FC016150704001900110D8F780959095F9
:100EF0008E0F9F1F0895CF93DF93EC012B8120FF6E
:100F000033C026FF0AC02F7B2B838E819F810196E1
:100F10009F838E838A8190E029C022FF0FC0E881E1
:100F2000F9818081082E000C990B009719F420623A
:100F30002B831AC03196F983E8830EC0EA85FB85BE
:100F4000099597FF09C02B81019611F080E201C03D
:100F500080E1822B8B8308C02E813F812F5F3F4F22
:100F60003F832E83992702C08FEF9FEFDF91CF91B0
:100F700008950F931F93CF93DF93FB01238121FDEE
:100F800003C08FEF9FEF2CC022FF16C04681578110
:100F9000248135814217530744F4A081B1819D011A
:100FA0002F5F3F4F318320838C93268137812F5FC2
:100FB0003F4F3783268314C08B01EC01FB01008473
:100FC000F185E02D0995892BE1F6D80116968D91D2
:100FD0009C911797019617969C938E931697CE0126
:100FE000DF91CF911F910F910895FB01238120FF85
:100FF00012C026FD10C08F3F3FEF930761F0828340
:101000002F7D206423832681378121503109378346
:101010002683992708958FEF9FEF0895FA01AA2755
:10102000283051F1203181F1E8946F936E7F6E5F2B
:101030007F4F8F4F9F4FAF4FB1E03ED0B4E03CD0D9
:10104000670F781F891F9A1FA11D680F791F8A1FBC
:10105000911DA11D6A0F711D811D911DA11D20D023
:1010600009F468943F912AE0269F11243019305DDD
:101070003193DEF6CF010895462F4770405D4193CE
:10108000B3E00FD0C9F7F6CF462F4F70405D4A331B
:1010900018F0495D31FD4052419302D0A9F7EACFE3
:1010A000B4E0A6959795879577956795BA95C9F712
:1010B00000976105710508959B01AC010A2E069405
:1010C0005795479537952795BA95C9F7620F731FBE
:1010D000841F951FA01D08959927882708952F9292
:1010E0003F924F925F926F927F928F929F92AF92B8
:1010F000BF92CF92DF92EF92FF920F931F93CF9305
:10110000DF93CDB7DEB7CA1BDB0B0FB6F894DEBF9B
:101110000FBECDBF09942A88398848885F846E84C1
:101120007D848C849B84AA84B984C884DF80EE800B
:10113000FD800C811B81AA81B981CE0FD11D0FB614
:10114000F894DEBF0FBECDBFED010895F894FFCF38
:101150001B5B324A1B5B4854797065202768272047
:10116000666F722068656C70272E0D0A0025580A7C
:101170000D002563202578202578003F2000683A5F
:101180002068656C700D0A00772041444452204469
:101190004154413A20777269746520627974652000
:1011A000746F206D656D6F72790D0A007220414475
:1011B00044523A20726561642062797465206672D7
:1011C0006F6D206D656D6F72790D0A007520534942
:1011D0005A453A20656E7465722070726F6772614D
:1011E0006D6D696E67206D6F64650D0A00646174D2
:1011F0006120666F726D617420697320757070650F
:1012000072636173652068657861202865782E2097
:101210003043204146203132290D0A0053796E7443
:0C1220006178206572726F722E0D0A005A
:00000001FF
