:100000000C94E3040C9434170C9400050C94000534
:100010000C9400050C9400050C9400050C9400054C
:100020000C9400050C9400050C9400050C946F17BB
:100030000C9400050C9400050C9400050C9400052C
:100040000C9400050C9400050C9400050C9400051C
:100050000C9400052F11F30F4A11F30FF30FF30F58
:10006000F30FF30FF30FF30FF30FF30FF30FF30F80
:10007000F30FF30FF30FF30FF30F0F1034109E1065
:10008000C510F30FF30FF30FE510EF10F30FF30F9D
:10009000F30FFD101811F30F4A11F30F7111F30F45
:1000A000D911F30FF30FF30F02121C101F102210BF
:1000B000251028102B102E103110AD10B010B310D9
:1000C000B610B910BC10BF10C2100C110F111211D4
:1000D00015110C110F1112111511861189118C11A6
:1000E0008F11921195119A11C711E811EB11EE11B0
:1000F000F111F411F711FA11FD11A812D9122813F8
:1001000055136D1384139E13AC13AF13B213B513B1
:10011000B813BB13BE13081435144B14EF14041595
:10012000501666165B14D714DC14E114E614E914B7
:10013000EC146A158715B815E915EC15F4150516B4
:100140001216151618161B161E162116241657659C
:100150006C636F6D6520746F205A38302D415720C5
:1001600064656275676765722E2054797065202713
:10017000682720666F722068656C702E001B5B32EA
:100180004A1B5B48000D0A00082008001B5B333146
:100190006D301B5B306D001B5B33326D311B5B3090
:1001A0006D003C30000D0A00494F525120726571BC
:1001B000756573746564206279206465766963652A
:1001C0002000292E0D0A004C617374207072657333
:1001D000736564206B6579207265717565737465EC
:1001E00064202800207761732073656E7420746F1B
:1001F0002074686520646973706C61792E0D0A0043
:100200004368617220004B65793F2000427265614E
:100210006B706F696E74206C6973743A200042725F
:1002200065616B706F696E743F2000416464726534
:1002300073733F20005A38302028726529696E692F
:100240007469616C697A65642E005A383020706F69
:10025000776572656420646F776E2E001B5B3331A7
:100260006D44617461207772697465206661696CA0
:1002700065642E1B5B306D00446174613F2000415A
:100280006464726573733F2000085F1B5B306D0010
:100290001B5B33356D001B5B33356D5F30205F3189
:1002A000205F32205F33205F34205F35205F3620AF
:1002B0005F3720205F38205F39205F41205F422078
:1002C0005F43205F44205F45205F460050616765C3
:1002D0002028307831303029203F20005D203D201B
:1002E000005A383020697320696E20636F6E747213
:1002F0006F6C206F6620746865206275732E0041F4
:100300006464726573733F200072756E201B5B33EB
:10031000326D741B5B306D657374730D0A00546528
:100320007374733A0D0A202020001B5B33326D5228
:100330001B5B306D756E0D0A001B5B33326D431B0A
:100340005B306D6F6E74696E75652020001B5B33CA
:10035000326D421B5B306D7265616B706F696E74DC
:100360002020001B5B33326D4C1B5B306D69737456
:100370002066726F6D20616464722020001B5B3305
:10038000326D6C1B5B306D697374202020007374B8
:100390001B5B33326D651B5B306D70202020004489
:1003A000656275676765723A0D0A202020001B5B45
:1003B00033326D6B1B5B306D6579626F6172640DFA
:1003C0000A00446576696365733A0D0A20202000AF
:1003D0001B5B33326D631B5B306D79636C650D0A9B
:1003E000001B5B33326D621B5B306D757320726571
:1003F00071756573742020001B5B33326D691B5B64
:10040000306D6E697469616C697A652028726573F4
:100410006574292020001B5B33326D701B5B306DCF
:100420006F776572646F776E2020005A38303A0D0E
:100430000A202020001B5B33326D771B5B306D720E
:1004400069746520746F206D656D6F72790D0A0097
:100450001B5B33326D641B5B306D756D70206D6599
:100460006D6F72792020001B5B33326D721B5B3025
:100470006D656164206D656D6F72792020004D653A
:100480006D6F72793A0D0A202020001B5B33326DAC
:10049000661B5B306D7265652052414D2028636F8D
:1004A0006E74726F6C6C6572290D0A001B5B3332BF
:1004B0006D731B5B306D7461747573202020001B9D
:1004C0005B33326D681B5B306D656C7020200049BA
:1004D0006E666F726D6174696F6E3A0D0A2020202E
:1004E000002A2A205761726E696E672C203C2032E8
:1004F000303020627974657320667265652E001B4A
:100500005B324A1B5B48001B5B324A1B5B48002086
:10051000627974657320667265652E002D2D001B4F
:100520005B306D001B5B33316D002D2D2D2D001BBD
:100530005B306D001B5B33356D004359434C4520E8
:1005400041444452204441544120204D3120494FE0
:1005500052512048414C5420425553414B20205782
:1005600041495420494E54204E4D49205253455440
:100570002042555352455120204D5245512052445E
:10058000205752002F2D205A3830206F7574707507
:100590007473202D2D5C20202F2D2D2D2D2D205AD4
:1005A000383020696E70757473202D2D2D2D2D5CC3
:1005B00020202F206D656D6F7279205C001B5B30F1
:1005C0006D001B5B33316D00446F6E652E0D0A00AC
:1005D00054657374696E672052414D2E2E2E0D0A9C
:1005E0000054657374696E6720524F4D2028706106
:1005F000676520777269746573292E2E2E0D0A00A7
:1006000054657374696E6720524F4D2028696E647B
:100610006976696475616C20777269746573292ED7
:100620002E2E0D0A00427265616B706F696E742028
:10063000686974210D0A001B5B306D0050433A203D
:100640001B5B33326D002D2D2D2D2D2D2D2D2D2DA0
:100650002D2D2D2D2D2D2D2D2D2D2D0D0A005A3802
:100660003020697320706F776572656420646F77DE
:100670006E2E005D203A20002D3E200073726C002B
:10068000736C6C0073726100736C61007272007243
:100690006C0072726300726C63006100290028694B
:1006A00079002869780028686C29006C006800656A
:1006B0000064006300620061660073700069790085
:1006C000697800686C006465006263003200310084
:1006D000302F310030006D007000706500706F00C9
:1006E00063006E63007A006E7A006F746472006F4C
:1006F000746972006F757464006F75746900696E57
:10070000647200696E697200696E6400696E6900E6
:100710006370647200637069720063706400637078
:1007200069006C646472006C646972006C646400DB
:100730006C6469006370006F7200786F7200616EA4
:10074000640073626320612C0073756200616463EE
:1007500020612C0061646420612C002562006E6FB2
:1007600070006E6F7000726C6400727264006C6472
:1007700020612C2072006C6420612C2069006C6464
:1007800020722C2061006C6420692C206100696D4E
:1007900020256D0072657469007265746E006E6567
:1007A00067006C642025702C2028254E29006C647D
:1007B0002028254E292C202570006164632025689F
:1007C0002C202570007362632025682C2025700082
:1007D0006F7574202863292C2030006F75742028D1
:1007E00063292C20257200696E2028632900696E18
:1007F0002025722C20286329007365742025692C1C
:10080000202572007265732025692C2025720062F4
:1008100069742025692C202572002574202572001A
:1008200072737420257800256120256E0063616C49
:100830006C20254E00707573682025500063616C34
:100840006C2025632C20254E0065690064690065D5
:10085000782064652C20686C0065782028737029E6
:100860002C20256800696E20612C2028256E290027
:100870006F75742028256E292C2061006A70202550
:100880004E006A702025632C20254E006C64207376
:10089000702C202568006A7020282568290065785A
:1008A000780072657400706F702025500072657456
:1008B000202563002561202572006C642025722CA0
:1008C00020257200636366007363660063706C00CA
:1008D0006461610072726100726C610072726361C6
:1008E00000726C6361006C642025722C20256E0000
:1008F00064656320257200696E632025720064655B
:100900006320257000696E63202570006C6420618F
:100910002C2028254E29006C642025682C202825B1
:100920004E29006C6420612C2028646529006C64C9
:1009300020612C2028626329006C642028254E2920
:100940002C2061006C642028254E292C202568006D
:100950006C6420286465292C2061006C6420286266
:1009600063292C2061006164642025682C20257097
:10097000006C642025702C20254E006A72202563AF
:100980002C202564006A7220256400646A6E7A2037
:1009900025640065782061662C20616627006E6FF3
:1009A000700068616C74005A38302D415720636FB5
:1009B0006D707574657220696E697469616C697AAD
:1009C00065642E0D0A0011241FBECFE5D4E0DEBF02
:1009D000CDBF10E0A0E6B0E0E8E6F0E302C005908D
:1009E0000D92A436B107D9F720E0A4E6B0E001C02B
:1009F0001D92A83AB207E1F70E9402050C94321842
:100A00000C9400000E9417050E947A070E94A1081A
:100A10000E94A1080E9497088DE791E00E9441057D
:100A20008EE491E00E9454050E942D0BFDCF10BC76
:100A300088E089B986E880BD88E18AB908955D9B20
:100A4000FECF8CB908955F9BFECF8CB10895CF93F4
:100A5000DF930E942305C82FD0E00E9423059E014A
:100A6000382BC901DF91CF910895CF93DF93EC012B
:100A70008991882319F00E941F05FACFDF91CF9149
:100A80000895CF93DF93FC018491EF012196882391
:100A900021F00E941F05FE01F7CFDF91CF9108954D
:100AA00085EA91E00C9441050E9441050C945005A3
:100AB000CF93DF93EC0197FF05C082EA91E00E949B
:100AC000410512C08A3091057CF06AE070E00E9416
:100AD000D81726EF2603C001279F900D1124C80FB9
:100AE000D91FCB010E9458058C2F805DDF91CF91DB
:100AF0000C941F058A3010F4805D01C0895C0C9451
:100B00001F05CF93C82F82958F700E947A058C2F76
:100B10008F70CF910C947A05CF93C82F892F0E94A4
:100B200081058C2FCF910C948105882319F087E9DA
:100B300091E002C08CE891E00C9441050F931F9363
:100B4000CF93DF938C01C0E0D0E0C017D1072CF425
:100B500080E20E941F052196F8CFDF91CF911F916F
:100B60000F910895CF92DF92EF92FF920F931F9310
:100B7000CF93DF93CDB7DEB729970FB6F894DEBFDA
:100B80000FBECDBF6C01CE0101967C0189E0F7015B
:100B900011928A95E9F700E00E942305182F8A3008
:100BA00059F18D3049F1802F90E08C159D05A0F40E
:100BB00020ED210F2A3040F0212F2F7D21542630A7
:100BC00058F4113608F010520F5FF701E80FF91FC3
:100BD0001083812F0E941F05183011F01F37E1F696
:100BE0000023D1F20150F701E00FF11D108288E8D7
:100BF00091E00E944105D0CF85E891E00E94410537
:100C000020E030E080E0F701E80FF11D90819923AA
:100C1000B1F0A90124E0440F551F2A95E1F760EDDA
:100C2000690F292F990F330B6A3018F420533109BB
:100C300002C027533109242B352B8F5FE4CFC90124
:100C400029960FB6F894DEBF0FBECDBFDF91CF91CE
:100C50001F910F91FF90EF90DF90CF900895CF9369
:100C6000DF9300D0CDB7DEB72091A4003091A5006E
:100C70002115310511F428EA30E0CE010196821BDE
:100C8000930B0F900F90DF91CF910895882329F057
:100C9000813031F4B89AC09A0895B89AC0980895EE
:100CA000B8980895882329F0813031F4B99AC19A0F
:100CB0000895B99AC1980895B9980895882329F09C
:100CC000813031F4BA9AC29A0895BA9AC2980895B6
:100CD000BA980895882329F0813031F4BB9AC39AD9
:100CE0000895BB9AC3980895BB98089586B386FB70
:100CF000882780F9089580B382FB882780F90895BA
:100D0000882329F0813031F48A9A929A08958A9A38
:100D1000929808958A98089580B383FB882780F974
:100D20000895882329F0813031F48B9A939A08959D
:100D30008B9A939808958B98089580B382958170CB
:100D40000895882329F0813031F48C9A949A08957B
:100D50008C9A949808958C98089580B385FB882781
:100D600080F90895882329F0813031F48D9A959A7D
:100D700008958D9A959808958D980895882329F05F
:100D8000813031F48E9A969A08958E9A96980895A5
:100D90008E980895882329F0813031F48F9A979A9C
:100DA00008958F9A979808958F98089589B38170C0
:100DB0000895882329F0813031F4D09AD89A089583
:100DC000D09AD8980895D098089589B3869581705F
:100DD0000895882329F0813031F4D19AD99A089561
:100DE000D19AD9980895D198089589B382FB88271C
:100DF00080F90895882329F0813031F4D29ADA9A63
:100E00000895D29ADA980895D298089589B383FB09
:100E1000882780F90895882329F0813031F4D39A06
:100E2000DB9A0895D39ADB980895D398089589B3EF
:100E3000829581700895882329F0813031F4D49A05
:100E4000DC9A0895D49ADC980895D498089589B3CB
:100E500085FB882780F90895882329F0813031F4B3
:100E6000D59ADD9A0895D59ADD980895D598089574
:100E700089B386FB882780F90895882329F081307B
:100E800031F4D69ADE9A0895D69ADE980895D698C7
:100E9000089589B3881F8827881F0895882329F01B
:100EA000813031F4D79ADF9A0895D79ADF98089560
:100EB000D798089581E00E94D90681E00E94FA0641
:100EC00081E00E94E90681E00E942C0781E00C94F9
:100ED0001B0782E00E94D90682E00E94FA0682E0A7
:100EE0000E94E90682E00E941B0781E00E944606FC
:100EF00014BA08950E94690781E00E94460680E0C6
:100F00000E945E0680E00E94CA0681E00E945206AE
:100F100080E00E946A0680E00E94B20681E00E94A2
:100F20004E0781E00E943D0782E00E94800682E039
:100F30000E94910682E00E94A10682E00E94BE0605
:100F400082E00C940B070E946907809164009091E5
:100F50006500A0E0B0E080938E0090938F00A09396
:100F60009000B09391008FEF9FEFDC01809392008F
:100F700090939300A0939400B09395009093970062
:100F8000809396000E949D06809398000E947B06A5
:100F9000809399000E94060780939A000E948C0615
:100FA00080939B000E94170780939C000E94270754
:100FB00080939D000E94380780939E000E94AD069A
:100FC00080939F000E9449078093A0000E94D6064C
:100FD0008093A1000E94E5068093A2000E94F5067E
:100FE0008093A3009091A200992311F081111FC05A
:100FF0000E943809A0E0B0E08093920090939300A3
:10100000A0939400B09395000E945B0990E09093A8
:1010100097008093960080919800811108C080917C
:1010200092009091930090936800809367000895D8
:10103000CF93DF9381E00E946A060E94F80880E067
:101040000E946A060E94F808C09199000E94A307B6
:10105000CC2309F44BC00E947B06811147C00E943B
:101060003809EC0199270097E1F480E092E00E94B2
:1010700041058D2F0E9481058D2F80528F3560F4A0
:1010800080E20E941F0587E20E941F058D2F0E94AB
:101090001F0587E20E941F0584EE91E00E94410532
:1010A00025C00197D1F487EC91E00E944105809121
:1010B00066000E94810582EC91E00E9441058091CA
:1010C00066000E945D090E9418088091660090E009
:1010D000909397008093960009C088EA91E00E945F
:1010E00041058C2F0E9481050E94500580919F0030
:1010F000882349F080916400909165000196909357
:10110000650080936400DF91CF91089580919B00EA
:10111000811180919F000895CF93C82F0E94690785
:1011200081E08C270E944E07CF910C94180880E034
:101130000E94B206109265001092640080E00C9448
:101140008C08CF93DF930E94690780E00E94B2066B
:1011500010926500109264000E94F808C2E3D0E08B
:1011600080E00E948C082197D9F781E00E94B206A6
:101170000E94F80880E0DF91CF910C948C08CF9307
:10118000DF93809366000E94690780E00E942C072D
:1011900081E00E944E07CFE0D0E00E9418080E9434
:1011A0006D0A0E947B06882339F02197B1F781E010
:1011B000DF91CF910C942C0781E00E942C078DE2E7
:1011C0000E941F050E945005CFECD0E08FEC0E94DA
:1011D0005D090E941808D0939700C09396000E9462
:1011E0006D0A0E947B06882389F3DF91CF910895D1
:1011F0000000000000000000000000000895EF92D1
:10120000FF920F931F93CF93DF938C0181E00E9495
:10121000460681E00E94CA06CFE0D0E0EE24E394C7
:10122000F12CC7010C2E02C0880F991F0A94E2F717
:1012300080239123892B11F081E001C080E00E947E
:101240005E0680E00E94CA0681E00E94CA062197DD
:1012500040F780E00E94CA0681E00E94CA0680E052
:10126000DF91CF911F910F91FF90EF900C94460664
:101270000F931F93CF93DF9380E00E94520681E08B
:101280000E94520600E110E0C0E0D0E0CC0FDD1F6C
:101290000E947606C82B80E00E94CA0681E00E9468
:1012A000CA060150110991F79C2F8D2FDF91CF9124
:1012B0001F910F91089583B308959FEF94BB85BB51
:1012C0000895CF93DF93EC010E948608811120C01E
:1012D0000E945A0781E00E94D90681E00E94FA0626
:1012E00081E00E94E906CE010E94FF0880E00E9492
:1012F000E90680E00E94D906C3B381E00E94D906C6
:1013000081E00E94E9060E9469078C2F90E002C0EC
:101310008FEF9FEFDF91CF910895EF92FF920F93A0
:101320001F93CF93DF937C01EB018A010E94860813
:10133000811110C00E945A0781E00E94D90681E005
:101340000E94FA0681E00E94E9060C0F1D1FEC1AAC
:10135000FD0A0AC0FE01CE01805C9F4F2FEF219352
:10136000E817F907E1F7E6CFC017D107E1F0C701A9
:101370008C0F9D1F0E94FF080E94F80880E00E94C9
:10138000D90680E00E94E9060E94F80883B3899399
:101390000E94F80881E00E94D90681E00E94E906D7
:1013A0000E94F808E1CFDF91CF911F910F91FF903C
:1013B000EF900C9469070F931F93CF93DF938C01E9
:1013C000C62FD42F0E94860881112EC00E945A0772
:1013D000C8010E94FF088FEF84BBC5BB80E00E945C
:1013E000D90680E00E94FA0681E00E94D90681E0D9
:1013F0000E94FA0617FD12C0DD2381F014BA80E0C6
:101400000E94E90680E00E94D90683B3C813F7CF93
:1014100081E00E94D90681E00E94E906DF91CF9128
:101420001F910F910C946907DF91CF911F910F913C
:101430000895CF92DF92EF92FF920F931F93CF9375
:10144000DF939C012F733327232B11F080E017C00B
:101450007A016B01EC010E9486088111F7CF8601A9
:10146000EC0CFD1C0E151F0549F0F80161918F0170
:1014700041E0CE010E94DB092196F4CF81E0DF91AB
:10148000CF911F910F91FF90EF90DF90CF90089533
:101490000E948608882331F081EE92E00E94540574
:1014A00080E0089581E00895CF93DF93EC018BE510
:1014B0000E941F05CE010E948C058CED92E00E94D7
:1014C0004105CE010E946109C82F0E9481050E943A
:1014D00050058C2FDF91CF91089580916900811183
:1014E0000CC081E190E00E949E0584E895E00E9496
:1014F00054058AE395E00E94540584E395E00E9438
:10150000410580918E0090918F000E948C058FE2A2
:1015100095E00E94410582E090E00E949E05809146
:10152000920090919300A0919400B0919500B7FD26
:1015300003C00E948C0504C08AE295E00E94410528
:1015400082E090E00E949E05809196009091970025
:1015500097FD0FC08091A300811104C084E295E043
:101560000E944105809196000E9481058FE195E0DF
:1015700002C08CE195E00E94410584E090E00E9469
:101580009E05809198000E94950583E090E00E945E
:101590009E05809199000E94950584E090E00E944C
:1015A0009E0580919A000E94950585E090E00E943A
:1015B0009E0580919B000E94950585E090E00E9429
:1015C0009E0580919C000E94950583E090E00E941A
:1015D0009E0580919D000E94950583E090E00E9409
:1015E0009E0580919E000E94950584E090E00E94F7
:1015F0009E0580919F000E94950586E090E00E94E4
:101600009E058091A0000E94950585E090E00E94D3
:101610009E058091A1000E94950583E090E00E94C4
:101620009E058091A2000E94950582E090E00E94B4
:101630009E058091A3000E9495050E94500581E0BF
:101640008093690008950E942F060E9458058FE03C
:1016500095E00E9441050C9450052F923F924F92C5
:101660005F926F927F928F929F92AF92BF92CF9232
:10167000DF92EF92FF920F931F93CF93DF93CDB73B
:10168000DEB7DA950FB6F894DEBF0FBECDBF0E946D
:101690002305082F863609F46CC160F58C3409F4F3
:1016A0007EC198F4823409F491C130F48C3009F091
:1016B000DBC18FEF94E0D6C1833409F4B1C1853426
:1016C00009F0D2C160E081E057C1833609F4C4C19A
:1016D00040F4823509F4B9C1823609F0C5C181E010
:1016E000BCC1843609F49CC0853609F0BDC160E0F8
:1016F00080E042C1803709F430C108F06EC08936FD
:1017000009F432C108F062C0883609F0ADC18FEC2F
:1017100094E00E9441058FEB94E00E9441058CEA21
:1017200094E00E9441058BE894E00E9441058EE719
:1017300094E00E94410587E694E00E94410580E51F
:1017400094E00E94410585E394E00E9441058BE20C
:1017500094E00E94410586E194E00E94410588EFF3
:1017600093E00E94410581EE93E00E94410580EDE7
:1017700093E00E94410582EC93E00E9441058EEACD
:1017800093E00E9441058FE993E00E9441058EE8B5
:1017900093E00E9441058DE793E00E94410583E6B6
:1017A00093E00E9441058DE493E00E94410589E3A6
:1017B00093E00E9441058AE293E00E9441058EE198
:1017C00093E00E94410589E093E04CC18B3609F417
:1017D0002AC18C3609F4D3C047C1843709F432C119
:1017E00030F4823769F0833709F439C13DC1873756
:1017F00009F48EC08E3F09F037C10E94861634C1AD
:101800000E94480A882309F42FC18FEF92E00E94BA
:10181000410584E090E00E94B2050E94540A24C170
:101820000E94480A882309F41FC18CEC92E00E94B0
:10183000410582E090E00E94B2052C01552440E071
:1018400051E0CE0101967C01BC0180E0942D0E9404
:101850008D0987E090E00E949E0586E992E00E9453
:101860005405542C44241701A12CB12C4E185F08A8
:1018700080E992E00E944105C201820D931D0E9401
:101880008C0589E892E00E94410583E090E00E9487
:101890009E0541016501350190E1690E711CC61478
:1018A000D704A0F4F40181914F010E94810580E2E8
:1018B0000E941F05C6018A199B09079719F480E247
:1018C0000E941F05FFEFCF1ADF0AE9CF82E090E008
:1018D0000E949E056101C6018E199F098615970514
:1018E00058F4F60181916F0190EE980F9F3508F042
:1018F0008EE20E941F05EFCF0E945005F0E12F0EEF
:10190000311C611481E0780609F4AEC05301B0CFF8
:101910000E94480A882309F4A7C08FE792E00E943A
:10192000410584E090E00E94B2057C0188E792E0E6
:101930000E94410582E090E00E94B205182F41E02C
:10194000682FC7010E94DB09C7010E94540A1817BB
:1019500009F48AC08CE592E004C00E9497088AE4EA
:1019600092E00E94540580C00E94A10885E392E0A5
:10197000F8CF0E94230B78C00E940D0F75C0809194
:101980006700909168004091600050916100609103
:1019900062007091630077FD0AC0CA0108C08BE243
:1019A00092E00E94410584E090E00E94B2050E940E
:1019B000E80E092E000CAA0BBB0B809360009093DD
:1019C0006100A0936200B09363004EC08EE192E08C
:1019D0000E94410584E090E00E94B205009711F05A
:1019E0000E946A0F8CE092E00E944105CE010196B0
:1019F0000E94630F7C0110E08981181770F4F701D1
:101A0000E10FF11DE10FF11D808191810E948C0594
:101A100080E20E941F051F5FEFCF0E94500524C087
:101A20000E947A0F21C086E092E00E9441050E9448
:101A30002305182F0E9481050E945005812F0E94C6
:101A4000BF0812C00E94EE0D0FC087E095E00E9413
:101A500041050E941C1708C080E00E948C080E946B
:101A60006D0A02C00E9441050E942F06883C910524
:101A700020F481EE94E00E944105033761F48FEF7A
:101A80009FEFDC018093600090936100A09362005F
:101A9000B09363000AC08EE9800F823080F3109209
:101AA00069000C3611F00C3451F7D3950FB6F89449
:101AB000DEBF0FBECDBFDF91CF911F910F91FF9081
:101AC000EF90DF90CF90BF90AF909F908F907F90DE
:101AD0006F905F904F903F902F9008956F927F92FC
:101AE0008F929F92AF92BF92CF92DF92EF92FF922E
:101AF0000F931F93CF93DF93CDB7DEB7C054D109B7
:101B00000FB6F894DEBF0FBECDBF8C013C017394BD
:101B1000FE0131967F015E01F1E4AF0EB11C0615A6
:101B2000170508F045C0C8010E948C0582E090E0CE
:101B30000E949E0580916B00F70190E0282F290FED
:101B400021939F5F9034D1F7805C80936B00680194
:101B50004701F40161914F0140E0C6010E94DB0999
:101B6000D7FC06C081E291EA0197F1F700C00000BE
:101B70009FEFC91AD90A8A149B0459F767014801D3
:101B80008E189F08C4018C0D9D1D0E946109F601ED
:101B900021916F0191E0281390E0892F0E94950513
:101BA000CA14DB0479F70E945005005C1F4FB7CFC1
:101BB000C05CDF4F0FB6F894DEBF0FBECDBFDF9124
:101BC000CF911F910F91FF90EF90DF90CF90BF903A
:101BD000AF909F908F907F906F9008958F929F927B
:101BE000AF92BF92CF92DF92EF92FF920F931F932B
:101BF000CF93DF93CDB7DEB7C058D1090FB6F894B5
:101C0000DEBF0FBECDBF80916A0091E0980F909328
:101C10006A0080936B0080E096E00E94410580E0BE
:101C200090E00E946E0D81EE95E00E944105E12C4E
:101C30008EE7F82EC7010E948C0582E090E00E949A
:101C40009E0580916B008E010F5B1F4FF80190E0A5
:101C50005801292F280F21939F5F9034D1F7805C82
:101C600080936B0040E450E0B801C7010E94190A5C
:101C700040E450E0BE016F5F7F4FC7010E948D09B5
:101C8000CE0101966C01480181E0F6012081F80146
:101C90009081291380E00E9495050F5F1F4FF60188
:101CA0009081F4018081981779F082EC95E00E9490
:101CB0004105F60180810E9481058DEB95E00E942F
:101CC000410580E20E941F05FFEFCF1ADF0ACA1408
:101CD000DB04C9F60E94500580E4E80EF11CE11413
:101CE0009FE7F90609F0A6CF80ED95E00E94410537
:101CF00080E090E80E946E0D88EC95E00E9441051E
:101D0000C058DF4F0FB6F894DEBF0FBECDBFDF91D6
:101D1000CF911F910F91FF90EF90DF90CF90BF90E8
:101D2000AF909F908F900895AF92BF92CF92DF9225
:101D3000EF92FF920F931F93CF93DF93CDB7DEB750
:101D4000E0970FB6F894DEBF0FBECDBF7C018BE5E8
:101D50000E941F05C7010E948C0583E796E00E9440
:101D600041056E0189E2C80ED11C5E01E1E3AE0EB1
:101D7000B11C8601EC18FD08C701800F911F0E945D
:101D80006109F80181938F01EA15FB05A9F740E08D
:101D900050E0BE016F5F7F4FC6010E942D128C0183
:101DA000CE0101960E9435050E945005C801E096BB
:101DB0000FB6F894DEBF0FBECDBFDF91CF911F915C
:101DC0000F91FF90EF90DF90CF90BF90AF9008956C
:101DD0000F931F93CF93DF93EC0108E010E0809105
:101DE0006700909168008C179D0729F488E796E0BA
:101DF0000E94410504C083E090E00E949E05CE0150
:101E00000E94940EC80FD91F0150110941F7CE014D
:101E1000DF91CF911F910F910895FF920F931F9320
:101E2000CF93DF93082F162F0E94AD06811109C0B2
:101E30008EE596E0DF91CF911F910F91FF900C946A
:101E40005405111104C086E496E00E94410580E02B
:101E50000E948C080E949D06C82F002321F01111BA
:101E600002C00E946D0AC111F2CFC0919200D091C0
:101E7000930081E00E948C080E948C06F82E0111CC
:101E80000E946D0AF110F5CF111115C08CE396E098
:101E90000E944105CE010E948C0587E396E00E94D6
:101EA00041050E945005CE01DF91CF911F910F9106
:101EB000FF900C94E80ECE01DF91CF911F910F910E
:101EC000FF900C94940E20916C00FC0120838DE611
:101ED00090E00895E0916C00E03158F421E02E0F7D
:101EE00020936C00F0E0EE0FFF1FE359FF4F91834A
:101EF000808308950F931F9361E080E00E940D0F8F
:101F000090916C00009192001091930020919400A8
:101F100030919500EDE6F0E080E0891769F341919A
:101F2000519160E070E0041715072607370731F478
:101F300085E296E01F910F910C9441058F5FEDCFE4
:101F4000FB0124913196222321F0DC012D93CD0158
:101F5000F8CFFC0110820895CF93DF93EC01CB0101
:101F6000BE010E94F21709900020E9F7CE01019707
:101F7000DF91CF9108956130710541F020F062301A
:101F8000710539F0089563EC76E005C060EC76E009
:101F900002C06DEB76E00C94A00F3F924F925F92DF
:101FA0006F927F928F929F92AF92BF92CF92DF9269
:101FB000EF92FF920F931F93CF93DF93CDB7DEB7CE
:101FC0008C899D896E887F888E01085E1F4FCC2486
:101FD000C394D12CEE24E394F12C58E6552E6BE2F9
:101FE000462E74E2372E93012F5F3F4FF301449149
:101FF000442309F41DC2453209F015C242E0640EC3
:10200000711CF9012491422F50E0FA01EE54F109BC
:10201000EB32F10540F7E65DFF4F0C94EC17F80149
:102020000190F081E02D0E5F1F4FE830F105D8F6EA
:10203000EB5AFF4F0C94EC1764E577E0E0C16DE4D8
:1020400077E0DDC169E477E0DAC162E477E0D7C127
:102050006EE377E0D4C16AE377E0D1C167E377E06C
:10206000CEC164E377E0CBC1F80120810C5F1F4F44
:1020700032813130F1F030F0323091F1333009F407
:1020800046C0B1CF253079F030F4243009F0ABCF21
:1020900060E377E0B4C1263049F0273009F0A3CFE0
:1020A00062E277E0ACC16CE277E0A9C167E277E079
:1020B000A6C1253079F030F4243009F094CF6EE1D8
:1020C00077E09DC1263049F0273009F08CCF60E1E0
:1020D00077E095C16AE177E092C165E177E08FC171
:1020E000253079F030F4243009F07DCF6CE077E0D2
:1020F00086C1263049F0273009F075CF6EEF76E0C3
:102100007EC168E077E07BC163E077E078C125308D
:1021100079F030F4243009F066CF69EF76E06FC1D2
:10212000263049F0273009F05ECF6AEE76E067C1CD
:1021300064EF76E064C16FEE76E061C1F801E081A2
:102140000E5F1F4F4E2F50E04830510508F04BCF27
:10215000FA01E35AFF4F0C94EC1767EE76E04FC19B
:1021600065EE76E04CC162EE76E049C160EE76E065
:1021700046C16DED76E043C16AED76E040C168EDA1
:1021800076E03DC166ED76E03AC15801F2E0AF0E6F
:10219000B11CD801ED91FC91EC0DFD1D6081FC019D
:1021A0003082062E000C770B6E5F7F4F9C0177FF0D
:1021B00003C02F5F3F4F03C02E5F3F4F41824AE075
:1021C00050E0C9010E94AC0F46C05801E2E0AE0EDB
:1021D000B11CD8016D917C910E94BB0F22C15801A6
:1021E000B2E0AB0EB11CF801608171814AE050E0B1
:1021F0000E94AC0FDC011C9214C1F801E0810E5F5B
:102200001F4F4E2F50E04830510508F0ECCEFA0138
:10221000EB59FF4F0C94EC1764ED76E0F0C060EDE5
:1022200076E0EDC06EEC76E0EAC06CEC76E0E7C0FC
:102230005801B2E0AB0EB11CD801ED91FC91EC0D50
:10224000FD1D608170E040E150E00E94AC0FFC0198
:10225000019650821182BFEFEB1AFB0AE2C05801CF
:10226000E2E0AE0EB11CD801ED91FC91EC0DFD1D2C
:10227000618170E0762F66272081622B40E150E07B
:102280000E94AC0FFC01019650821182B2E0EB0E6D
:10229000F11CC7C0F80130810C5F1F4F203719F0C7
:1022A00042E050E002C041E050E0313049F028F017
:1022B000323049F0333061F096CE69EC76E09FC061
:1022C00066EC76E09CC0628173810E94BB0F8BCE6E
:1022D0004130510519F46AEB76E091C067EB76E086
:1022E0008EC0D8018D909C9011971296AD90BC90A5
:1022F00013970A5F1F4F482D50E04830510508F0F2
:1023000049C0FA01E359FF4F0C94EC1765EB76E0F6
:102310000EC063EB76E00BC061EB76E008C06FEABD
:1023200076E005C06DEA76E002C06BEA76E00E94D6
:10233000A00F30C0A114B10419F466EA76E05FC0C2
:10234000AA94AB2819F462EA76E002C06EE976E05E
:102350001496ED91FC911597EC0DFD1DB0800E9437
:10236000A00FB7FC03C0DC014C9201966B2DBB0C97
:10237000770B4AE050E00E94AC0F6CE976E00E94D7
:10238000A00FB6E08B16910409F02DCE0BC06AE9C0
:1023900076E035C0E6E08E16910409F024CEAB2835
:1023A00009F421CEFFEFEF1AFF0A2FEFC21AD20A6B
:1023B0001ACEF801E0810E5F1F4F4E2F50E04830DB
:1023C000510508F010CEFA01EB58FF4F0C94EC17B2
:1023D00066E976E014C062E976E011C06FE876E065
:1023E0000EC06CE876E00BC068E876E008C064E8F0
:1023F00076E005C060E876E002C06CE776E00E9417
:10240000A00FF1CD580142E0A40EB11CD8016D918E
:102410007C9140E150E00E94AC0FFC01019650829B
:1024200011828501E0CDFC01408339010196DBCDAD
:10243000DC011C92C701DF91CF911F910F91FF909A
:10244000EF90DF90CF90BF90AF909F908F907F9054
:102450006F905F904F903F900895AF92BF92DF9240
:10246000EF92FF920F931F93CF93DF93E12CF12C08
:10247000DC015701FC012191CF01FFEFEF1AFF0AA8
:10248000322F3295369536953370F22FF695F695B4
:10249000F695EF2FE770DE2EE22FE770DF2FD17079
:1024A000CD2DC695263719F482EA99E026C0323040
:1024B00009F484C1333009F49BC1313009F461C19E
:1024C0000E2F10E0F8013197E730F10520F4E358C2
:1024D000FF4F0C94EC17F1E0DF16D1F0DF1658F047
:1024E00022E0D216C1F033E0D3121AC0BF93AF93EB
:1024F00085E899E0F3C38EE999E09F938F937F93EA
:102500006F930E94CD0F0F900F900F900F90F2C31A
:1025100083E999E0F2CFBF93AF938BE899E0DEC3F4
:10252000BF93AF93ED2DF0E03497FF93EF938BE7DC
:1025300099E09F938F937F936F930E94CD0FEDB798
:10254000FEB738960FB6F894FEBF0FBEEDBFD2C3EC
:10255000D11118C0BF93AF935F934F931F92CF9346
:1025600081E799E09F938F937F936F930E94CD0FA4
:102570002DB73EB7265F3F4F0FB6F8943EBF0FBE54
:102580002DBFB8C35F934F931F92CF935F934F9329
:1025900086E699E09F938F937F936F930E94CD0F70
:1025A000EDB7FEB73A960FB6F894FEBF0FBEEDBF7B
:1025B000A1C3D11127C0C23051F0C330F1F0C130F6
:1025C00019F08BE599E099CF80E599E096CF5F937C
:1025D0004F93BF93AF9384E499E09F938F937F933E
:1025E0006F930E94CD0F2DB73EB7285F3F4F0FB6B8
:1025F000F8943EBF0FBE2DBF7DC3BF93AF9389E359
:1026000099E06CC3C23051F0C330E9F0C13019F029
:102610008EE299E072CF83E299E06FCFBF93AF93E0
:102620005F934F9387E199E09F938F937F936F938D
:102630000E94CD0FEDB7FEB738960FB6F894FEBFE7
:102640000FBEEDBF57C3BF93AF938CE099E046C375
:10265000D11116C05F934F931F92CF9385E099E0FD
:102660009F938F937F936F930E94CD0F2DB73EB7AB
:10267000285F3F4F0FB6F8943EBF0FBE2DBF3AC341
:102680005F934F931F92CF938EEF98E09F938F931A
:102690007F936F930E94CD0FEDB7FEB738960FB6BC
:1026A000F894FEBF0FBEEDBF25C3BF93AF935F93FA
:1026B0004F931F92DF9287EF98E09F938F937F93C2
:1026C0006F930E94CD0F2DB73EB7265F3F4F0FB6D9
:1026D000F8943EBF0FBE2DBF0DC3BF93AF935F9362
:1026E0004F931F92DF9280EF98E09F938F937F9399
:1026F0006F930E94CD0FEDB7FEB73A960FB6F894E0
:10270000FEBF0FBEEDBFF6C2BF93AF93BF93AF93B3
:102710005F934F931F92DF9286EE98E09F938F9383
:102720007F936F930E94CD0F2DB73EB7245F3F4F2D
:102730000FB6F8943EBF0FBE2DBFDCC20D2D10E0CA
:10274000F8013197E730F10520F4EC57FF4F0C9476
:10275000EC1781EE98E0D1CE8CED98E0CECE88EDEE
:1027600098E0CBCE84ED98E0C8CE80ED98E0C5CE61
:102770008CEC98E0C2CE88EC98E0BFCE84EC98E078
:10278000BCCEBF93AF935F934F931F92EF93BF93D2
:10279000AF935F934F931F92DF928AEB98E09F93E2
:1027A0008F937F936F930E94CD0FEDB7FEB7709616
:1027B0000FB6F894FEBF0FBEEDBF9CC2BF93AF93A0
:1027C0005F934F931F92EF931F92DF9284EB98E0F9
:1027D0009F938F937F936F930E94CD0F2DB73EB73A
:1027E000245F3F4F0FB6F8943EBF0FBE2DBF82C28D
:1027F0000E2F10E0F8013197E730F10520F4E5578E
:10280000FF4F0C94EC171F92DF928DEA98E066C29E
:10281000D11115C05F934F931F92CF9386EA98E032
:102820009F938F937F936F930E94CD0FEDB7FEB769
:1028300038960FB6F894FEBF0FBEEDBF5BC2C23034
:1028400051F0C33069F0C13019F082EA98E055CEFA
:102850008EE998E052CE5F934F9386E998E03EC2AE
:102860005F934F938CE898E039C2BF93AF931F9268
:10287000DF9282E898E09F938F937F936F930E94FB
:10288000CD0F2DB73EB7285F3F4F0FB6F8943EBF30
:102890000FBE2DBF2FC20D2D10E0F8013197E7308C
:1028A000F10520F4EE56FF4F0C94EC17BF93AF9355
:1028B0008CE798E013C2CD01019611962C91322F2E
:1028C0003695369536953770E22FE7702295269526
:1028D000269523702230C1F1233009F44EC02130F7
:1028E000C9F09F938F935F934F931F92EF931F9223
:1028F0003F938AE198E09F938F937F936F930E9419
:10290000CD0FEDB7FEB73C960FB6F894FEBF0FBEE5
:10291000EDBFC4C19F938F935F934F931F92EF932B
:102920001F923F938FE098E09F938F937F936F93D5
:102930000E94CD0F2DB73EB7245F3F4F0FB6F894DE
:102940003EBF0FBE2DBFAAC19F938F935F934F933E
:102950001F92EF931F923F9384E098E09F938F9391
:102960007F936F930E94CD0FEDB7FEB73C960FB6E5
:10297000F894FEBF0FBEEDBF91C19F938F935F93FD
:102980004F931F92EF931F923F9389EF97E09F938E
:102990008F937F936F930E94CD0F2DB73EB7245F27
:1029A0003F4F0FB6F8943EBF0FBE2DBF77C1BF9308
:1029B000AF9380E798E092C1BF93AF9385E698E02C
:1029C0008DC15F934F9389E598E088C18FE498E0CB
:1029D00094CD8CE498E091CD89E498E08ECDBF93BE
:1029E000AF931F92DF928DE398E09F938F937F9335
:1029F0006F930E94CD0FEDB7FEB738960FB6F894DF
:102A0000FEBF0FBEEDBF76C1D11116C05F934F93CD
:102A10001F92CF9385E398E09F938F937F936F935B
:102A20000E94CD0F2DB73EB7285F3F4F0FB6F894E9
:102A30003EBF0FBE2DBF5EC1C23071F0C33019F46E
:102A400042E050E015CDC13011F441E0FACFBF9320
:102A5000AF938DE298E042C111960C911197202F0F
:102A60002295269526952370902F96959695969566
:102A7000892F8770E02FE770213009F0F2C011969E
:102A80009170F82EF6940E2F10E0F8013197E73090
:102A9000F10520F4E756FF4F0C94EC178630B9F09F
:102AA000BF93AF935F934F931F928F938EEE97E0F8
:102AB0009F938F937F936F930E94CD0FEDB7FEB7D7
:102AC0003A960FB6F894FEBF0FBEEDBFE7C087EE93
:102AD00097E0BCC08630C1F0BF93AF935F934F9334
:102AE0001F928F938BED97E09F938F937F936F93BC
:102AF0000E94CD0F2DB73EB7265F3F4F0FB6F8941B
:102B00003EBF0FBE2DBFCAC080ED97E09FC09111A0
:102B100017C05F934F931F92FF925F934F9385EC83
:102B200097E09F938F937F936F930E94CD0FEDB7A4
:102B3000FEB73A960FB6F894FEBF0FBEEDBFAEC01B
:102B40005F934F931F92FF925F934F938AEB97E0AF
:102B50009F938F937F936F930E94CD0F2DB73EB7B6
:102B6000265F3F4F0FB6F8943EBF0FBE2DBF96C0F5
:102B7000911117C05F934F931F92FF92BF93AF9332
:102B80008EEA97E09F938F937F936F930E94CD0F70
:102B9000EDB7FEB73A960FB6F894FEBF0FBEEDBF85
:102BA0007DC0BF93AF935F934F931F92FF9282EAD2
:102BB00097E09F938F937F936F930E94CD0F2DB7D4
:102BC0003EB7265F3F4F0FB6F8943EBF0FBE2DBFF6
:102BD00065C08EE997E03AC0813019F089E997E045
:102BE00035C084E997E032C01F928F938EE897E05A
:102BF0009F938F937F936F930E94CD0F0F900F90B1
:102C00000F900F900F900F9049C090E0FC0131970A
:102C1000E730F10520F4E056FF4F0C94EC1786E8FE
:102C200097E014C08EE797E011C086E797E00EC0EA
:102C30008EE697E00BC08AE697E008C086E697E04C
:102C400005C082E697E002C08EE597E09F938F93E0
:102C50007F936F930E94CD0F0F900F900F900F9066
:102C60001DC02230C9F4E430B8F48430A8F01F92BB
:102C7000EF931F928F938BE597E09F938F937F93B2
:102C80006F930E94CD0FEDB7FEB738960FB6F8944C
:102C9000FEBF0FBEEDBF02C081E090E001962AC0EA
:102CA000BF93AF931F92DF9287E298E09F938F9339
:102CB0007F936F930E94CD0F2DB73EB7285F3F4F94
:102CC0000FB6F8943EBF0FBE2DBF14C038E0D39EA0
:102CD000F0011124FF93EF9380E298E09F938F938C
:102CE0007F936F930E94CD0F0F900F900F900F90D6
:102CF0000F900F908A0D9B1DDF91CF911F910F9127
:102D0000FF90EF90DF90BF90AF9008956F927F9209
:102D10008F929F92AF92BF92CF92DF92EF92FF92EB
:102D20000F931F93CF93DF93CDB7DEB7C058D10970
:102D30000FB6F894DEBF0FBECDBF0E94970881E0AA
:102D40000E948C080E948608882321F082E00E945D
:102D50001F055CC081E00E941F050E9427056C01D1
:102D600081E00E941F055E0141E4A40EB11CCE016A
:102D700001964C0166246A94712C0E9423058823D5
:102D8000E1F17501082F10E0C7018A199B0980172E
:102D9000910734F40E942305F70181937F01F4CF5A
:102DA000A801B501C6010E94190AA801B401C60113
:102DB0000E948D09F401E12CF12C20E030E081919A
:102DC000A901480F511DCA01B3010E94C4179C01FB
:102DD0008E0D9F1DB3010E94C4177C01CF0188197D
:102DE0009909801791075CF3822F0E941F058E2D91
:102DF0000E941F05C00ED11EC0CF0E942305811165
:102E000003C081E00E941F050E941C17C058DF4FBD
:102E10000FB6F894DEBF0FBECDBFDF91CF911F91EB
:102E20000F91FF90EF90DF90CF90BF90AF909F9069
:102E30008F907F906F9008958AB180698AB98BB71F
:102E400080648BBF85B78E7F85BF85B7826085BF65
:102E5000789487EA99E00E9454050E94A1089BE0BB
:102E600083E098BB88BBFDCF1F920F920FB60F92E5
:102E700011242F933F934F935F936F937F938F937F
:102E80009F93AF93BF93EF93FF93F8940E943809F9
:102E90009C0133272115310521F4892F0E941F053C
:102EA0000BC02130310541F480918D000E945D09F5
:102EB0008BE088BB83E088BB789414BAFF91EF91D4
:102EC000BF91AF919F918F917F916F915F914F9142
:102ED0003F912F910F900FBE0F901F9018951F924A
:102EE0000F920FB60F9211240F931F932F933F93BE
:102EF0004F935F936F937F938F939F93AF93BF9302
:102F0000CF93DF93EF93FF93F8940E942305809370
:102F10008D0080E00E942C0781E00E944E07CFE0E8
:102F2000D0E01BE003E018BB08BB0E947B068823AF
:102F300031F02197C1F781E00E942C070EC081E09B
:102F40000E942C07DBE0C3E08FEC0E945D09D8BB38
:102F5000C8BB0E947B068823B9F3789414BAFF910A
:102F6000EF91DF91CF91BF91AF919F918F917F9121
:102F70006F915F914F913F912F911F910F910F9002
:102F80000FBE0F901F901895AA1BBB1B51E107C0E5
:102F9000AA1FBB1FA617B70710F0A61BB70B881FE9
:102FA000991F5A95A9F780959095BC01CD01089578
:102FB00097FB072E16F4009407D077FD09D00E94E6
:102FC000C41707FC05D03EF4909581959F4F089556
:102FD000709561957F4F0895EE0FFF1F0590F49156
:102FE000E02D09944532510520F4423010F00C9444
:102FF000FD17FB011082CB010895BB274A3031F445
:10300000992322F4BDE2909581959F4F0C94091865
:10301000BB27FB015527AA27880F991FAA1FA417B2
:1030200010F0A41B83955051B9F7A05DAA3308F0A6
:10303000A95DA193009779F7B111B1931192CB01DA
:103040000C942218DC01FC01672F71917723E1F7C2
:10305000329704C07C916D9370836291AE17BF0765
:08306000C8F30895F894FFCFB6
:04306800FFFFFFFF68
:00000001FF
