:100000000C944A000C9467000C9467000C946700F1
:100010000C9467000C9467000C9467000C946700C4
:100020000C9467000C9467000C9467000C946700B4
:100030000C9467000C9467000C9467000C946700A4
:100040000C9467000C9467000C9467000C94670094
:100050000C9467008A069306D705CC06CC06CC061E
:1000600098057F06CC06CC06CC06CC06CC06CC0682
:100070007A06CC06C7058706CC06CC06CC06540605
:10008000CC06CC06CC06CC06CC06CC06CC06CC06E0
:100090009606B30611241FBECFE5D4E0DEBFCDBF68
:1000A00013E0A0E6B0E0E6EEFDE002C005900D92A0
:1000B000AE31B107D9F723E0AEE1B3E001C01D9244
:1000C000A333B207E1F70E9469000C94F1060C9487
:1000D00000000E947A000E9493020E94350380E68D
:1000E00090E00E94980088E690E00E9498000E94AC
:1000F0007105FDCF10BC89E189B986E880BD88E132
:100100008AB908955D9BFECF8CB908955F9BFECFA1
:100110008CB10895CF93DF930E948600C82FD0E062
:100120000E9486009E01382BC901DF91CF9108956E
:10013000CF93DF93EC018991882319F00E9482000C
:10014000FACFDF91CF9108958A3010F4805D01C01D
:10015000895C0C948200CF93C82F82958F700E9487
:10016000A4008C2F8F70CF910C94A400CF93C82F34
:10017000892F0E94AB008C2FCF910C94AB00882369
:1001800019F089E990E002C084EA90E00C949800AC
:100190000F931F93CF93DF938C01C0E0D0E0C01783
:1001A000D1072CF480E20E9482002196F8CFDF91E3
:1001B000CF911F910F910895CF92DF92EF92FF920E
:1001C0000F931F93CF93DF93CDB7DEB729970FB669
:1001D000F894DEBF0FBECDBF6C01CE0101967C014D
:1001E00089E0F70111928A95E9F700E00E94860004
:1001F000182F8A3059F18D3049F1802F90E08C15FD
:100200009D05A0F420ED210F2A3040F0212F2F7DF5
:100210002154263058F4113608F010520F5FF701C0
:10022000E80FF91F1083812F0E948200183011F00F
:100230001F37E1F60023D1F20150F701E00FF11D65
:1002400010828FEA90E00E949800D0CF8BE193E07B
:100250000E94980020E030E080E0F701E80FF11DF7
:1002600090819923B1F0A90124E0440F551F2A95EC
:10027000E1F760ED690F292F990F330B6A3018F4FD
:100280002053310902C027533109242B352B8F5FAE
:10029000E4CFC90129960FB6F894DEBF0FBECDBFDB
:1002A000DF91CF911F910F91FF90EF90DF90CF9052
:1002B0000895882329F0813031F4B89AC09A0895BE
:1002C000B89AC0980895B8980895882329F0813085
:1002D00031F4B99AC19A0895B99AC1980895B99814
:1002E0000895882329F0813031F4BA9AC29A08958A
:1002F000BA9AC2980895BA980895882329F081304F
:1003000031F4BB9AC39A0895BB9AC3980895BB98D9
:10031000089586B386FB882780F9089580B382FB11
:10032000882780F90895882329F0813031F48A9A4A
:10033000929A08958A9A929808958A98089580B317
:1003400083FB882780F90895882329F0813031F4D0
:100350008B9A939A08958B9A939808958B98089501
:1003600080B3829581700895882329F0813031F41B
:100370008C9A949A08958C9A949808958C980895DC
:1003800080B385FB882780F90895882329F0813080
:1003900031F48D9A959A08958D9A959808958D982F
:1003A0000895882329F0813031F48E9A969A089521
:1003B0008E9A969808958E980895882329F0813012
:1003C00031F48F9A979A08958F9A979808958F98F5
:1003D000089589B381700895882329F0813031F41C
:1003E000D09AD89A0895D09AD8980895D098089518
:1003F00089B3869581700895882329F0813031F47E
:10040000D19AD99A0895D19AD9980895D1980895F2
:1004100089B382FB882780F90895882329F08130E9
:1004200031F4D29ADA9A0895D29ADA980895D29845
:10043000089589B383FB882780F90895882329F0DC
:10044000813031F4D39ADB9A0895D39ADB980895DA
:10045000D398089589B3829581700895882329F0EF
:10046000813031F4D49ADC9A0895D49ADC980895B6
:10047000D498089589B385FB882780F90895882347
:1004800029F0813031F4D59ADD9A0895D59ADD9816
:100490000895D598089589B386FB882780F9089533
:1004A000882329F0813031F4D69ADE9A0895D69ABD
:1004B000DE980895D698089589B3881F8827881FE5
:1004C0000895882329F0813031F4D79ADF9A08956E
:1004D000D79ADF980895D798089581E00E94EC019B
:1004E00081E00E940D0281E00E94FC0181E00E94F7
:1004F0003F0281E00E94500281E00C942E0282E0D3
:100500000E94EC0182E00E940D0282E00E94FC0148
:1005100082E00E94500282E00E942E0281E00E944E
:10052000590114BA08950E947F0281E00E94590186
:1005300080E00E94710180E00E94DD0181E00E9464
:10054000650180E00E947D0180E00E94C50182E09B
:100550000E94930182E00E94A40182E00E94B40103
:1005600082E00E94D10182E00E941E0282E00C948F
:10057000610281E00E947D010E946A0380E00E9486
:100580007D010E946A030E947F028FEF9FEFDC01D2
:100590008093210390932203A0932303B093240319
:1005A00090932603809325030E94B0018093270334
:1005B0000E948E01809328030E94190280932903D0
:1005C0000E949F0180932A030E942A0280932B039A
:1005D0000E943A0280932C030E944B0280932D03C9
:1005E0000E94C00180932E030E945C0280932F031F
:1005F0000E94E901809330030E94F8018093310347
:100600000E9408028093320390913003911119C027
:1006100090913103992311F0811113C00E94AA0314
:10062000A0E0B0E08093210390932203A0932303E2
:10063000B09324030E94CD0390E09093260380930F
:10064000250380912E03882349F080911E03909109
:100650001F03019690931F0380931E0308958091BA
:100660002A03811180912E0308950E947F020C9429
:10067000B90280E00E94C50110921F0310921E0370
:100680000C943503CF93DF930E947F0280E00E9499
:10069000C50110921F0310921E030E946A03CAE054
:1006A000D0E00E9435032197E1F781E00E94C50167
:1006B0000E946A03DF91CF910C9435030E947F0260
:1006C00080E00E9461020E946A030E94B90282E0F7
:1006D0000C94610200000000000000000000000017
:1006E0000895EF92FF920F931F93CF93DF938C01A6
:1006F00081E00E94590181E00E94DD01CFE0D0E05D
:10070000EE24E394F12CC7010C2E02C0880F991F30
:100710000A94E2F780239123892B11F081E001C034
:1007200080E00E94710180E00E94DD0181E00E9472
:10073000DD01219740F780E00E94DD0181E00E9409
:10074000DD0180E0DF91CF911F910F91FF90EF903D
:100750000C9459010F931F93CF93DF9380E00E9475
:10076000650181E00E94650100E110E0C0E0D0E099
:10077000CC0FDD1F0E948901C82B80E00E94DD01A3
:1007800081E00E94DD010150110991F79C2F8D2F0E
:10079000DF91CF911F910F91089583B30895CF9367
:1007A000DF93EC010E942F03811128C00E946D028B
:1007B00081E00E94EC0181E00E940D0281E00E9434
:1007C000FC01CE010E9471030E946A0380E00E9436
:1007D000FC0180E00E94EC010E946A03C3B30E9406
:1007E0006A0381E00E94EC0181E00E94FC010E940A
:1007F0006A030E947F028C2F90E002C08FEF9FEF70
:10080000DF91CF910895EF92FF920F931F93CF93B3
:10081000DF93082FEB010E942F039E01339579018E
:10082000811111C00E946D0281E00E94EC0181E003
:100830000E940D0281E00E94FC0110E0102F0027B1
:100840000C1B1D0B07C0FE018FEF8193EE15FF05FA
:10085000E1F7E8CFC8018C0F9D1F0E9471030E9431
:100860006A0380E00E94EC0180E00E94FC010E948B
:100870006A0383B389930E946A0381E00E94EC01BA
:1008800081E00E94FC010E946A03CE15DF0511F78A
:10089000DF91CF911F910F91FF90EF900C947F0209
:1008A0001F93CF93DF93EC01162F0E942F0381112A
:1008B00032C00E946D0281E00E94EC0181E00E9442
:1008C0000D0281E00E94FC010E946A03CE010E9499
:1008D00071038FEF84BB15BB0E946A0380E00E9406
:1008E000EC0180E00E940D020E946A0381E00E94F8
:1008F000EC0181E00E940D020E946A03D7FD06C050
:1009000081E291EA0197F1F700C00000DF91CF91F9
:100910001F910C947F02DF91CF911F9108950E9447
:100920002F03882331F083EB90E00E94980080E051
:10093000089581E00895CF93DF93EC018BE50E9449
:100940008200CE010E94B60083ED90E00E949800E4
:10095000CE010E94CF03C82F0E94AB008BE193E031
:100960000E9498008C2FDF91CF91089580912003F1
:1009700081110BC081E190E00E94C80088ED90E0F9
:100980000E94980083E191E002C08FE591E00E940F
:10099000980084E691E00E94980080911E03909157
:1009A0001F030E94B6008AEA90E00E94980082E04D
:1009B00090E00E94C8008091210390912203A091B1
:1009C0002303B0912403B7FD03C00E94B60004C006
:1009D0008AE691E00E94980082E090E00E94C800C0
:1009E000809125039091260397FD0FC080913203DB
:1009F000811104C08FE691E00E9498008091250348
:100A00000E94AB008AEA90E002C08CE691E00E946E
:100A1000980084E090E00E94C800809127030E9423
:100A2000BF0083E090E00E94C800809128030E94EC
:100A3000BF0084E090E00E94C800809129030E94DA
:100A4000BF0085E090E00E94C80080912A030E94C8
:100A5000BF0085E090E00E94C80080912B030E94B7
:100A6000BF0083E090E00E94C80080912C030E94A8
:100A7000BF0083E090E00E94C80080912D030E9497
:100A8000BF0084E090E00E94C80080912E030E9485
:100A9000BF0086E090E00E94C80080912F030E9472
:100AA000BF0085E090E00E94C800809130030E9462
:100AB000BF0083E090E00E94C800809131030E9453
:100AC000BF0082E090E00E94C800809132030E9443
:100AD000BF008BE193E00E94980081E080932003A7
:100AE00008954F925F926F927F928F929F92AF92F2
:100AF000BF92CF92DF92EF92FF920F931F93CF930B
:100B0000DF93CDB7DEB7DA950FB6F894DEBF0FBE30
:100B1000CDBF0E948600482F50E0FA01E256F1094D
:100B2000E032F10508F038C1E65DFF4F0C94EB06AA
:100B300085E791E00E94980087E891E00E94980084
:100B400087E991E00E94980089EA91E00E9498006C
:100B500086EB91E00E9498008DEC91E00E94980055
:100B600084EE91E00E94980080E092E00E9498005C
:100B70008AE092E00E9498008FE192E00E94980043
:100B80008DE392E00E94980084E592E0B0C00E945C
:100B90008F04882309F406C185E692E00E9498003C
:100BA00084E090E00E94DC000E949B04FBC00E9455
:100BB0008F04882309F4F6C08FE692E00E94980023
:100BC00082E090E00E94DC002C01CE0101963C0105
:100BD000BC01842D0E94030488E090E00E94C800BC
:100BE0008FE792E00E949800552434E0440C551C95
:100BF0003A95E1F7630100E010E084E691E00E949D
:100C00009800C80124E0969587952A95E1F7840D10
:100C1000951D0E94B60087EB92E00E94980083E049
:100C200090E00E94C80046015801780190E1E90E69
:100C3000F11CAE14BF04A0F4F40181914F010E9495
:100C4000AB0080E20E948200C501801B910B0797D8
:100C500019F480E20E948200FFEFAF1ABF0AE9CFC9
:100C600082E090E00E94C8008601C80186199709B9
:100C70008E159F0558F4F80181918F0190EE980F21
:100C80009F3508F08EE20E948200EFCF8BE193E067
:100C90000E949800F0E1CF0ED11CE11481E0F8062B
:100CA00009F480C08701A9CF0E948F04882309F42A
:100CB00079C085E692E00E94980084E090E00E946E
:100CC000DC007C018DEB92E00E94980082E090E0D5
:100CD0000E94DC00182F682FC7010E945004C70132
:100CE0000E949B04181709F45DC084EC92E00E94F6
:100CF000980058C00E94390382EE92E0F8CF0E941B
:100D0000420386EF92E00E949800109220030E9416
:100D1000B6044AC00E945E038DE093E00E949800F2
:100D20000E94B6043FC00E943503F1CF0E942F03FA
:100D3000882311F081E001C080E00E9482000E94BF
:100D40008A007C0100E010E0E016F10659F10E94F3
:100D50008600682FC8010E94500480E00E94820033
:100D60000F5F1F4FF1CF0E942F03882311F081E006
:100D700001C080E00E9482000E948A007C0100E0A5
:100D800010E0E016F10671F0C8010E94CF030E9446
:100D900082000F5F1F4FF5CF982F9F7E933621F073
:100DA000893611F010922003D3950FB6F894DEBF68
:100DB0000FBECDBFDF91CF911F910F91FF90EF90AC
:100DC000DF90CF90BF90AF909F908F907F906F906B
:100DD0005F904F900895EE0FFF1F0590F491E02D66
:060DE0000994F894FFCF16
:100DE6001B5B324A1B5B480057656C636F6D652061
:100DF600746F205A38302D415720646562756767D5
:100E060065722E20547970652027682720666F72D8
:100E16002068656C702E0D0A001B5B33326D311B2A
:100E26005B306D001B5B33316D301B5B306D000832
:100E36002008005A383020697320696E20636F6E6F
:100E460074726F6C206F6620746865206275732EED
:100E56000D0A005D203D20002F2D205A3830206FCE
:100E6600757470757473202D2D5C20202F2D2D2DFB
:100E76002D2D205A383020696E70757473202D2DF3
:100E86002D2D2D5C20202F206D656D6F7279205CD5
:100E96000D0A004359434C452041444452204441E5
:100EA600544120204D3120494F52512048414C5445
:100EB60020425553414B20205741495420494E5416
:100EC600204E4D49205253455420425553524551C8
:100ED60020204D5245512052442057520D0A001BE6
:100EE6005B3141001B5B33356D002D2D2D2D001B15
:100EF6005B33316D00496E666F726D6174696F6E3A
:100F06003A0D0A202020001B5B33356D681B5B30D1
:100F16006D656C702020001B5B33356D731B5B3079
:100F26006D74617475730D0A004D656D6F72793A53
:100F36000D0A202020001B5B33356D721B5B306D64
:100F4600656164206D656D6F72792020001B5B33CF
:100F5600356D641B5B306D756D70206D656D6F72E0
:100F6600792020001B5B33356D771B5B306D777204
:100F760069746520746F206D656D6F72790D0A0056
:100F86005A38303A0D0A202020001B5B33356D702D
:100F96001B5B306D6F776572646F776E2020001B68
:100FA6005B33356D691B5B306D6E697469616C69A5
:100FB6007A6520287265736574292020001B5B33CF
:100FC600356D621B5B306D75732072657175657367
:100FD600742020001B5B33356D631B5B306D7963BA
:100FE6006C650D0A00416464726573733F2000509E
:100FF6006167652028307831303029203F20001B7A
:101006005B33356D5F30205F31205F32205F3320E8
:101016005F34205F35205F36205F3720205F382021
:101026005F39205F41205F42205F43205F44205F9D
:1010360045205F460D0A005F1B5B306D00446174FE
:10104600613F20001B5B33316D4461746120777210
:10105600697465206661696C65642E1B5B306D0D75
:101066000A005A383020706F776572656420646FA5
:10107600776E2E0D0A005A38302028726529696E5F
:10108600697469616C697A65642E0D0A004275732C
:0E109600207265717565737465642E0D0A0015
:00000001FF
