:100000000C942A000C943F000C943F000C943F0089
:100010000C943F000C943F000C943F000C943F0064
:100020000C943F000C943F000C943F000C943F0054
:100030000C943F000C943F000C943F000C943F0044
:100040000C943F000C943F000C943F000C943F0034
:100050000C943F0011241FBECFE5D4E0DEBFCDBF1E
:1000600010E0A0E6B0E0E2E2F1E002C005900D92FF
:10007000A836B107D9F70E9441000C948F000C9468
:1000800000000E944F0080E690E00E945B0081E04B
:100090000E9483000E947F000E946700FFCF10BC77
:1000A00089E189B986E880BD88E18AB908955D9BB8
:1000B000FECF8CB90895CF93DF93EC01899188230B
:1000C00019F00E945700FACFDF91CF910895CF9396
:1000D000C82F82958F708A3010F4805D01C0895CD2
:1000E0000E9457008C2F8F708A3010F4805D01C001
:1000F000895CCF910C945700C098B89808950E94DD
:100100007C0080E00895882329F0813031F4B89A8A
:10011000C09A0895B89AC09808950C947C00F894F9
:02012000FFCF0F
:080122001B5B324A1B5B480025
:00000001FF
