:100000000C946A000C948C030C9487000C94870069
:100010000C9487000C9487000C9487000C94870044
:100020000C9487000C9487000C9487000C94C703F1
:100030000C9487000C9487000C9487000C94870024
:100040000C9487000C9487000C9487000C94870014
:100050000C9487000D0A00494F525120726571754A
:1000600065737465642062792064657669636520D0
:1000700000292E0D0A004C61737420707265737331
:100080006564206B6579207265717565737465644C
:10009000202800207761732073656E7420746F20B0
:1000A00074686520646973706C61792E0D0A004371
:1000B00068617220002A2A205761726E696E672C6F
:1000C000203C20323030206279746573206672657E
:1000D000652E000011241FBECFE5D4E0DEBFCDBFEA
:1000E00020E0A0E6B0E001C01D92A138B207E1F720
:1000F00010E0A0E6B0E0ECE3F8E002C005900D925D
:10010000A036B107D9F70E9489000C941C040C9406
:1001100000000E9496000E9407020E9428030E948D
:1001200028030E941E030E947603FDCF10BC88E0C6
:1001300089B986E880BD88E18AB908955D9BFECFC4
:100140008CB908955F9BFECF8CB10895CF93DF9358
:10015000FC018491EF012196882321F00E949E00EA
:10016000FE01F7CFDF91CF91089584E590E00C94E4
:10017000A6008A3010F4805D01C0895C0C949E005A
:10018000CF93C82F82958F700E94B9008C2F8F70EB
:10019000CF910C94B900CF93DF9300D0CDB7DEB7E9
:1001A00020917D0030917E002115310511F421E868
:1001B00030E0CE010196821B930B0F900F90DF91E0
:1001C000CF910895882329F0813031F4B89AC09AEC
:1001D0000895B89AC0980895B8980895882329F08A
:1001E000813031F4B99AC19A0895B99AC1980895A5
:1001F000B9980895882329F0813031F4BA9AC29AC7
:100200000895BA9AC2980895BA980895882329F053
:10021000813031F4BB9AC39A0895BB9AC39808956C
:10022000BB98089586B386FB882780F9089580B32C
:1002300082FB882780F90895882329F0813031F4E2
:100240008A9A929A08958A9A929808958A98089517
:1002500080B383FB882780F90895882329F08130B3
:1002600031F48B9A939A08958B9A939808958B986A
:10027000089580B3829581700895882329F0813094
:1002800031F48C9A949A08958C9A949808958C9845
:10029000089580B385FB882780F90895882329F085
:1002A000813031F48D9A959A08958D9A9598089594
:1002B0008D980895882329F0813031F48E9A969A8A
:1002C00008958E9A969808958E980895882329F017
:1002D000813031F48F9A979A08958F9A979808955C
:1002E0008F98089589B381700895882329F081300B
:1002F00031F4D09AD89A0895D09AD8980895D09881
:10030000089589B3869581700895882329F08130F6
:1003100031F4D19AD99A0895D19AD9980895D1985B
:10032000089589B382FB882780F90895882329F0EE
:10033000813031F4D29ADA9A0895D29ADA980895EF
:10034000D298089589B383FB882780F9089588237C
:1003500029F0813031F4D39ADB9A0895D39ADB984F
:100360000895D398089589B382958170089588235C
:1003700029F0813031F4D49ADC9A0895D49ADC982B
:100380000895D498089589B385FB882780F9089546
:10039000882329F0813031F4D59ADD9A0895D59AD1
:1003A000DD980895D598089589B386FB882780F94C
:1003B0000895882329F0813031F4D69ADE9A089581
:1003C000D69ADE980895D698089589B3881F88270D
:1003D000881F0895882329F0813031F4D79ADF9A55
:1003E0000895D79ADF980895D798089582E00E94DB
:1003F000750182E00E94960182E00E94850182E000
:100400000E94B70181E00E94E20014BA08950E94A0
:10041000F60181E00E94E20080E00E94FA0080E0A4
:100420000E94660181E00E94EE0080E00E940601C9
:1004300080E00E944E0181E00E94EA0181E00E947A
:10044000D90182E00E941C0182E00E942D0182E01D
:100450000E943D0182E00E945A0182E00C94A701B3
:100460000E94F6018091600090916100A0E0B0E0F0
:100470008093670090936800A0936900B0936A002E
:100480008FEF9FEFDC0180936B0090936C00A09343
:100490006D00B0936E009093700080936F000E9487
:1004A0003901809371000E941701809372000E94AD
:1004B000A201809373000E942801809374000E941F
:1004C000B301809375000E94C301809376000E945F
:1004D000D401809377000E944901809378000E94A4
:1004E000E501809379000E94720180937A000E9456
:1004F000810180937B000E94910180937C00909108
:100500007B00992311F081111FC00E944D03A0E0D0
:10051000B0E080936B0090936C00A0936D00B0935B
:100520006E000E94700390E09093700080936F00C3
:1005300080917100811108C080916B0090916C00D6
:1005400090936400809363000895CF93DF9381E0DC
:100550000E9406010E94460380E00E9406010E945C
:100560004603C09172000E943002CC2309F44BC0B4
:100570000E941701811147C00E944D03EC01992789
:100580000097E1F48FEA90E00E94A6008D2F0E9470
:10059000C0008D2F80528F3560F480E20E949E0053
:1005A00087E20E949E008D2F0E949E0087E20E949B
:1005B0009E0083E990E00E94A60025C00197D1F437
:1005C00086E790E00E94A600809162000E94C00031
:1005D00081E790E00E94A600809162000E94720371
:1005E0000E94A5028091620090E090937000809339
:1005F0006F0009C087E590E00E94A6008C2F0E9442
:10060000C0000E94B50080917800882349F0809155
:10061000600090916100019690936100809360006A
:10062000DF91CF910895CF93C82F0E94F60181E00A
:100630008C270E94EA01CF910C94A50280E00E94D1
:100640004E01109261001092600080E00C94130340
:10065000CF93DF930E94F60180E00E944E0110923A
:100660006100109260000E944603C2E3D0E080E087
:100670000E9413032197D9F781E00E944E010E9446
:10068000460380E0DF91CF910C941303000000003B
:10069000000000000000000008950F931F93CF9307
:1006A000DF9380E00E94EE0081E00E94EE0000E116
:1006B00010E0C0E0D0E0CC0FDD1F0E941201C82B7B
:1006C00080E00E94660181E00E94660101501109EC
:1006D00091F79C2F8D2FDF91CF911F910F9108954E
:1006E00083B308959FEF94BB85BB0895CF930E9479
:1006F000A200C82F0E94CB00883C910520F485EB16
:1007000090E00E94A600C33729F0C256C23010F014
:1007100010926500CF9108951F920F920FB60F921D
:1007200011242F933F934F935F936F937F938F93F6
:100730009F93AF93BF93EF93FF93F8940E944D0361
:100740009C0133272115310521F4892F0E949E0039
:100750000BC02130310541F4809166000E94720384
:100760008BE088BB83E088BB789414BAFF91EF914B
:10077000BF91AF919F918F917F916F915F914F91B9
:100780003F912F910F900FBE0F901F9018951F92C1
:100790000F920FB60F9211240F931F932F933F9335
:1007A0004F935F936F937F938F939F93AF93BF9379
:1007B000CF93DF93EF93FF93F8940E94A20080936E
:1007C000660080E00E94C80181E00E94EA01CFE05B
:1007D000D0E01BE003E018BB08BB0E941701882390
:1007E00031F02197C1F781E00E94C8010EC081E07D
:1007F0000E94C801DBE0C3E08FEC0E947203D8BB0B
:10080000C8BB0E9417018823B9F3789414BAFF91EA
:10081000EF91DF91CF91BF91AF919F918F917F9198
:100820006F915F914F913F912F911F910F910F9079
:0C0830000FBE0F901F901895F894FFCF9A
:00000001FF
