:100000000C94C5010C94E2010C94E2010C94E20101
:100010000C94E2010C94E2010C94E2010C94E201D4
:100020000C94E2010C94E2010C94E2010C94E201C4
:100030000C94E2010C94E2010C94E2010C94E201B4
:100040000C94E2010C94E2010C94E2010C94E201A4
:100050000C94E20170087908BB07C9086D08C9084B
:1000600076076208C908C908C908C908C908C908C3
:100070005B08C908AB076A08C908C908C908360877
:10008000C908C908C908C908C908C908C908C908E8
:100090007C089B08B40857656C636F6D6520746FAE
:1000A000205A38302D415720646562756767657244
:1000B0002E20547970652027682720666F7220688B
:1000C000656C702E001B5B324A1B5B48000D0A00FA
:1000D000082008001B5B33316D301B5B306D001B4B
:1000E0005B33326D311B5B306D003C30000D0A001C
:1000F0002D2D001B5B306D001B5B33316D002D2DF2
:100100002D2D001B5B306D001B5B33356D001B5BC1
:100110003141004359434C4520414444522044411D
:10012000544120204D3120494F52512048414C54D8
:1001300020425553414B20205741495420494E54A9
:10014000204E4D492052534554204255535245515B
:1001500020204D524551205244205752002F2D202F
:100160005A3830206F757470757473202D2D5C2093
:10017000202F2D2D2D2D2D205A383020696E707591
:100180007473202D2D2D2D2D5C20202F206D656D5D
:100190006F7279205C005A38302028726529696EA8
:1001A000697469616C697A65642E005A3830207010
:1001B0006F776572656420646F776E2E001B5B330A
:1001C000316D44617461207772697465206661697C
:1001D0006C65642E1B5B306D00446174613F2000D0
:1001E000416464726573733F20005F1B5B306D0078
:1001F0001B5B33356D001B5B33356D5F30205F312A
:10020000205F32205F33205F34205F35205F36204F
:100210005F3720205F38205F39205F41205F422018
:100220005F43205F44205F45205F46005061676563
:100230002028307831303029203F20005D203D20BB
:10024000005A383020697320696E20636F6E7472B3
:100250006F6C206F6620746865206275732E004194
:100260006464726573733F20001B5B33356D631BE1
:100270005B306D79636C650D0A001B5B33356D6215
:100280001B5B306D7573207265717565737420200A
:10029000001B5B33356D691B5B306D6E6974696182
:1002A0006C697A6520287265736574292020001BAB
:1002B0005B33356D701B5B306D6F776572646F7784
:1002C0006E2020005A38303A0D0A202020001B5B97
:1002D00033356D771B5B306D7269746520746F20E8
:1002E0006D656D6F72790D0A001B5B33356D641B94
:1002F0005B306D756D70206D656D6F7279202000BB
:100300001B5B33356D721B5B306D656164206D6501
:100310006D6F72792020004D656D6F72793A0D0A0C
:10032000202020001B5B33356D661B5B306D7265D2
:10033000652052414D2028636F6E74726F6C6C653E
:1003400072290D0A001B5B33356D731B5B306D74B6
:1003500061747573202020001B5B33356D681B5B57
:10036000306D656C70202000496E666F726D61742F
:10037000696F6E3A0D0A2020200042757320726565
:10038000717565737465642E000011241FBECFE57E
:10039000D4E0DEBFCDBF20E0A0E6B0E001C01D92FA
:1003A000A937B207E1F710E0A0E6B0E0E0E3F2E140
:1003B00002C005900D92A036B107D9F70E94E40162
:1003C0000C9416090C9400000E94F5010E943B0455
:1003D0000E94DD0485EC90E00E94130286E990E023
:1003E0000E9426020E944F07FDCF10BC88E089B909
:1003F00086E880BD88E18AB908955D9BFECF8CB9FF
:1004000008955F9BFECF8CB10895CF93DF930E9438
:100410000102C82FD0E00E9401029E01382BC901C1
:10042000DF91CF910895CF93DF93FC018491EF0189
:100430002196882321F00E94FD01FE01F7CFDF9174
:10044000CF9108958DEE90E00C9413020E94130258
:100450000C942202CF93DF93EC0197FF05C08AEE44
:1004600090E00E94130212C08A3091057CF06AE08D
:1004700070E00E94E80826EF2603C001279F900D38
:100480001124C80FD91FCB010E942A028C2F805D36
:10049000DF91CF910C94FD018A3010F4805D01C092
:1004A000895C0C94FD01CF93C82F82958F700E94B8
:1004B0004C028C2F8F70CF910C944C02CF93C82F8D
:1004C000892F0E9453028C2FCF910C9453028823C2
:1004D00019F08FED90E002C084ED90E00C941302CF
:1004E0000F931F93CF93DF938C01C0E0D0E0C01730
:1004F000D1072CF480E20E94FD012196F8CFDF9114
:10050000CF911F910F910895CF92DF92EF92FF92BA
:100510000F931F93CF93DF93CDB7DEB729970FB615
:10052000F894DEBF0FBECDBF6C01CE0101967C01F9
:1005300089E0F70111928A95E9F700E00E94010233
:10054000182F8A3059F18D3049F1802F90E08C15A9
:100550009D05A0F420ED210F2A3040F0212F2F7DA2
:100560002154263058F4113608F010520F5FF7016D
:10057000E80FF91F1083812F0E94FD01183011F040
:100580001F37E1F60023D1F20150F701E00FF11D12
:10059000108280ED90E00E941302D0CF8DEC90E0AD
:1005A0000E94130220E030E080E0F701E80FF11D27
:1005B00090819923B1F0A90124E0440F551F2A9599
:1005C000E1F760ED690F292F990F330B6A3018F4AA
:1005D0002053310902C027533109242B352B8F5F5B
:1005E000E4CFC90129960FB6F894DEBF0FBECDBF88
:1005F000DF91CF911F910F91FF90EF90DF90CF90FF
:100600000895882329F0813031F4B89AC09A08956A
:10061000B89AC0980895B8980895882329F0813031
:1006200031F4B99AC19A0895B99AC1980895B998C0
:100630000895882329F0813031F4BA9AC29A089536
:10064000BA9AC2980895BA980895882329F08130FB
:1006500031F4BB9AC39A0895BB9AC3980895BB9886
:10066000089586B386FB882780F9089580B382FBBE
:10067000882780F90895882329F0813031F48A9AF7
:10068000929A08958A9A929808958A98089580B3C4
:1006900083FB882780F90895882329F0813031F47D
:1006A0008B9A939A08958B9A939808958B980895AE
:1006B00080B3829581700895882329F0813031F4C8
:1006C0008C9A949A08958C9A949808958C98089589
:1006D00080B385FB882780F90895882329F081302D
:1006E00031F48D9A959A08958D9A959808958D98DC
:1006F0000895882329F0813031F48E9A969A0895CE
:100700008E9A969808958E980895882329F08130BE
:1007100031F48F9A979A08958F9A979808958F98A1
:10072000089589B381700895882329F0813031F4C8
:10073000D09AD89A0895D09AD8980895D0980895C4
:1007400089B3869581700895882329F0813031F42A
:10075000D19AD99A0895D19AD9980895D19808959F
:1007600089B382FB882780F90895882329F0813096
:1007700031F4D29ADA9A0895D29ADA980895D298F2
:10078000089589B383FB882780F90895882329F089
:10079000813031F4D39ADB9A0895D39ADB98089587
:1007A000D398089589B3829581700895882329F09C
:1007B000813031F4D49ADC9A0895D49ADC98089563
:1007C000D498089589B385FB882780F908958823F4
:1007D00029F0813031F4D59ADD9A0895D59ADD98C3
:1007E0000895D598089589B386FB882780F90895E0
:1007F000882329F0813031F4D69ADE9A0895D69A6A
:10080000DE980895D698089589B3881F8827881F91
:100810000895882329F0813031F4D79ADF9A08951A
:10082000D79ADF980895D798089581E00E9494039D
:1008300081E00E94B50381E00E94A40381E00E9450
:10084000E70381E00E94F80381E00C94D60382E084
:100850000E94940382E00E94B50382E00E94A403F8
:1008600082E00E94F80382E00E94D60381E00E94A9
:10087000010314BA08950E94270481E00E94010335
:1008800080E00E94190380E00E94850381E00E94BD
:100890000D0380E00E94250380E00E946D0382E04A
:1008A0000E943B0382E00E944C0382E00E945C03B2
:1008B00082E00E94790382E00E94C60382E00C94E9
:1008C000090481E00E9425030E94120580E00E9435
:1008D00025030E9412050E9427048FEF9FEFDC0181
:1008E0008093630090936400A0936500B0936600CA
:1008F00090936800809367000E945803809369007A
:100900000E94360380936A000E94C10380936B00AB
:100910000E94470380936C000E94D20380936D0075
:100920000E94E20380936E000E94F30380936F00A5
:100930000E946803809370000E94040480937100F9
:100940000E949103809372000E94A0038093730021
:100950000E94B0038093740090917200911119C0AD
:1009600090917300992311F0811113C00E945205D8
:10097000A0E0B0E08093630090936400A0936500D2
:10098000B09366000E94750590E090936800809394
:10099000670080917000882349F0809160009091F9
:1009A00061000196909361008093600008958091AA
:1009B0006C0081118091700008950E9427040C94AE
:1009C000610480E00E946D0310926100109260004B
:1009D0000C94DD04CF93DF930E94270480E00E94F3
:1009E0006D0310926100109260000E941205CAE02F
:1009F000D0E00E94DD042197E1F781E00E946D03C1
:100A00000E941205DF91CF910C94DD040E9427040F
:100A100080E00E9409040E9412050E94610482E0A5
:100A20000C94090400000000000000000000000019
:100A30000895EF92FF920F931F93CF93DF938C0152
:100A400081E00E94010381E00E948503CFE0D0E0B5
:100A5000EE24E394F12CC7010C2E02C0880F991FDD
:100A60000A94E2F780239123892B11F081E001C0E1
:100A700080E00E94190380E00E94850381E00E94CB
:100A80008503219740F780E00E94850381E00E9462
:100A9000850380E0DF91CF911F910F91FF90EF9040
:100AA0000C9401030F931F93CF93DF9380E00E9478
:100AB0000D0381E00E940D0300E110E0C0E0D0E0F2
:100AC000CC0FDD1F0E943103C82B80E00E948503FC
:100AD00081E00E9485030150110991F79C2F8D2F11
:100AE000DF91CF911F910F91089583B30895CF9314
:100AF000DF93EC010E94D704811128C00E941504E5
:100B000081E00E94940381E00E94B50381E00E948D
:100B1000A403CE010E9419050E94120580E00E94E4
:100B2000A40380E00E9494030E941205C3B30E94B4
:100B3000120581E00E94940381E00E94A4030E94B8
:100B400012050E9427048C2F90E002C08FEF9FEFC8
:100B5000DF91CF910895EF92FF920F931F93CF9360
:100B6000DF93082FEB010E94D7049E013395790192
:100B7000811111C00E94150481E00E94940381E05C
:100B80000E94B50381E00E94A40310E0102F00270B
:100B90000C1B1D0B07C0FE018FEF8193EE15FF05A7
:100BA000E1F7E8CFC8018C0F9D1F0E9419050E9434
:100BB000120580E00E94940380E00E94A4030E943A
:100BC000120583B389930E94120581E00E94940369
:100BD00081E00E94A4030E941205CE15DF0511F7E3
:100BE000DF91CF911F910F91FF90EF900C9427040C
:100BF0000F931F93CF93DF938C01C62FD42F0E94A6
:100C0000D70481114CC00E94150481E00E94940316
:100C100081E00E94B50381E00E94A4030E941205B6
:100C2000C8010E9419058FEF84BBC5BB0E94120545
:100C300080E00E94940380E00E94B5030E941205A8
:100C400081E00E94940381E00E94B5030E94120596
:100C500017FD1FC0DD23B9F014BA80E00E94A40381
:100C600080E00E9494030E94120513B30E941205B3
:100C7000C113F3CF81E00E94940381E00E94A4039A
:100C80000E94120506C08BE591EC0197F1F700C0B8
:100C90000000DF91CF911F910F910C942704DF91F9
:100CA000CF911F910F9108950E94D704882331F0AE
:100CB00081E492E00E94260280E0089581E0089598
:100CC000CF93DF93EC018BE50E94FD01CE010E94E2
:100CD0005E028CE392E00E941302CE010E9477052F
:100CE000C82F0E9453020E9422028C2FDF91CF91C5
:100CF00008958091620081110DC081E190E00E9411
:100D000070028DE591E00E94260283E191E00E944D
:100D1000260204C08EE091E00E94130288E091E078
:100D20000E94130280916000909161000E945E0217
:100D300083E091E00E94130282E090E00E94700242
:100D40008091630090916400A0916500B09166006D
:100D5000B7FD03C00E945E0204C08EEF90E00E94C7
:100D6000130282E090E00E947002809167009091EF
:100D7000680097FD0FC080917400811104C088EF56
:100D800090E00E941302809167000E94530283EF5B
:100D900090E002C080EF90E00E94130284E090E0B7
:100DA0000E947002809169000E94670283E090E0D7
:100DB0000E94700280916A000E94670284E090E0C5
:100DC0000E94700280916B000E94670285E090E0B3
:100DD0000E94700280916C000E94670285E090E0A2
:100DE0000E94700280916D000E94670283E090E093
:100DF0000E94700280916E000E94670283E090E082
:100E00000E94700280916F000E94670284E090E06F
:100E10000E947002809170000E94670286E090E05C
:100E20000E947002809171000E94670285E090E04C
:100E30000E947002809172000E94670283E090E03D
:100E40000E947002809173000E94670282E090E02D
:100E50000E947002809174000E9467020E94220228
:100E600081E0809362000895CF93DF9300D0CDB7E7
:100E7000DEB720917500309176002115310511F40F
:100E800029E730E0CE010196821B930B0E942A02D3
:100E90000E9422020F900F90DF91CF9108954F9200
:100EA0005F926F927F928F929F92AF92BF92CF92FA
:100EB000DF92EF92FF920F931F93CF93DF93CDB703
:100EC000DEB7DA950FB6F894DEBF0FBECDBF0E9435
:100ED0000102482F50E0FA01E256F109E132F10532
:100EE00008F057C1E65DFF4F0C94FC0888E693E0DC
:100EF0000E94130288E593E00E94130285E493E0C8
:100F00000E94130284E293E00E94130287E193E0BF
:100F10000E94130280E093E00E94130289EE92E0A7
:100F20000E9413028EEC92E00E94130284EC92E085
:100F30000E9413028FEA92E00E94130281E992E07C
:100F40000E9413028AE792E00E94130289E692E06F
:100F50000E94130224C10E945406882309F41FC171
:100F60008FE592E00E94130284E090E00E948402E8
:100F70000E94600614C10E945406882309F40FC120
:100F80008CE292E00E94130282E090E00E948402D0
:100F90002C01CE0101963C01BC01842D0E94AB05C1
:100FA00088E090E00E94700286EF91E00E942602A5
:100FB000552434E0440C551C3A95E1F7630100E0F8
:100FC00010E080EF91E00E941302C80124E09695A2
:100FD00087952A95E1F7840D951D0E945E028AEEA1
:100FE00091E00E94130283E090E00E9470024601AB
:100FF0005801780190E1E90EF11CAE14BF04A0F491
:10100000F40181914F010E94530280E20E94FD0190
:10101000C501801B910B079719F480E20E94FD0126
:10102000FFEFAF1ABF0AE9CF82E090E00E947002A2
:101030008601C801861997098E159F0558F4F80195
:1010400081918F0190EE980F9F3508F08EE20E94FB
:10105000FD01EFCF0E942202F0E1CF0ED11CE1147E
:1010600081E0F80609F49BC08701ABCF0E945406CB
:10107000882309F494C080EE91E00E94130284E07A
:1010800090E00E9484027C0189ED91E00E941302AD
:1010900082E090E00E948402182F41E0682FC7018F
:1010A0000E94F805C7010E946006181709F477C06E
:1010B0008DEB91E004C00E94E1048BEA91E00E9474
:1010C00026026DC00E94EA0486E991E00E94260291
:1010D000109262000E94790664C00E9434075FC0CB
:1010E0000E9406058AE793E00E9426020E94790684
:1010F00056C00E94DD04EECF0E94D704882311F071
:1011000081E001C080E00E94FD010E9405027C0197
:1011100000E010E0E016F10609F441C00E9401026F
:1011200040E0682FC8010E94F80580E00E94FD01A0
:101130000F5F1F4FEFCF0E94D704882311F081E08B
:1011400001C080E00E94FD010E9405027C0100E0D8
:1011500010E0E016F10619F1C8010E9477050E941F
:10116000FD010F5F1F4FF5CF0E9405028C010E9409
:101170000102F82E0E94D704882311F081E006C0F6
:1011800041E06F2DC8010E94F80580E00E94FD013A
:1011900006C0982F9F7E933621F0893611F0109269
:1011A0006200D3950FB6F894DEBF0FBECDBFDF91BE
:1011B000CF911F910F91FF90EF90DF90CF90BF9054
:1011C000AF909F908F907F906F905F904F90089519
:1011D00097FB072E16F4009407D077FD09D00E94E4
:1011E000020907FC05D03EF4909581959F4F089524
:1011F000709561957F4F0895EE0FFF1F0590F49154
:10120000E02D0994AA1BBB1B51E107C0AA1FBB1FFD
:10121000A617B70710F0A61BB70B881F991F5A9582
:10122000A9F780959095BC01CD010895F894FFCF62
:00000001FF
