:100000000C942A000C9447000C9447000C94470071
:100010000C9447000C9447000C9447000C94470044
:100020000C9447000C9447000C9447000C94470034
:100030000C9447000C9447000C9447000C94470024
:100040000C9447000C9447000C9447000C94470014
:100050000C94470011241FBECFE5D4E0DEBFCDBF16
:1000600011E0A0E6B0E0E2E9F6E002C005900D92F2
:10007000AC39B107D9F721E0ACE9B1E001C01D927C
:10008000A03BB207E1F70E9449000C9447030C948F
:1000900000000E945E000E94CC010E94F20180E6F6
:1000A00090E00E946E0088E690E00E946E000E9440
:1000B0001C010E947A000E942003FDCF10BC89E140
:1000C00089B986E880BD88E18AB908955D9BFECF35
:1000D0008CB908955F9BFECF8CB10895CF93DF93C9
:1000E000EC018991882319F00E946600FACFDF9114
:1000F000CF910895CF93C82F82958F708A3010F4D6
:10010000805D01C0895C0E9466008C2F8F708A30F0
:1001100010F4805D01C0895CCF910C946600CF9390
:10012000C82F892F0E947A008C2FCF910C947A00CF
:10013000882319F089E990E002C084EA90E00C94E9
:100140006E000F931F93CF93DF938C01C0E0D0E03C
:10015000C017D1072CF480E20E9466002196F8CFE8
:10016000DF91CF911F910F910895882329F081305D
:1001700031F4B89AC09A0895B89AC0980895B8987A
:100180000895882329F0813031F4B99AC19A0895ED
:10019000B99AC1980895B9980895882329F08130B3
:1001A00031F4BA9AC29A0895BA9AC2980895BA9840
:1001B0000895882329F0813031F4BB9AC39A0895B9
:1001C000BB9AC3980895BB98089586B386FB882789
:1001D00080F9089580B382FB882780F908958823E9
:1001E00029F0813031F48A9A929A08958A9A9298E5
:1001F00008958A98089580B383FB882780F908952D
:10020000882329F0813031F48B9A939A08958B9A40
:10021000939808958B98089580B38295817008957E
:10022000882329F0813031F48C9A949A08958C9A1D
:10023000949808958C98089580B385FB882780F959
:100240000895882329F0813031F48D9A959A089584
:100250008D9A959808958D980895882329F0813076
:1002600031F48E9A969A08958E9A969808958E985B
:100270000895882329F0813031F48F9A979A089550
:100280008F9A979808958F98089589B381700895EB
:10029000882329F0813031F4D09AD89A0895D09AE1
:1002A000D8980895D098089589B386958170089557
:1002B000882329F0813031F4D19AD99A0895D19ABE
:1002C000D9980895D198089589B382FB882780F939
:1002D0000895882329F0813031F4D29ADA9A08956A
:1002E000D29ADA980895D298089589B383FB882723
:1002F00080F90895882329F0813031F4D39ADB9A6C
:100300000895D39ADB980895D398089589B3829578
:1003100081700895882329F0813031F4D49ADC9AD1
:100320000895D49ADC980895D498089589B385FBEC
:10033000882780F9089589B386FB882780F9089576
:10034000882329F0813031F4D69ADE9A0895D69A1E
:10035000DE980895D698089589B3881F8827881F46
:100360000895882329F0813031F4D79ADF9A0895CF
:10037000D79ADF980895D798089582E00E9448019F
:1003800082E00E94690182E00E94580182E00E949E
:10039000A00182E00C948A010E94BD0181E00E94CC
:1003A000B50080E00E94C10081E00E94390181E037
:1003B0000E94CD0080E00E94D90080E00E942101CF
:1003C00082E00E94EF0082E00E94000182E00E9431
:1003D000100182E00E942D0182E00E947A0182E0F9
:1003E0000C94B10181E00E94D9000E94670280E074
:1003F0000E94D9000E9467020E94BD018FEF9FEF0B
:100400009093A1018093A0019093A3018093A201F6
:100410000E940C018093A4010E94EA008093A50130
:100420000E9475018093A6010E94FB008093A701A2
:100430000E9486018093A8010E9496018093A901E1
:100440000E949B018093AA010E941C018093AB0132
:100450000E94AC018093AC010E9445018093AD01E4
:100460000E9454018093AE010E9464018093AF0109
:100470009091AD01911113C09091AE01992311F0AB
:1004800081110DC00E946E029093A1018093A00182
:100490000E94910290E09093A3018093A201809129
:1004A000AB01882399F080919C0190919D01A091CE
:1004B0009E01B0919F010196A11DB11D80939C01E9
:1004C00090939D01A0939E01B0939F0108958CE1AC
:1004D00090E10197F1F700C0000008950F931F937A
:1004E000CF93DF9381E00E94CD0080E00E94CD0099
:1004F00000E110E0C0E0D0E0CC0FDD1F0E94E5007D
:10050000C82B80E00E94390181E00E94390101502E
:10051000110991F79C2F8D2FDF91CF911F910F9192
:10052000089514BA83B3089583EB90E00E946E009F
:1005300089EF90E00E946E008091A0019091A1014E
:10054000181619061CF40E948F0004C08FE391E076
:100550000E946E0082E090E00E94A1008091A201C2
:100560009091A301181619061CF40E947A0004C089
:1005700081E491E00E946E0084E090E00E94A1007E
:100580008091A4010E94980083E090E00E94A10065
:100590008091A5010E94980084E090E00E94A10053
:1005A0008091A6010E94980085E090E00E94A10041
:1005B0008091A7010E94980085E090E00E94A10030
:1005C0008091A8010E94980083E090E00E94A10021
:1005D0008091A9010E94980083E090E00E94A10010
:1005E0008091AA010E94980084E090E00E94A100FE
:1005F0008091AB010E94980086E090E00E94A100EB
:100600008091AC010E94980085E090E00E94A100DA
:100610008091AD010E94980083E090E00E94A100CB
:100620008091AE010E94980082E090E00E94A100BB
:100630008091AF010E94980082E791E00C946E00D7
:10064000CF9384E491E00E946E000E946A00C82F5C
:100650008FED8C0F8E3518F48C2F0E94660082E788
:1006600091E00E946E00C83639F0C33741F0C336BE
:1006700049F40E94F20103C08BE491E005C0CF91E0
:100680000C94940285E791E0CF910C946E00F8945D
:02069000FFCF9A
:100692001B5B324A1B5B480057656C636F6D6520BC
:1006A200746F205A38302D41572064656275676730
:1006B20065722E20547970652027682720666F7234
:1006C2002068656C702E0D0A001B5B33326D311B86
:1006D2005B306D001B5B33316D301B5B306D00088E
:1006E20020080020202020202020202020202F2D24
:1006F200205A3830206F757470757473202D2D5CFC
:1007020020202F2D2D2D2D2D205A383020696E704E
:10071200757473202D2D2D2D2D5C20202F206D65BD
:100722006D6F7279205C0D0A0041444452204441AD
:10073200544120204D3120494F52512048414C54C0
:1007420020425553414B20205741495420494E5491
:10075200204E4D4920525345542042555352455143
:1007620020204D5245512052442057520D0A002D4F
:100772002D2D2D00287A383029200048656C7020F4
:100782006E6F7420696D706C656D656E7465642042
:100792007965742E2053656520607265706C2E63D6
:1007A200602E0D0A00496E76616C696420636F6D7C
:1007B2006D616E642E20547970652027682720664B
:0C07C2006F722068656C702E0D0A00003C
:00000001FF
