:100000000C9484000C9497030C94A1000C94A10010
:100010000C94A1000C94A1000C94A1000C94A100DC
:100020000C94A1000C94A1000C94A1000C94D20398
:100030000C94A1000C94A1000C94A1000C94A100BC
:100040000C94A1000C94A1000C94A1000C94A100AC
:100050000C94A10057656C636F6D6520746F205A16
:1000600038302D41572064656275676765722E20B0
:10007000547970652027682720666F722068656C48
:10008000702E001B5B324A1B5B48000D0A00494F73
:1000900052512072657175657374656420627920B0
:1000A00064657669636520004C61737420707265C5
:1000B00073736564206B65792072657175657374FF
:1000C00065642E0D0A00207761732073656E7420BD
:1000D000746F2074686520646973706C61792E0D8B
:1000E0000A004368617220005A38302D415720635E
:1000F0006F6D707574657220696E697469616C6981
:100100007A65642E0D0A000011241FBECFE5D4E0ED
:10011000DEBFCDBF10E0A0E6B0E0E2E5F8E002C04F
:1001200005900D92A036B107D9F720E0A0E6B0E027
:1001300001C01D92AC37B207E1F70E94A3000C94F6
:1001400027040C9400000E94BA000E9418020E942A
:1001500031030E9431030E94270383E890E00E944C
:10016000CA0084E590E00E94DD000E947F0380E0E9
:1001700090E0089510BC88E089B986E880BD88E1E8
:100180008AB908955D9BFECF8CB908955F9BFECF21
:100190008CB10895CF93DF93FC018491EF012196F8
:1001A000882321F00E94C200FE01F7CFDF91CF919A
:1001B00008958BE890E00C94CA000E94CA000C9449
:1001C000D9008A3010F4805D01C0895C0C94C200B3
:1001D000CF93C82F82958F700E94E1008C2F8F7073
:1001E000CF910C94E100882329F0813031F4B89A42
:1001F000C09A0895B89AC0980895B8980895882329
:1002000029F0813031F4B99AC19A0895B99AC19808
:100210000895B9980895882329F0813031F4BA9A65
:10022000C29A0895BA9AC2980895BA9808958823F0
:1002300029F0813031F4BB9AC39A0895BB9AC398D0
:100240000895BB98089586B386FB882780F90895A2
:1002500080B382FB882780F90895882329F08130B4
:1002600031F48A9A929A08958A9A929808958A986F
:10027000089580B383FB882780F90895882329F0A7
:10028000813031F48B9A939A08958B9A93980895BC
:100290008B98089580B3829581700895882329F002
:1002A000813031F48C9A949A08958C9A9498089598
:1002B0008C98089580B385FB882780F9089588235A
:1002C00029F0813031F48D9A959A08958D9A9598F8
:1002D00008958D980895882329F0813031F48E9AFD
:1002E000969A08958E9A969808958E9808958823E0
:1002F00029F0813031F48F9A979A08958F9A9798C0
:1003000008958F98089589B381700895882329F0FE
:10031000813031F4D09AD89A0895D09AD898089517
:10032000D098089589B3869581700895882329F01F
:10033000813031F4D19AD99A0895D19AD9980895F3
:10034000D198089589B382FB882780F9089588237E
:1003500029F0813031F4D29ADA9A0895D29ADA9853
:100360000895D298089589B383FB882780F908956A
:10037000882329F0813031F4D39ADB9A0895D39AF7
:10038000DB980895D398089589B382958170089574
:10039000882329F0813031F4D49ADC9A0895D49AD4
:1003A000DC980895D498089589B385FB882780F94F
:1003B0000895882329F0813031F4D59ADD9A089583
:1003C000D59ADD980895D598089589B386FB882736
:1003D00080F90895882329F0813031F4D69ADE9A85
:1003E0000895D69ADE980895D698089589B3881FFF
:1003F0008827881F0895882329F0813031F4D79AFF
:10040000DF9A0895D79ADF980895D798089582E0E3
:100410000E94860182E00E94A70182E00E9496016C
:1004200082E00E94C80181E00E94F30014BA08959E
:100430000E94070281E00E94F30080E00E940B010D
:1004400080E00E94770181E00E94FF0080E00E942E
:10045000170180E00E945F0181E00E94FB0181E0C2
:100460000E94EA0182E00E942D0182E00E943E018A
:1004700082E00E944E0182E00E946B0182E00C94B7
:10048000B8010E9407028091600090916100A0E095
:10049000B0E08093660090936700A0936800B093EB
:1004A00069008FEF9FEFDC0180936A0090936B00EF
:1004B000A0936C00B0936D0090936F0080936E00DA
:1004C0000E944A01809370000E942801809371006D
:1004D0000E94B301809372000E94390180937300DF
:1004E0000E94C401809374000E94D401809375001F
:1004F0000E94E501809376000E945A018093770064
:100500000E94F601809378000E9483018093790015
:100510000E94920180937A000E94A20180937B0046
:1005200090917A00992311F081111FC00E94560307
:10053000A0E0B0E080936A0090936B00A0936C0001
:10054000B0936D000E94790390E090936F008093C8
:100550006E0080917000811108C080916A009091B6
:100560006B0090936400809363000895CF93DF93B2
:1005700081E00E9417010E944F0380E00E94170152
:100580000E944F03C09171000E944102CC2309F4E4
:1005900043C00E94280181113FC00E945603EC0114
:1005A00099270097E1F482EE90E00E94CA008D2F17
:1005B0000E94E8008D2F80528F3560F480E20E9407
:1005C000C20087E20E94C2008D2F0E94C20087E213
:1005D0000E94C20086EC90E00E94CA001DC00197F4
:1005E00091F488EA90E00E94CA00809162000E9423
:1005F0007B030E94B6028091620090E090936F00AE
:1006000080936E0009C08EE890E00E94CA008C2F93
:100610000E94E8000E94D90080917700882349F069
:1006200080916000909161000196909361008093A9
:100630006000DF91CF910895CF93C82F0E940702E9
:1006400081E08C270E94FB01CF910C94B60280E0E0
:100650000E945F01109261001092600080E00C9493
:100660001C03CF93DF930E94070280E00E945F018A
:1006700010926100109260000E944F03C2E3D0E02C
:1006800080E00E941C032197D9F781E00E945F015E
:100690000E944F0380E0DF91CF910C941C03000077
:1006A0000000000000000000000008950F931F9359
:1006B000CF93DF9380E00E94FF0081E00E94FF0063
:1006C00000E110E0C0E0D0E0CC0FDD1F0E9423016C
:1006D000C82B80E00E94770181E00E9477010150E1
:1006E000110991F79C2F8D2FDF91CF911F910F91C1
:1006F000089583B308959FEF94BB85BB08958AB195
:1007000080698AB98BB780648BBF85B78E7F85BFC0
:1007100085B7826085BF789488EE90E00E94DD0006
:100720000E9431039BE083E098BB88BBFDCF1F9202
:100730000F920FB60F9211242F933F934F935F9315
:100740006F937F938F939F93AF93BF93EF93FF9399
:10075000F8940E9456039C0133272115310521F49A
:10076000892F0E94C2000BC02130310541F48091D5
:1007700065000E947B038BE088BB83E088BB789494
:1007800014BAFF91EF91BF91AF919F918F917F919B
:100790006F915F914F913F912F910F900FBE0F90EE
:1007A0001F9018951F920F920FB60F9211240F935E
:1007B0001F932F933F934F935F936F937F938F93E9
:1007C0009F93AF93BF93CF93DF93EF93FF93F894EF
:1007D0000E94C6008093650080E00E94D90181E0FC
:1007E0000E94FB01CFE0D0E01BE003E018BB08BB98
:1007F0000E942801882331F02197C1F781E00E94EF
:10080000D9010EC081E00E94D901DBE0C3E08FEC8A
:100810000E947B03D8BBC8BB0E9428018823B9F380
:10082000789414BAFF91EF91DF91CF91BF91AF917E
:100830009F918F917F916F915F914F913F912F91F8
:100840001F910F910F900FBE0F901F901895F89465
:02085000FFCFD8
:00000001FF
