:100000000C942A000C9447000C9447000C94470071
:100010000C9447000C9447000C9447000C94470044
:100020000C9447000C9447000C9447000C94470034
:100030000C9447000C9447000C9447000C94470024
:100040000C9447000C9447000C9447000C94470014
:100050000C94470011241FBECFE5D4E0DEBFCDBF16
:1000600012E0A0E6B0E0ECEAFDE002C005900D92DF
:10007000A638B107D9F722E0A6E8B2E001C01D9288
:10008000AB39B207E1F70E9449000C94D4060C94F6
:1000900000000E945A000E9473020E94150380E62D
:1000A00090E00E94780088E690E00E9478000E942C
:1000B0005105FDCF10BC89E189B986E880BD88E192
:1000C0008AB908955D9BFECF8CB908955F9BFECFE2
:1000D0008CB10895CF93DF930E946600C82FD0E0C3
:1000E0000E9466009E01382BC901DF91CF910895CF
:1000F000CF93DF93EC018991882319F00E9462006D
:10010000FACFDF91CF9108958A3010F4805D01C05D
:10011000895C0C946200CF93C82F82958F700E94E7
:1001200084008C2F8F70CF910C948400CF93C82FB4
:10013000892F0E948B008C2FCF910C948B008823E9
:1001400019F089E990E002C084EA90E00C9478000C
:100150000F931F93CF93DF938C01C0E0D0E0C017C3
:10016000D1072CF480E20E9462002196F8CFDF9143
:10017000CF911F910F910895CF92DF92EF92FF924E
:100180000F931F93CF93DF93CDB7DEB729970FB6A9
:10019000F894DEBF0FBECDBF6C01CE0101967C018D
:1001A00089E0F70111928A95E9F700E00E94660064
:1001B000182F8A3059F18D3049F1802F90E08C153D
:1001C0009D05A0F420ED210F2A3040F0212F2F7D36
:1001D0002154263058F4113608F010520F5FF70101
:1001E000E80FF91F1083812F0E946200183011F070
:1001F0001F37E1F60023D1F20150F701E00FF11DA6
:1002000010828FEA90E00E947800D0CF84EA91E0DB
:100210000E94780020E030E080E0F701E80FF11D57
:1002200090819923B1F0A90124E0440F551F2A952C
:10023000E1F760ED690F292F990F330B6A3018F43D
:100240002053310902C027533109242B352B8F5FEE
:10025000E4CFC90129960FB6F894DEBF0FBECDBF1B
:10026000DF91CF911F910F91FF90EF90DF90CF9092
:100270000895882329F0813031F4B89AC09A0895FE
:10028000B89AC0980895B8980895882329F08130C5
:1002900031F4B99AC19A0895B99AC1980895B99854
:1002A0000895882329F0813031F4BA9AC29A0895CA
:1002B000BA9AC2980895BA980895882329F081308F
:1002C00031F4BB9AC39A0895BB9AC3980895BB981A
:1002D000089586B386FB882780F9089580B382FB52
:1002E000882780F90895882329F0813031F48A9A8B
:1002F000929A08958A9A929808958A98089580B358
:1003000083FB882780F90895882329F0813031F410
:100310008B9A939A08958B9A939808958B98089541
:1003200080B3829581700895882329F0813031F45B
:100330008C9A949A08958C9A949808958C9808951C
:1003400080B385FB882780F90895882329F08130C0
:1003500031F48D9A959A08958D9A959808958D986F
:100360000895882329F0813031F48E9A969A089561
:100370008E9A969808958E980895882329F0813052
:1003800031F48F9A979A08958F9A979808958F9835
:10039000089589B381700895882329F0813031F45C
:1003A000D09AD89A0895D09AD8980895D098089558
:1003B00089B3869581700895882329F0813031F4BE
:1003C000D19AD99A0895D19AD9980895D198089533
:1003D00089B382FB882780F90895882329F081302A
:1003E00031F4D29ADA9A0895D29ADA980895D29886
:1003F000089589B383FB882780F90895882329F01D
:10040000813031F4D39ADB9A0895D39ADB9808951A
:10041000D398089589B3829581700895882329F02F
:10042000813031F4D49ADC9A0895D49ADC980895F6
:10043000D498089589B385FB882780F90895882387
:1004400029F0813031F4D59ADD9A0895D59ADD9856
:100450000895D598089589B386FB882780F9089573
:10046000882329F0813031F4D69ADE9A0895D69AFD
:10047000DE980895D698089589B3881F8827881F25
:100480000895882329F0813031F4D79ADF9A0895AE
:10049000D79ADF980895D798089581E00E94CC01FB
:1004A00081E00E94ED0181E00E94DC0181E00E9478
:1004B0001F0281E00E94300281E00C940E0282E073
:1004C0000E94CC0182E00E94ED0182E00E94DC01EA
:1004D00082E00E94300282E00E940E0281E00E94CF
:1004E000390114BA08950E945F0281E00E94390127
:1004F00080E00E94510180E00E94BD0181E00E94E5
:10050000450180E00E945D0180E00E94A50182E03B
:100510000E94730182E00E94840182E00E949401A3
:1005200082E00E94B10182E00E94FE0182E00C9410
:10053000410281E00E945D010E944A0380E00E9426
:100540005D010E944A030E945F028FEF9FEFDC0172
:100550008093890290938A02A0938B02B0938C02BD
:1005600090938E0280938D020E94900180938F025F
:100570000E946E01809390020E94F9018093910283
:100580000E947F01809392020E940A02809393024C
:100590000E941A02809394020E942B02809395027B
:1005A0000E94A001809396020E943C0280939702D1
:1005B0000E94C901809398020E94D80180939902F9
:1005C0000E94E80180939A0290919802911119C0BB
:1005D00090919902992311F0811113C00E948A030E
:1005E000A0E0B0E08093890290938A02A0938B02EE
:1005F000B0938C020E94AD0390E090938E028093A2
:100600008D0280919602882349F080918602909114
:1006100087020196909387028093860208958091C5
:10062000920281118091960208950E945F020C94BB
:10063000990280E00E94A501109287021092860222
:100640000C941503CF93DF930E945F0280E00E9419
:10065000A50110928702109286020E944A03CAE006
:10066000D0E00E9415032197E1F781E00E94A501E7
:100670000E944A03DF91CF910C9415030E945F0200
:1006800080E00E9441020E944A030E94990282E097
:100690000C94410200000000000000000000000077
:1006A0000895EF92FF920F931F93CF93DF938C01E6
:1006B00081E00E94390181E00E94BD01CFE0D0E0DD
:1006C000EE24E394F12CC7010C2E02C0880F991F71
:1006D0000A94E2F780239123892B11F081E001C075
:1006E00080E00E94510180E00E94BD0181E00E94F3
:1006F000BD01219740F780E00E94BD0181E00E948A
:10070000BD0180E0DF91CF911F910F91FF90EF909D
:100710000C9439010F931F93CF93DF9380E00E94D5
:10072000450181E00E94450100E110E0C0E0D0E019
:10073000CC0FDD1F0E946901C82B80E00E94BD0123
:1007400081E00E94BD010150110991F79C2F8D2F6E
:10075000DF91CF911F910F91089583B30895CF93A7
:10076000DF93EC010E940F03811128C00E944D020B
:1007700081E00E94CC0181E00E94ED0181E00E94B5
:10078000DC01CE010E9451030E944A0380E00E94D6
:10079000DC0180E00E94CC010E944A03C3B30E94A6
:1007A0004A0381E00E94CC0181E00E94DC010E94AA
:1007B0004A030E945F028C2F90E002C08FEF9FEFF0
:1007C000DF91CF910895EF92FF920F931F93CF93F4
:1007D000DF93082FEB010E940F039E0133957901EF
:1007E000811111C00E944D0281E00E94CC0181E084
:1007F0000E94ED0181E00E94DC0110E0102F002733
:100800000C1B1D0B07C0FE018FEF8193EE15FF053A
:10081000E1F7E8CFC8018C0F9D1F0E9451030E9491
:100820004A0380E00E94CC0180E00E94DC010E942B
:100830004A0383B389930E944A0381E00E94CC015A
:1008400081E00E94DC010E944A03CE15DF0511F70A
:10085000DF91CF911F910F91FF90EF900C945F0269
:100860001F93CF93DF93EC01162F0E940F0381118A
:1008700032C00E944D0281E00E94CC0181E00E94C2
:10088000ED0181E00E94DC010E944A03CE010E943A
:1008900051038FEF84BB15BB0E944A0380E00E9486
:1008A000CC0180E00E94ED010E944A0381E00E9499
:1008B000CC0181E00E94ED010E944A03D7FD06C0F1
:1008C00081E291EA0197F1F700C00000DF91CF913A
:1008D0001F910C945F02DF91CF911F9108950E94A8
:1008E0000F03882331F083EB90E00E94780080E0D2
:1008F000089581E00895CF93DF93EC018BE50E948A
:100900006200CE010E94960083ED90E00E94780084
:10091000CE010E94AF03C82F0E948B0084EA91E0B1
:100920000E9478008C2FDF91CF91089580918802EA
:1009300081110BC081E190E00E94A80088ED90E059
:100940000E94780083E191E002C08FE591E00E946F
:10095000780084E691E00E94780080918602909170
:1009600087020E9496008AEA90E00E94780082E066
:1009700090E00E94A8008091890290918A02A09143
:100980008B02B0918C02B7FD03C00E94960004C098
:100990008AE691E00E94780082E090E00E94A80040
:1009A00080918D0290918E0297FD0FC080919A02E6
:1009B000811104C08FE691E00E94780080918D0241
:1009C0000E948B008AEA90E002C08CE691E00E94CF
:1009D000780084E090E00E94A80080918F020E943D
:1009E0009F0083E090E00E94A800809190020E9406
:1009F0009F0084E090E00E94A800809191020E94F4
:100A00009F0085E090E00E94A800809192020E94E1
:100A10009F0085E090E00E94A800809193020E94D0
:100A20009F0083E090E00E94A800809194020E94C1
:100A30009F0083E090E00E94A800809195020E94B0
:100A40009F0084E090E00E94A800809196020E949E
:100A50009F0086E090E00E94A800809197020E948B
:100A60009F0085E090E00E94A800809198020E947B
:100A70009F0083E090E00E94A800809199020E946C
:100A80009F0082E090E00E94A80080919A020E945C
:100A90009F0084EA91E00E94780081E080938802C0
:100AA00008954F925F926F927F928F929F92AF9232
:100AB000BF92CF92DF92EF92FF920F931F93CF934B
:100AC000DF93CDB7DEB7DA950FB6F894DEBF0FBE71
:100AD000CDBF85E791E00E9478000E946600182F44
:100AE0008FED810F8E3520F01D3011F01A3039F462
:100AF000812F0E94620084EA91E00E9478001936FA
:100B000009F4E2C0A8F4123609F4E9C038F41A3046
:100B100009F42BC11D3009F428C123C1143661F139
:100B200008F4E6C0183609F01CC18DE791E0C4C096
:100B3000133709F4D1C030F4103709F4C0C01237AC
:100B400059F00FC1103809F4D6C0113809F4F0C0BB
:100B5000173709F006C18DC00E946F04882309F47D
:100B60000AC187EA91E00E94780084E090E00E9448
:100B7000BC000E947B04FFC00E946F04882309F41C
:100B8000FAC081EB91E00E94780082E090E00E9440
:100B9000BC002C01CE0101963C01BC01842D0E94B9
:100BA000E30388E090E00E94A80081EC91E00E94BD
:100BB0007800552434E0440C551C3A95E1F7630164
:100BC00000E010E084E691E00E947800C80124E093
:100BD000969587952A95E1F7840D951D0E949600BC
:100BE00089EF91E00E94780083E090E00E94A800E5
:100BF00046015801780190E1E90EF11CAE14BF04E2
:100C0000A0F4F40181914F010E948B0080E20E94C8
:100C10006200C501801B910B079719F480E20E94C6
:100C20006200FFEFAF1ABF0AE9CF82E090E00E94B6
:100C3000A8008601C801861997098E159F0558F4EA
:100C4000F80181918F0190EE980F9F3508F08EE2A8
:100C50000E946200EFCF84EA91E00E947800F0E108
:100C6000CF0ED11CE11481E0F80609F484C087019D
:100C7000A9CF0E946F04882309F47DC087EA91E020
:100C80000E94780084E090E00E94BC007C018FEF1D
:100C900091E00E94780082E090E00E94BC00182F52
:100CA000682FC7010E943004C7010E947B041817F7
:100CB00009F461C086E092E00E9478005CC00E9466
:100CC000190384E292E0F8CF0E94220388E392E0C5
:100CD0000E947800109288020E9496044EC00E94E2
:100CE0003E038FE492E00E9478000E94960443C085
:100CF0000E941503F1CF0E940F03882311F081E0B9
:100D000001C080E00E9462000E946A007C0100E055
:100D100010E0E016F10679F10E946600682FC80124
:100D20000E94300480E00E9462000F5F1F4FF1CFED
:100D30000E940F03882311F081E001C080E00E942F
:100D400062000E946A007C0100E010E0E016F106FB
:100D500091F0C8010E94AF030E9462000F5F1F4F15
:100D6000F5CF80E692E00E947800812F8F7E833657
:100D700021F0193611F010928802D3950FB6F8942D
:100D8000DEBF0FBECDBFDF91CF911F910F91FF90BE
:100D9000EF90DF90CF90BF90AF909F908F907F901B
:0C0DA0006F905F904F900895F894FFCF83
:100DAC001B5B324A1B5B480057656C636F6D65209B
:100DBC00746F205A38302D4157206465627567670F
:100DCC0065722E20547970652027682720666F7213
:100DDC002068656C702E0D0A001B5B33326D311B65
:100DEC005B306D001B5B33316D301B5B306D00086D
:100DFC002008005A383020697320696E20636F6EAA
:100E0C0074726F6C206F6620746865206275732E27
:100E1C000D0A005D203D20002F2D205A3830206F08
:100E2C00757470757473202D2D5C20202F2D2D2D35
:100E3C002D2D205A383020696E70757473202D2D2D
:100E4C002D2D2D5C20202F206D656D6F7279205C0F
:100E5C000D0A004359434C4520414444522044411F
:100E6C00544120204D3120494F52512048414C547F
:100E7C0020425553414B20205741495420494E5450
:100E8C00204E4D4920525345542042555352455102
:100E9C0020204D5245512052442057520D0A001B20
:100EAC005B3141001B5B33356D002D2D2D2D001B4F
:100EBC005B33316D00287A38302920070048656C87
:100ECC0070206E6F7420696D706C656D656E7465E5
:100EDC0064207965742E2053656520607265706C92
:100EEC002E63602E0D0A00416464726573733F209B
:100EFC0000506167652028307831303029203F2040
:100F0C00001B5B33356D5F30205F31205F32205F1B
:100F1C0033205F34205F35205F36205F3720205F21
:100F2C0038205F39205F41205F42205F43205F44BF
:100F3C00205F45205F460D0A005F1B5B306D00444F
:100F4C006174613F20001B5B33316D44617461201F
:100F5C007772697465206661696C65642E1B5B3001
:100F6C006D0D0A005A383020706F776572656420F9
:100F7C00646F776E2E0D0A005A383020287265295E
:100F8C00696E697469616C697A65642E0D0A004238
:100F9C007573207265717565737465642E0D0A0026
:100FAC00496E76616C696420636F6D6D616E642E41
:100FBC0020547970652027682720666F7220686539
:060FCC006C702E0D0A00FE
:00000001FF
