:100000000C94E1040C9412170C94FE040C94FE045E
:100010000C94FE040C94FE040C94FE040C94FE0458
:100020000C94FE040C94FE040C94FE040C944D17E6
:100030000C94FE040C94FE040C94FE040C94FE0438
:100040000C94FE040C94FE040C94FE040C94FE0428
:100050000C94FE042511E90F4011E90FE90FE90F97
:10006000E90FE90FE90FE90FE90FE90FE90FE90FD0
:10007000E90FE90FE90FE90FE90F05102A109410B5
:10008000BB10E90FE90FE90FDB10E510E90FE90FED
:10009000E90FF3100E11E90F4011E90F6711E90F95
:1000A000CF11E90FE90FE90FF81112101510181010
:1000B0001B101E10211024102710A310A610A91029
:1000C000AC10AF10B210B510B81002110511081124
:1000D0000B110211051108110B117C117F118211F6
:1000E000851188118B119011BD11DE11E111E41100
:1000F000E711EA11ED11F011F3119912CB121B1354
:100100004913611379139313A113A413A713AA130B
:10011000AD13B013B313071424143A14E014F614F7
:100120002E1644164A14C814CD14D214D714DA1457
:10013000DD144D156A159815C615C915D115E215AA
:10014000EF15F215F515F815FB15FE150116576597
:100150006C636F6D6520746F205A38302D415720C5
:1001600064656275676765722E2054797065202713
:10017000682720666F722068656C702E001B5B32EA
:100180004A1B5B48000D0A00082008001B5B333146
:100190006D301B5B306D001B5B33326D311B5B3090
:1001A0006D003C30000D0A00494F525120726571BC
:1001B000756573746564206279206465766963652A
:1001C00020004C6173742070726573736564206BDA
:1001D0006579207265717565737465642E0D0A000A
:1001E000207761732073656E7420746F2074686566
:1001F00020646973706C61792E0D0A004368617226
:1002000020004B65793F2000427265616B706F6919
:100210006E74206C6973743A2000427265616B7071
:100220006F696E743F2000416464726573733F2090
:10023000005A38302028726529696E697469616CCA
:10024000697A65642E005A383020706F7765726560
:100250006420646F776E2E001B5B33316D446174D4
:1002600061207772697465206661696C65642E1B14
:100270005B306D00446174613F20004164647265CD
:1002800073733F2000085F1B5B306D001B5B3335D1
:100290006D001B5B33356D5F30205F31205F322096
:1002A0005F33205F34205F35205F36205F372020AA
:1002B0005F38205F39205F41205F42205F43205F2D
:1002C00044205F45205F46005061676520283078F4
:1002D00031303029203F20005D203D20005A383049
:1002E00020697320696E20636F6E74726F6C206F6B
:1002F0006620746865206275732E004164647265BF
:1003000073733F200072756E201B5B33326D741B5C
:100310005B306D657374730D0A0054657374733AC2
:100320000D0A202020001B5B33326D521B5B306DA9
:10033000756E0D0A001B5B33326D431B5B306D6FB6
:100340006E74696E75652020001B5B33326D421B35
:100350005B306D7265616B706F696E742020001B7D
:100360005B33326D4C1B5B306D6973742066726F4A
:100370006D20616464722020001B5B33326D6C1B46
:100380005B306D6973742020200073741B5B333203
:100390006D651B5B306D70202020004465627567C1
:1003A0006765723A0D0A202020001B5B33326D6BAB
:1003B0001B5B306D6579626F6172640D0A00446584
:1003C00076696365733A0D0A202020001B5B333287
:1003D0006D631B5B306D79636C650D0A001B5B33CD
:1003E000326D621B5B306D7573207265717565735C
:1003F000742020001B5B33326D691B5B306D6E69AE
:100400007469616C697A6520287265736574292046
:1004100020001B5B33326D701B5B306D6F77657234
:10042000646F776E2020005A38303A0D0A20202061
:10043000001B5B33326D771B5B306D726974652016
:10044000746F206D656D6F72790D0A001B5B33321E
:100450006D641B5B306D756D70206D656D6F7279AD
:100460002020001B5B33326D721B5B306D65616455
:10047000206D656D6F72792020004D656D6F72790A
:100480003A0D0A202020001B5B33326D661B5B3067
:100490006D7265652052414D2028636F6E74726FD6
:1004A0006C6C6572290D0A001B5B33326D731B5B2C
:1004B000306D7461747573202020001B5B33326DC6
:1004C000681B5B306D656C70202000496E666F7232
:1004D0006D6174696F6E3A0D0A202020002A2A206F
:1004E0005761726E696E672C203C2032303020627A
:1004F0007974657320667265652E001B5B324A1B3A
:100500005B48001B5B324A1B5B48002062797465C4
:100510007320667265652E002D2D001B5B306D000B
:100520001B5B33316D002D2D2D2D001B5B306D00BD
:100530001B5B33356D004359434C452041444452C5
:10054000204441544120204D3120494F52512048F0
:10055000414C5420425553414B202057414954208F
:10056000494E54204E4D4920525345542042555334
:1005700052455120204D524551205244205752009F
:100580002F2D205A3830206F757470757473202D9C
:100590002D5C20202F2D2D2D2D2D205A3830206917
:1005A0006E70757473202D2D2D2D2D5C20202F2025
:1005B0006D656D6F7279205C001B5B306D001B5B9D
:1005C00033316D00446F6E652E0D0A0054657374EF
:1005D000696E672052414D2E2E2E0D0A0054657310
:1005E00074696E6720524F4D2028706167652077CF
:1005F0007269746573292E2E2E0D0A00546573746A
:10060000696E6720524F4D2028696E64697669646F
:1006100075616C20777269746573292E2E2E0D0A10
:1006200000427265616B706F696E74206869742135
:100630000D0A001B5B306D0050433A201B5B3332C8
:100640006D002D2D2D2D2D2D2D2D2D2D2D2D2D2DC7
:100650002D2D2D2D2D2D2D0D0A005A38302069738A
:1006600020706F776572656420646F776E2E005D11
:10067000203A20002D3E200073726C00736C6C00D9
:1006800073726100736C6100727200726C0072723E
:100690006300726C63006100290028697900286991
:1006A000780028686C29006C0068006500640063AD
:1006B0000062006166007370006979006978006803
:1006C0006C0064650062630032003100302F31003D
:1006D00030006D007000706500706F0063006E6325
:1006E000007A006E7A006F746472006F7469720031
:1006F0006F757464006F75746900696E6472006967
:100700006E697200696E6400696E6900637064727C
:1007100000637069720063706400637069006C64E8
:100720006472006C646972006C6464006C646900DB
:100730006370006F7200786F7200616E64007362A4
:100740006320612C007375620061646320612C007A
:1007500061646420612C002562006E6F70006E6F12
:100760007000726C6400727264006C6420612C20F2
:1007700072006C6420612C2069006C6420722C2053
:1007800061006C6420692C206100696D20256D007A
:1007900072657469007265746E006E6567006C64E2
:1007A0002025702C2028254E29006C642028254EF9
:1007B000292C202570006164632025682C20257079
:1007C000007362632025682C202570006F757420EB
:1007D0002863292C2030006F7574202863292C2071
:1007E000257200696E2028632900696E2025722C0D
:1007F00020286329007365742025692C2025720048
:100800007265732025692C20257200626974202589
:10081000692C2025720025742025720072737420C3
:10082000257800256120256E0063616C6C20254EC3
:1008300000707573682025500063616C6C2025631F
:100840002C20254E00656900646900657820646588
:100850002C20686C00657820287370292C2025686E
:1008600000696E20612C2028256E29006F75742088
:1008700028256E292C2061006A7020254E006A70A0
:100880002025632C20254E006C642073702C2025BD
:1008900068006A70202825682900657878007265EC
:1008A0007400706F702025500072657420256300FD
:1008B0002561202572006C642025722C2025720091
:1008C00068616C7400636366007363660063706CD8
:1008D000006461610072726100726C610072726327
:1008E0006100726C6361006C642025722C20256E9F
:1008F0000064656320257200696E632025720064C0
:10090000656320257000696E63202570006C64208B
:10091000612C2028254E29006C642025682C202875
:10092000254E29006C6420612C2028646529006C08
:100930006420612C2028626329006C642028254EE5
:10094000292C2061006C642028254E292C20256844
:10095000006C6420286465292C2061006C642028C8
:100960006263292C2061006164642025682C2025A5
:1009700070006C642025702C20254E006A722025A2
:10098000632C202564006A7220256400646A6E7AF4
:100990002025640065782061662C20616627006E42
:1009A0006F70005A38302D415720636F6D70757429
:1009B000657220696E697469616C697A65642E0D6F
:1009C0000A0011241FBECFE5D4E0DEBFCDBF10E08A
:1009D000A0E6B0E0E4E2F0E302C005900D92A43698
:1009E000B107D9F720E0A4E6B0E001C01D92A83A13
:1009F000B207E1F70E9400050C9410180C94000057
:100A00000E9415050E9478070E9497080E94970887
:100A10000E948D088DE791E00E943F058EE491E0F1
:100A20000E9452050E94230BFDCF10BC88E089B9BB
:100A300086E880BD88E18AB908955D9BFECF8CB9B8
:100A400008955F9BFECF8CB10895CF93DF930E94F2
:100A50002105C82FD0E00E9421059E01382BC90135
:100A6000DF91CF910895CF93DF93EC018991882393
:100A700019F00E941D05FACFDF91CF910895CF9311
:100A8000DF93FC018491EF012196882321F00E94DD
:100A90001D05FE01F7CFDF91CF91089585EA91E022
:100AA0000C943F050E943F050C944E05CF93DF93B5
:100AB000EC0197FF05C082EA91E00E943F0512C059
:100AC0008A3091057CF06AE070E00E94B61726EF4C
:100AD0002603C001279F900D1124C80FD91FCB01F9
:100AE0000E9456058C2F805DDF91CF910C941D05DF
:100AF0008A3010F4805D01C0895C0C941D05CF9391
:100B0000C82F82958F700E9478058C2F8F70CF919F
:100B10000C947805CF93C82F892F0E947F058C2FC6
:100B2000CF910C947F05882319F087E991E002C0EA
:100B30008CE891E00C943F050F931F93CF93DF93C4
:100B40008C01C0E0D0E0C017D1072CF480E20E94F5
:100B50001D052196F8CFDF91CF911F910F91089538
:100B6000CF92DF92EF92FF920F931F93CF93DF9379
:100B7000CDB7DEB729970FB6F894DEBF0FBECDBF55
:100B80006C01CE0101967C0189E0F70111928A95F2
:100B9000E9F700E00E942105182F8A3059F18D30C5
:100BA00049F1802F90E08C159D05A0F420ED210FD8
:100BB0002A3040F0212F2F7D2154263058F4113651
:100BC00008F010520F5FF701E80FF91F1083812F13
:100BD0000E941D05183011F01F37E1F60023D1F2F5
:100BE0000150F701E00FF11D108288E891E00E94AA
:100BF0003F05D0CF85E891E00E943F0520E030E03E
:100C000080E0F701E80FF11D90819923B1F0A9016F
:100C100024E0440F551F2A95E1F760ED690F292F55
:100C2000990F330B6A3018F42053310902C027534F
:100C30003109242B352B8F5FE4CFC90129960FB6DC
:100C4000F894DEBF0FBECDBFDF91CF911F910F9102
:100C5000FF90EF90DF90CF900895CF93DF9300D077
:100C6000CDB7DEB72091A4003091A5002115310544
:100C700011F428EA30E0CE010196821B930B0F900D
:100C80000F90DF91CF910895882329F0813031F4BE
:100C9000B89AC09A0895B89AC0980895B8980895D7
:100CA000882329F0813031F4B99AC19A0895B99A0C
:100CB000C1980895B9980895882329F0813031F4B6
:100CC000BA9AC29A0895BA9AC2980895BA9808959D
:100CD000882329F0813031F4BB9AC39A0895BB9AD6
:100CE000C3980895BB98089586B386FB882780F93A
:100CF000089580B382FB882780F90895882329F01E
:100D0000813031F48A9A929A08958A9A9298089535
:100D10008A98089580B383FB882780F908958823F3
:100D200029F0813031F48B9A939A08958B9A939895
:100D300008958B98089580B38295817008958823D3
:100D400029F0813031F48C9A949A08958C9A949871
:100D500008958C98089580B385FB882780F90895BD
:100D6000882329F0813031F48D9A959A08958D9ACF
:100D7000959808958D980895882329F0813031F44D
:100D80008E9A969A08958E9A969808958E980895B8
:100D9000882329F0813031F48F9A979A08958F9A99
:100DA000979808958F98089589B38170089588233E
:100DB00029F0813031F4D09AD89A0895D09AD898F1
:100DC0000895D098089589B38695817008958823F1
:100DD00029F0813031F4D19AD99A0895D19AD998CD
:100DE0000895D198089589B382FB882780F90895E2
:100DF000882329F0813031F4D29ADA9A0895D29A70
:100E0000DA980895D298089589B383FB882780F9EA
:100E10000895882329F0813031F4D39ADB9A08951C
:100E2000D39ADB980895D398089589B382958170F9
:100E30000895882329F0813031F4D49ADC9A0895FA
:100E4000D49ADC980895D498089589B385FB8827AF
:100E500080F90895882329F0813031F4D59ADD9AFC
:100E60000895D59ADD980895D598089589B386FB9D
:100E7000882780F90895882329F0813031F4D69AA3
:100E8000DE9A0895D69ADE980895D698089589B383
:100E9000881F8827881F0895882329F0813031F41E
:100EA000D79ADF9A0895D79ADF980895D79808952A
:100EB00081E00E94D70681E00E94F80681E00E944E
:100EC000E70681E00E942A0781E00C94190782E07E
:100ED0000E94D70682E00E94F80682E00E94E706A0
:100EE00082E00E94190781E00E94440614BA089526
:100EF0000E94670781E00E94440680E00E945C0631
:100F000080E00E94C80681E00E94500680E00E94B6
:100F1000680680E00E94B00681E00E944C0781E0F4
:100F20000E943B0782E00E947E0682E00E948F06BC
:100F300082E00E949F0682E00E94BC0682E00C9440
:100F400009070E9467078091640090916500A0E006
:100F5000B0E080938E0090938F00A0939000B093A8
:100F600091008FEF9FEFDC018093920090939300AC
:100F7000A0939400B093950090939700809396006F
:100F80000E949B06809398000E94790680939900A6
:100F90000E94040780939A000E948A0680939B0017
:100FA0000E94150780939C000E94250780939D0056
:100FB0000E94360780939E000E94AB0680939F009C
:100FC0000E9447078093A0000E94D4068093A1004E
:100FD0000E94E3068093A2000E94F3068093A30080
:100FE0009091A200992311F081111FC00E942E0937
:100FF000A0E0B0E08093920090939300A0939400BF
:10100000B09395000E94510990E0909397008093CF
:10101000960080919800811108C080919200909173
:10102000930090936800809367000895CF93DF93B7
:1010300081E00E9468060E94EE0880E00E94680637
:101040000E94EE08C09199000E94A107CC2309F4E8
:1010500043C00E94790681113FC00E942E09EC0115
:1010600099270097E1F48CEF91E00E943F058D2FC6
:101070000E947F058D2F80528F3560F480E20E94A0
:101080001D0587E20E941D058D2F0E941D0587E228
:101090000E941D0580EE91E00E943F051DC0019752
:1010A00091F482EC91E00E943F05809166000E94DD
:1010B00053090E9416088091660090E09093970073
:1010C0008093960009C088EA91E00E943F058C2F2A
:1010D0000E947F050E944E0580919F00882349F061
:1010E00080916400909165000196909365008093D3
:1010F0006400DF91CF91089580919B0081118091D0
:101100009F000895CF93C82F0E94670781E08C2726
:101110000E944C07CF910C94160880E00E94B00604
:10112000109265001092640080E00C948208CF93C6
:10113000DF930E94670780E00E94B006109265006E
:10114000109264000E94EE08C2E3D0E080E00E94AA
:1011500082082197D9F781E00E94B0060E94EE082C
:1011600080E0DF91CF910C948208CF93DF9380933E
:1011700066000E94670780E00E942A0781E00E94C3
:101180004C07CFE0D0E00E9416080E94630A0E943C
:101190007906882339F02197B1F781E0DF91CF916B
:1011A0000C942A0781E00E942A078DE20E941D0507
:1011B0000E944E05CFECD0E08FEC0E9453090E94B4
:1011C0001608D0939700C09396000E94630A0E946D
:1011D0007906882389F3DF91CF91089500000000FC
:1011E00000000000000000000895EF92FF920F93AE
:1011F0001F93CF93DF938C0181E00E94440681E02E
:101200000E94C806CFE0D0E0EE24E394F12CC701A1
:101210000C2E02C0880F991F0A94E2F780239123B5
:10122000892B11F081E001C080E00E945C0680E023
:101230000E94C80681E00E94C806219740F780E01E
:101240000E94C80681E00E94C80680E0DF91CF912D
:101250001F910F91FF90EF900C9444060F931F93F2
:10126000CF93DF9380E00E94500681E00E945006F9
:1012700000E110E0C0E0D0E0CC0FDD1F0E9474065A
:10128000C82B80E00E94C80681E00E94C806015079
:10129000110991F79C2F8D2FDF91CF911F910F9105
:1012A000089583B308959FEF94BB85BB0895CF93B2
:1012B000DF93EC010E947C08811120C00E94580736
:1012C00081E00E94D70681E00E94F80681E00E943A
:1012D000E706CE010E94F50880E00E94E70680E064
:1012E0000E94D706C3B381E00E94D70681E00E9426
:1012F000E7060E9467078C2F90E002C08FEF9FEFF8
:10130000DF91CF910895EF92FF920F931F93CF93A8
:10131000DF937C01EB018A010E947C08811110C0DF
:101320000E94580781E00E94D70681E00E94F806DB
:1013300081E00E94E7060C0F1D1FEC1AFD0A0AC08F
:10134000FE01CE01805C9F4F2FEF2193E817F90734
:10135000E1F7E6CFC017D107E1F0C7018C0F9D1F61
:101360000E94F5080E94EE0880E00E94D70680E007
:101370000E94E7060E94EE0883B389930E94EE085C
:1013800081E00E94D70681E00E94E7060E94EE08F5
:10139000E1CFDF91CF911F910F91FF90EF900C94CF
:1013A00067070F931F93CF93DF938C01C62FD42F22
:1013B0000E947C0881112EC00E945807C8010E941B
:1013C000F5088FEF84BBC5BB80E00E94D70680E0A4
:1013D0000E94F80681E00E94D70681E00E94F8068C
:1013E00017FD12C0DD2381F014BA80E00E94E706E9
:1013F00080E00E94D70683B3C813F7CF81E00E9434
:10140000D70681E00E94E706DF91CF911F910F91EF
:101410000C946707DF91CF911F910F910895CF92A0
:10142000DF92EF92FF920F931F93CF93DF939C0174
:101430002F733327232B11F080E017C07A016B0143
:10144000EC010E947C088111F7CF8601EC0CFD1C99
:101450000E151F0549F0F80161918F0141E0CE01A1
:101460000E94D1092196F4CF81E0DF91CF911F91A5
:101470000F91FF90EF90DF90CF9008950E947C082D
:10148000882331F08DED92E00E94520580E00895AE
:1014900081E00895CF93DF93EC018BE50E941D0559
:1014A000CE010E948A0588ED92E00E943F05CE01A0
:1014B0000E945709C82F0E947F050E944E058C2F5D
:1014C000DF91CF9108958091690081110CC081E175
:1014D00090E00E949C0580E895E00E94520586E31A
:1014E00095E00E94520580E395E00E943F058091BF
:1014F0008E0090918F000E948A058BE295E00E94F9
:101500003F0582E090E00E949C05809192009091BE
:101510009300A0919400B0919500B7FD03C00E9484
:101520008A0504C086E295E00E943F0582E090E0D3
:101530000E949C05809196009091970097FD0FC0A6
:101540008091A300811104C080E295E00E943F05D4
:10155000809196000E947F058BE195E002C088E1B2
:1015600095E00E943F0584E090E00E949C058091F8
:1015700098000E94930583E090E00E949C05809172
:1015800099000E94930584E090E00E949C05809160
:101590009A000E94930585E090E00E949C0580914E
:1015A0009B000E94930585E090E00E949C0580913D
:1015B0009C000E94930583E090E00E949C0580912E
:1015C0009D000E94930583E090E00E949C0580911D
:1015D0009E000E94930584E090E00E949C0580910B
:1015E0009F000E94930586E090E00E949C058091F8
:1015F000A0000E94930585E090E00E949C058091E8
:10160000A1000E94930583E090E00E949C058091D8
:10161000A2000E94930582E090E00E949C058091C8
:10162000A3000E9493050E944E0581E0809369000B
:1016300008950E942D060E9456058BE095E00E94B9
:101640003F050C944E052F923F924F925F926F92FE
:101650007F928F929F92AF92BF92CF92DF92EF9242
:10166000FF920F931F93CF93DF93CDB7DEB7DA9539
:101670000FB6F894DEBF0FBECDBF0E942105082F24
:10168000863609F46CC160F58C3409F47EC198F497
:10169000823409F491C130F48C3009F0DBC18BEF56
:1016A00094E0D6C1833409F4B1C1853409F0D2C1C4
:1016B00060E081E057C1833609F4C4C140F482354B
:1016C00009F4B9C1823609F0C5C181E0BCC18436D4
:1016D00009F49CC0853609F0BDC160E080E042C1DC
:1016E000803709F430C108F06EC0893609F432C180
:1016F00008F062C0883609F0ADC18BEC94E00E941E
:101700003F058BEB94E00E943F0588EA94E00E943D
:101710003F0587E894E00E943F058AE794E00E9435
:101720003F0583E694E00E943F058CE494E00E942C
:101730003F0581E394E00E943F0587E294E00E9428
:101740003F0582E194E00E943F0584EF93E00E9410
:101750003F058DED93E00E943F058CEC93E00E94E5
:101760003F058EEB93E00E943F058AEA93E00E94DA
:101770003F058BE993E00E943F058AE893E00E94D1
:101780003F0589E793E00E943F058FE593E00E94C3
:101790003F0589E493E00E943F0585E393E00E94C2
:1017A0003F0586E293E00E943F058AE193E00E94B4
:1017B0003F0585E093E04CC18B3609F42AC18C3695
:1017C00009F4D3C047C1843709F432C130F48237F9
:1017D00069F0833709F439C13DC1873709F48EC0F8
:1017E0008E3F09F037C10E94641634C10E943E0A40
:1017F000882309F42FC18BEF92E00E943F0584E01B
:1018000090E00E94B0050E944A0A24C10E943E0A4C
:10181000882309F41FC188EC92E00E943F0582E012
:1018200090E00E94B0052C01552440E051E0CE012B
:1018300001967C01BC0180E0942D0E94830987E021
:1018400090E00E949C0582E992E00E945205542C8F
:1018500044241701A12CB12C4E185F088CE892E0AB
:101860000E943F05C201820D931D0E948A0585E8F2
:1018700092E00E943F0583E090E00E949C054101B8
:101880006501350190E1690E711CC614D704A0F4FE
:10189000F40181914F010E947F0580E20E941D05A5
:1018A000C6018A199B09079719F480E20E941D0559
:1018B000FFEFCF1ADF0AE9CF82E090E00E949C059B
:1018C0006101C6018E199F098615970558F4F60126
:1018D00081916F0190EE980F9F3508F08EE20E9483
:1018E0001D05EFCF0E944E05F0E12F0E311C611453
:1018F00081E0780609F4AEC05301B0CF0E943E0AE1
:10190000882309F4A7C08BE792E00E943F0584E09A
:1019100090E00E94B0057C0184E792E00E943F05C0
:1019200082E090E00E94B005182F41E0682FC701C7
:101930000E94D109C7010E944A0A181709F48AC0F7
:1019400088E592E004C00E948D0886E492E00E943F
:10195000520580C00E94970881E392E0F8CF0E9470
:10196000190B78C00E94030F75C080916700909199
:101970006800409160005091610060916200709138
:10198000630077FD0AC0CA0108C087E292E00E94A6
:101990003F0584E090E00E94B0050E94DE0E092E13
:1019A000000CAA0BBB0B8093600090936100A09386
:1019B0006200B09363004EC08AE192E00E943F054E
:1019C00084E090E00E94B005009711F00E94600F43
:1019D00088E092E00E943F05CE0101960E94590FD7
:1019E0007C0110E08981181770F4F701E10FF11DF7
:1019F000E10FF11D808191810E948A0580E20E94A1
:101A00001D051F5FEFCF0E944E0524C00E94700F7E
:101A100021C082E092E00E943F050E942105182F1C
:101A20000E947F050E944E05812F0E94B50812C0BA
:101A30000E94E40D0FC083E095E00E943F050E94E4
:101A4000FA1608C080E00E9482080E94630A02C061
:101A50000E943F050E942D06883C910520F48DEDE3
:101A600094E00E943F05033761F48FEF9FEFDC01A4
:101A70008093600090936100A0936200B093630034
:101A80000AC08EE9800F823080F3109269000C3614
:101A900011F00C3451F7D3950FB6F894DEBF0FBE9A
:101AA000CDBFDF91CF911F910F91FF90EF90DF900D
:101AB000CF90BF90AF909F908F907F906F905F90EE
:101AC0004F903F902F9008956F927F928F929F92A8
:101AD000AF92BF92CF92DF92EF92FF920F931F933C
:101AE000CF93DF93CDB7DEB7C054D1090FB6F894CA
:101AF000DEBF0FBECDBF8C013C017394FE01319659
:101B00007F015E01F1E4AF0EB11C0615170508F068
:101B100045C0C8010E948A0582E090E00E949C05B1
:101B200080916B00F70190E0282F290F21939F5F90
:101B30009034D1F7805C80936B0068014701F40119
:101B400061914F0140E0C6010E94D109D7FC06C057
:101B500081E291EA0197F1F700C000009FEFC91AF6
:101B6000D90A8A149B0459F7670148018E189F0807
:101B7000C4018C0D9D1D0E945709F60121916F0132
:101B800091E0281390E0892F0E949305CA14DB048A
:101B900079F70E944E05005C1F4FB7CFC05CDF4F46
:101BA0000FB6F894DEBF0FBECDBFDF91CF911F916E
:101BB0000F91FF90EF90DF90CF90BF90AF909F90EC
:101BC0008F907F906F9008958F929F92AF92BF9267
:101BD000CF92DF92EF92FF920F931F93CF93DF93F9
:101BE000CDB7DEB7C058D1090FB6F894DEBF0FBE2F
:101BF000CDBF80916A0091E0980F90936A00809326
:101C00006B008CEF95E00E943F0580E090E00E9421
:101C1000640D8DED95E00E943F05E12C8EE7F82ED6
:101C2000C7010E948A0582E090E00E949C05809195
:101C30006B008E010F5B1F4FF80190E05801292FB8
:101C4000280F21939F5F9034D1F7805C80936B00C5
:101C500040E450E0B801C7010E940F0A40E450E0A0
:101C6000BE016F5F7F4FC7010E948309CE010196BD
:101C70006C01480181E0F6012081F801908129136F
:101C800080E00E9493050F5F1F4FF6019081F401E1
:101C90008081981779F08EEB95E00E943F05F60160
:101CA00080810E947F0589EB95E00E943F0580E2DC
:101CB0000E941D05FFEFCF1ADF0ACA14DB04C9F624
:101CC0000E944E0580E4E80EF11CE1149FE7F9063E
:101CD00009F0A6CF8CEC95E00E943F0580E090E8EB
:101CE0000E94640D84EC95E00E943F05C058DF4FD0
:101CF0000FB6F894DEBF0FBECDBFDF91CF911F911D
:101D00000F91FF90EF90DF90CF90BF90AF909F909A
:101D10008F900895AF92BF92CF92DF92EF92FF9291
:101D20000F931F93CF93DF93CDB7DEB7E0970FB636
:101D3000F894DEBF0FBECDBF7C018BE50E941D0570
:101D4000C7010E948A058FE696E00E943F056E015A
:101D500089E2C80ED11C5E01E1E3AE0EB11C860122
:101D6000EC18FD08C701800F911F0E945709F80168
:101D700081938F01EA15FB05A9F740E050E0BE0111
:101D80006F5F7F4FC6010E9423128C01CE01019626
:101D90000E9433050E944E05C801E0960FB6F894E4
:101DA000DEBF0FBECDBFDF91CF911F910F91FF908E
:101DB000EF90DF90CF90BF90AF9008950F931F9357
:101DC000CF93DF93EC0108E010E0809167009091E1
:101DD00068008C179D0729F484E796E00E943F0570
:101DE00004C083E090E00E949C05CE010E948A0E10
:101DF000C80FD91F0150110941F7CE01DF91CF91D2
:101E00001F910F910895FF920F931F93CF93DF932C
:101E1000082F162F0E94AB06811109C08AE596E0B3
:101E2000DF91CF911F910F91FF900C9452051111EA
:101E300004C082E496E00E943F0580E00E94820890
:101E40000E949B06C82F002321F0111102C00E949E
:101E5000630AC111F2CFC0919200D091930081E04A
:101E60000E9482080E948A06F82E01110E94630ACD
:101E7000F110F5CF111115C088E396E00E943F05DF
:101E8000CE010E948A0583E396E00E943F050E94EE
:101E90004E05CE01DF91CF911F910F91FF900C94D1
:101EA000DE0ECE01DF91CF911F910F91FF900C9428
:101EB0008A0E20916C00FC0120838DE690E008954D
:101EC000E0916C00E03158F421E02E0F20936C007B
:101ED000F0E0EE0FFF1FE359FF4F918380830895D9
:101EE0000F931F9361E080E00E94030F90916C00BC
:101EF00000919200109193002091940030919500F0
:101F0000EDE6F0E080E0891769F34191519160E0DE
:101F100070E0041715072607370731F481E296E0D1
:101F20001F910F910C943F058F5FEDCFFB01249122
:101F30003196222321F0DC012D93CD01F8CFFC0155
:101F400010820895CF93DF93EC01CB01BE010E9474
:101F5000D01709900020E9F7CE010197DF91CF91CA
:101F600008956130710541F020F06230710539F05B
:101F700008956FEB76E005C06CEB76E002C069EB8C
:101F800076E00C94960F3F924F925F926F927F9201
:101F90008F929F92AF92BF92CF92DF92EF92FF9279
:101FA0000F931F93CF93DF93CDB7DEB78C899D89B5
:101FB0006E887F888E01085E1F4FCC24C394D12C7D
:101FC000EE24E394F12C58E6552E6BE2462E74E293
:101FD000372E93012F5F3F4FF3014491442309F4BF
:101FE0001DC2453209F015C242E0640E711CF901B0
:101FF0002491422F50E0FA01EE54F109EB32F10541
:1020000040F7E65DFF4F0C94CA17F8010190F0818C
:10201000E02D0E5F1F4FE830F105D8F6EB5AFF4F69
:102020000C94CA1760E577E0E0C169E477E0DDC1B0
:1020300065E477E0DAC16EE377E0D7C16AE377E081
:10204000D4C166E377E0D1C163E377E0CEC160E35A
:1020500077E0CBC1F80120810C5F1F4F3281313016
:10206000F1F030F0323091F1333009F446C0B1CFA5
:10207000253079F030F4243009F0ABCF6CE277E012
:10208000B4C1263049F0273009F0A3CF6EE177E0E4
:10209000ACC168E277E0A9C163E277E0A6C1253070
:1020A00079F030F4243009F094CF6AE177E09DC1F3
:1020B000263049F0273009F08CCF6CE077E095C1ED
:1020C00066E177E092C161E177E08FC1253079F078
:1020D00030F4243009F07DCF68E077E086C1263007
:1020E00049F0273009F075CF6AEF76E07EC164E0F1
:1020F00077E07BC16FEF76E078C1253079F030F47E
:10210000243009F066CF65EF76E06FC1263049F0E4
:10211000273009F05ECF66EE76E067C160EF76E0CB
:1021200064C16BEE76E061C1F801E0810E5F1F4F84
:102130004E2F50E04830510508F04BCFFA01E35ADA
:10214000FF4F0C94CA1763EE76E04FC161EE76E064
:102150004CC16EED76E049C16CED76E046C169EDAB
:1021600076E043C166ED76E040C164ED76E03DC1C6
:1021700062ED76E03AC15801F2E0AF0EB11CD80131
:10218000ED91FC91EC0DFD1D6081FC013082062E6D
:10219000000C770B6E5F7F4F9C0177FF03C02F5FB2
:1021A0003F4F03C02E5F3F4F41824AE050E0C901DC
:1021B0000E94A20F46C05801E2E0AE0EB11CD80149
:1021C0006D917C910E94B10F22C15801B2E0AB0E1B
:1021D000B11CF801608171814AE050E00E94A20FB9
:1021E000DC011C9214C1F801E0810E5F1F4F4E2FDD
:1021F00050E04830510508F0ECCEFA01EB59FF4FA2
:102200000C94CA1760ED76E0F0C06CEC76E0EDC09F
:102210006AEC76E0EAC068EC76E0E7C05801B2E02C
:10222000AB0EB11CD801ED91FC91EC0DFD1D608150
:1022300070E040E150E00E94A20FFC010196508244
:102240001182BFEFEB1AFB0AE2C05801E2E0AE0ECA
:10225000B11CD801ED91FC91EC0DFD1D618170E088
:10226000762F66272081622B40E150E00E94A20F6A
:10227000FC01019650821182B2E0EB0EF11CC7C046
:10228000F80130810C5F1F4F203719F042E050E019
:1022900002C041E050E0313049F028F0323049F0DE
:1022A000333061F096CE65EC76E09FC062EC76E06C
:1022B0009CC0628173810E94B10F8BCE4130510569
:1022C00019F466EB76E091C063EB76E08EC0D8013E
:1022D0008D909C9011971296AD90BC9013970A5FC9
:1022E0001F4F482D50E04830510508F049C0FA0111
:1022F000E359FF4F0C94CA1761EB76E00EC06FEA0A
:1023000076E00BC06DEA76E008C06BEA76E005C0C7
:1023100069EA76E002C067EA76E00E94960F30C074
:10232000A114B10419F462EA76E05FC0AA94AB2864
:1023300019F46EE976E002C06AE976E01496ED9150
:10234000FC911597EC0DFD1DB0800E94960FB7FC17
:1023500003C0DC014C9201966B2DBB0C770B4AE05D
:1023600050E00E94A20F68E976E00E94960FB6E066
:102370008B16910409F02DCE0BC066E976E035C0CE
:10238000E6E08E16910409F024CEAB2809F421CEA4
:10239000FFEFEF1AFF0A2FEFC21AD20A1ACEF80186
:1023A000E0810E5F1F4F4E2F50E04830510508F07E
:1023B00010CEFA01EB58FF4F0C94CA1762E976E091
:1023C00014C06EE876E011C06BE876E00EC068E8F5
:1023D00076E00BC064E876E008C060E876E005C00F
:1023E0006CE776E002C068E776E00E94960FF1CDD8
:1023F000580142E0A40EB11CD8016D917C9140E1DE
:1024000050E00E94A20FFC010196508211828501CA
:10241000E0CDFC01408339010196DBCDDC011C924B
:10242000C701DF91CF911F910F91FF90EF90DF9047
:10243000CF90BF90AF909F908F907F906F905F9064
:102440004F903F900895AF92BF92DF92EF92FF922C
:102450000F931F93CF93DF93E12CF12C5701DC01F5
:102460002C913FEFE31AF30A0196322F36953695F9
:102470003695E32FE770DE2EE22FE770D32FD17071
:10248000CD2DC6952295269526952370223009F4E8
:1024900094C1233009F4ABC1213009F467C10E2F78
:1024A00010E0F8013197E730F10520F4E358FF4FD1
:1024B0000C94CA1721E0D21681F0D21658F032E0FF
:1024C000D316C1F083E0D8121AC0BF93AF9386E849
:1024D00099E0E2C38FE999E002C084E999E09F9313
:1024E0008F937F936F930E94C30F0F900F900F9065
:1024F0000F90DEC3BF93AF938CE899E0CDC3BF9339
:10250000AF930D2D10E0045011091F930F938CE72A
:1025100099E09F938F937F936F930E94C30F2DB782
:102520003EB7285F3F4F0FB6F8943EBF0FBE2DBF9A
:10253000BFC3D11118C0BF93AF935F934F931F9246
:10254000CF9382E799E09F938F937F936F930E943D
:10255000C30F2DB73EB7265F3F4F0FB6F8943EBF6F
:102560000FBE2DBFA5C35F934F931F92CF935F9371
:102570004F9387E699E09F938F937F936F930E9489
:10258000C30F2DB73EB7265F3F4F0FB6F8943EBF3F
:102590000FBE2DBF8DC3D11127C0C23051F0C33043
:1025A000F1F0C13019F08CE599E099CF81E599E01F
:1025B00096CF5F934F93BF93AF9385E499E09F933A
:1025C0008F937F936F930E94C30F2DB73EB7285F01
:1025D0003F4F0FB6F8943EBF0FBE2DBF69C3BF93E8
:1025E000AF938AE399E058C3C23051F0C330F1F0A1
:1025F000C13019F08FE299E072CF84E299E06FCF99
:10260000BF93AF935F934F9388E199E09F938F932C
:102610007F936F930E94C30F2DB73EB7285F3F4F44
:102620000FB6F8943EBF0FBE2DBF42C3BF93AF930A
:102630008DE099E031C3D11116C05F934F931F9283
:10264000CF9386E099E09F938F937F936F930E943F
:10265000C30F2DB73EB7285F3F4F0FB6F8943EBF6C
:102660000FBE2DBF25C35F934F931F92CF938FEF64
:1026700098E09F938F937F936F930E94C30F2DB722
:102680003EB7285F3F4F0FB6F8943EBF0FBE2DBF39
:102690000FC3BF93AF935F934F931F92DF9288EF67
:1026A00098E09F938F937F936F930E94C30F2DB7F2
:1026B0003EB7265F3F4F0FB6F8943EBF0FBE2DBF0B
:1026C000F7C2BF93AF935F934F931F92DF9281EF57
:1026D00098E09F938F937F936F930E94C30F2DB7C2
:1026E0003EB7265F3F4F0FB6F8943EBF0FBE2DBFDB
:1026F000DFC2BF93AF93BF93AF935F934F931F928C
:10270000DF9287EE98E09F938F937F936F930E9461
:10271000C30F2DB73EB7245F3F4F0FB6F8943EBFAF
:102720000FBE2DBFC5C20D2D10E0F8013197E73067
:10273000F10520F4EC57FF4F0C94CA1782EE98E095
:10274000CECE8DED98E0CBCE89ED98E0C8CE85ED6C
:1027500098E0C5CE81ED98E0C2CE8DEC98E0BFCE7A
:1027600089EC98E0BCCE85EC98E0B9CE36E0D31287
:1027700006C04115510519F480EC98E0B0CEBF9326
:10278000AF935F934F931F92EF93BF93AF935F937A
:102790004F931F92DF9286EB98E09F938F937F93E6
:1027A0006F930E94C30F2DB73EB7205F3F4F0FB608
:1027B000F8943EBF0FBE2DBF7BC2BF93AF935F9314
:1027C0004F931F92EF931F92DF9280EB98E09F93BD
:1027D0008F937F936F930E94C30F2DB73EB7245FF3
:1027E0003F4F0FB6F8943EBF0FBE2DBF61C20E2FF4
:1027F00010E0F8013197E730F10520F4E557FF4F7D
:102800000C94CA171F92DF9289EA98E045C2D11151
:1028100005C01F92CF9382EA98E03EC2C23051F0C9
:10282000C33069F0C13019F08EE998E058CE8AE9DA
:1028300098E055CE5F934F9382E998E02DC25F9365
:102840004F9388E898E028C2BF93AF931F92DF921E
:102850008EE798E09F938F937F936F930E94C30FAF
:102860002DB73EB7285F3F4F0FB6F8943EBF0FBE5F
:102870002DBF1EC20D2D10E0F8013197E730F10594
:1028800020F4EE56FF4F0C94CA17BF93AF9388E71E
:1028900098E002C2CD01019611962C91322F369507
:1028A000369536953770E22FE77022952695269556
:1028B00023702230C9F1233009F450C02130D1F007
:1028C0009F938F935F934F931F92EF931F923F932A
:1028D00086E198E09F938F937F936F930E94C30F3D
:1028E0002DB73EB7245F3F4F0FB6F8943EBF0FBEE3
:1028F0002DBFB2C19F938F935F934F931F92EF931E
:102900001F923F938BE098E09F938F937F936F93F9
:102910000E94C30F2DB73EB7245F3F4F0FB6F89408
:102920003EBF0FBE2DBF98C19F938F935F934F9370
:102930001F92EF931F923F9380E098E09F938F93B5
:102940007F936F930E94C30F2DB73EB7245F3F4F15
:102950000FB6F8943EBF0FBE2DBF7EC19F938F93DD
:102960005F934F931F92EF931F923F9385EF97E0F2
:102970009F938F937F936F930E94C30F2DB73EB7A2
:10298000245F3F4F0FB6F8943EBF0FBE2DBF64C10A
:10299000BF93AF938CE698E07FC1BF93AF9381E67E
:1029A00098E07AC15F934F9385E598E075C18BE419
:1029B00098E095CD88E498E092CD85E498E08FCDBD
:1029C000BF93AF931F92DF9289E398E09F938F9319
:1029D0007F936F930E94C30F2DB73EB7285F3F4F81
:1029E0000FB6F8943EBF0FBE2DBF62C1D11105C016
:1029F0001F92CF9381E398E04FC1C23079F0C3308A
:102A000019F442E050E02ACDC13019F441E050E021
:102A100025CDBF93AF9389E298E03EC111960C910A
:102A20001197202F2295269526952370902F969505
:102A300096959695892F8770E02FE770213009F0E1
:102A4000EDC011969170F82EF6940E2F10E0F8015B
:102A50003197E730F10520F4E756FF4F0C94CA1781
:102A60008630C1F0BF93AF935F934F931F928F93C4
:102A70008AEE97E09F938F937F936F930E94C30F8B
:102A80002DB73EB7265F3F4F0FB6F8943EBF0FBE3F
:102A90002DBFE2C083EE97E0B6C08630C1F0BF9391
:102AA000AF935F934F931F928F9387ED97E09F9320
:102AB0008F937F936F930E94C30F2DB73EB7265F0E
:102AC0003F4F0FB6F8943EBF0FBE2DBFC5C08CEC74
:102AD00097E099C0911116C01F92FF925F934F9398
:102AE00081EC97E09F938F937F936F930E94C30F26
:102AF0002DB73EB7285F3F4F0FB6F8943EBF0FBECD
:102B00002DBFAAC01F92FF925F934F9386EB97E071
:102B10009F938F937F936F930E94C30F2DB73EB700
:102B2000285F3F4F0FB6F8943EBF0FBE2DBF94C035
:102B3000911116C01F92FF92BF93AF938AEA97E05C
:102B40009F938F937F936F930E94C30F2DB73EB7D0
:102B5000285F3F4F0FB6F8943EBF0FBE2DBF7CC01D
:102B6000BF93AF931F92FF928EE997E09F938F934D
:102B70007F936F930E94C30F2DB73EB7285F3F4FDF
:102B80000FB6F8943EBF0FBE2DBF66C08AE997E02E
:102B90003AC0813019F085E997E035C080E997E0C7
:102BA00032C01F928F938AE897E09F938F937F9311
:102BB0006F930E94C30F0F900F900F900F900F9084
:102BC0000F904AC090E0FC013197E730F10520F406
:102BD000E056FF4F0C94CA1782E897E014C08AE7CA
:102BE00097E011C082E797E00EC08AE697E00BC03D
:102BF00086E697E008C082E697E005C08EE597E09C
:102C000002C08AE597E09F938F937F936F930E9412
:102C1000C30F0F900F900F900F901EC02230D1F471
:102C2000E430C0F48430B0F01F92EF931F928F9382
:102C300087E597E09F938F937F936F930E94C30FD5
:102C40002DB73EB7285F3F4F0FB6F8943EBF0FBE7B
:102C50002DBF02C081E090E001962AC0BF93AF93E0
:102C60001F92DF9283E298E09F938F937F936F93FD
:102C70000E94C30F2DB73EB7285F3F4F0FB6F894A1
:102C80003EBF0FBE2DBF14C038E0D39EF00111240B
:102C9000FF93EF938CE198E09F938F937F936F93D3
:102CA0000E94C30F0F900F900F900F900F900F90F6
:102CB0008A0D9B1DDF91CF911F910F91FF90EF9097
:102CC000DF90BF90AF9008956F927F928F929F9206
:102CD000AF92BF92CF92DF92EF92FF920F931F932A
:102CE000CF93DF93CDB7DEB7C058D1090FB6F894B4
:102CF000DEBF0FBECDBF0E948D0881E00E9482081A
:102D00000E947C08882321F082E00E941D055CC09F
:102D100081E00E941D050E9425056C0181E00E9452
:102D20001D055E0141E4A40EB11CCE0101964C01CB
:102D300066246A94712C0E9421058823E1F17501B3
:102D4000082F10E0C7018A199B098017910734F4F6
:102D50000E942105F70181937F01F4CFA801B501FD
:102D6000C6010E940F0AA801B401C6010E9483098E
:102D7000F401E12CF12C20E030E08191A901480F11
:102D8000511DCA01B3010E94A2179C018E0D9F1D07
:102D9000B3010E94A2177C01CF01881999098017FD
:102DA00091075CF3822F0E941D058E2D0E941D0548
:102DB000C00ED11EC0CF0E942105811103C081E049
:102DC0000E941D050E94FA16C058DF4F0FB6F894F6
:102DD000DEBF0FBECDBFDF91CF911F910F91FF904E
:102DE000EF90DF90CF90BF90AF909F908F907F90AB
:102DF0006F9008958AB180698AB98BB780648BBF60
:102E000085B78E7F85BF85B7826085BF789483EA5A
:102E100099E00E9452050E9497089BE083E098BBCE
:102E200088BBFDCF1F920F920FB60F9211242F93E4
:102E30003F934F935F936F937F938F939F93AF9342
:102E4000BF93EF93FF93F8940E942E099C013327C0
:102E50002115310521F4892F0E941D050BC0213059
:102E6000310541F480918D000E9453098BE088BBAD
:102E700083E088BB789414BAFF91EF91BF91AF9132
:102E80009F918F917F916F915F914F913F912F9182
:102E90000F900FBE0F901F9018951F920F920FB6B4
:102EA0000F9211240F931F932F933F934F935F9390
:102EB0006F937F938F939F93AF93BF93CF93DF9342
:102EC000EF93FF93F8940E94210580938D0080E09A
:102ED0000E942A0781E00E944C07CFE0D0E01BE06F
:102EE00003E018BB08BB0E947906882331F02197C4
:102EF000C1F781E00E942A070EC081E00E942A07E4
:102F0000DBE0C3E08FEC0E945309D8BBC8BB0E9432
:102F100079068823B9F3789414BAFF91EF91DF9181
:102F2000CF91BF91AF919F918F917F916F915F9161
:102F30004F913F912F911F910F910F900FBE0F90C6
:102F40001F901895AA1BBB1B51E107C0AA1FBB1FEE
:102F5000A617B70710F0A61BB70B881F991F5A9525
:102F6000A9F780959095BC01CD01089597FB072E98
:102F700016F4009407D077FD09D00E94A21707FC31
:102F800005D03EF4909581959F4F08957095619579
:102F90007F4F0895EE0FFF1F0590F491E02D0994E7
:102FA0004532510520F4423010F00C94DB17FB0140
:102FB0001082CB010895BB274A3031F4992322F4C3
:102FC000BDE2909581959F4F0C94E717BB27FB01BD
:102FD0005527AA27880F991FAA1FA41710F0A41B12
:102FE00083955051B9F7A05DAA3308F0A95DA1936C
:102FF000009779F7B111B1931192CB010C9400189D
:10300000DC01FC01672F71917723E1F7329704C04F
:103010007C916D9370836291AE17BF07C8F30895DA
:04302000F894FFCF52
:04302400FFFFFFFFAC
:00000001FF
