:100000000C942A000C9447000C9447000C94470071
:100010000C9447000C9447000C9447000C94470044
:100020000C9447000C9447000C9447000C94470034
:100030000C9447000C9447000C9447000C94470024
:100040000C9447000C9447000C9447000C94470014
:100050000C94470011241FBECFE5D4E0DEBFCDBF16
:1000600010E0A0E6B0E0E8E0F4E002C005900D92F8
:10007000A836B107D9F720E0A8E6B0E001C01D928C
:10008000A737B207E1F70E9449000C9402020C94D2
:1000900000000E949E010E94C1010E94540080E65F
:1000A00090E00E946000FFCF10BC89E189B986E82A
:1000B00080BD88E18AB908955D9BFECF8CB9089513
:1000C000CF93DF93EC018991882319F00E945C00A3
:1000D000FACFDF91CF910895C098B8980895C1984C
:1000E000B9980895C298BA980895C398BB9808958E
:1000F00092988A98089593988B98089594988C98DC
:10010000089595988D98089596988E980895D89802
:10011000D0980895D998D1980895DA98D2980895EA
:10012000DB98D3980895DC98D4980895DD98D598F5
:100130000895DE98D6980895DF98D7980895882373
:1001400029F0813031F4B89AC09A0895B89AC098CD
:1001500008950C946C00882329F0813031F4B99A09
:10016000C19A0895B99AC19808950C946F00882394
:1001700029F0813031F4BA9AC29A0895BA9AC29895
:1001800008950C947200882329F0813031F4BB9AD1
:10019000C39A0895BB9AC39808950C9475000E9461
:1001A000780080E00895882329F0813031F48A9A1C
:1001B000929A08958A9A929808950C9478000E94D1
:1001C0007B0080E00895882329F0813031F48B9AF8
:1001D000939A08958B9A939808950C947B000E94AB
:1001E0007E0080E00895882329F0813031F48C9AD4
:1001F000949A08958C9A949808950C947E000E9485
:10020000810080E00895882329F0813031F48D9AAF
:10021000959A08958D9A959808950C948100882355
:1002200029F0813031F48E9A969A08958E9A969894
:1002300008950C9484000E94870080E0089588232C
:1002400029F0813031F4D09AD89A0895D09AD8986C
:1002500008950C9487000E948A0080E00895882306
:1002600029F0813031F4D19AD99A0895D19AD99848
:1002700008950C948A000E948D0080E008958823E0
:1002800029F0813031F4D29ADA9A0895D29ADA9824
:1002900008950C948D000E94900080E008958823BA
:1002A00029F0813031F4D39ADB9A0895D39ADB9800
:1002B00008950C9490000E94930080E00895882394
:1002C00029F0813031F4D49ADC9A0895D49ADC98DC
:1002D00008950C9493000E94960080E008950E9477
:1002E000990080E00895882329F0813031F4D69A6E
:1002F000DE9A0895D69ADE9808950C9499000E948B
:100300009C0080E00895882329F0813031F4D79A49
:10031000DF9A0895D79ADF9808950C949C0082E0A4
:100320000E941F0182E00E943F0182E00E942F0193
:1003300082E00E94730182E00C945F010E948F01B1
:1003400081E00E949F0080E00E94AB0081E00E945B
:10035000B70080E00E94C30080E00E94030182E0B9
:100360000E94D30082E00E94E30082E00E94F3003A
:1003700082E00E940F0182E00E944F0182E00C9413
:100380008301CF93DF9381E00E94C3000E94FB01B1
:1003900080E00E94C3000E94FB010E948F01C8E61A
:1003A000D0E0198218821A820E94EF008B830E948B
:1003B000CF008C830E944B018D830E94DF008E83CF
:1003C0000E945B018F830E946B0188870E946F01EE
:1003D00089870E94FF008A870E947F018B870E9485
:1003E0001B018C870E942B018D870E943B018E8709
:1003F000DF91CF9108958CE190E10197F1F700C072
:0804000000000895F894FFCFFD
:080408001B5B324A1B5B48003C
:00000001FF
